:020000040800F2
:100000001825002065020008353A00083735000839
:10001000313A00085B040008E967000800000000AE
:10002000000000000000000000000000A93C0008E3
:100030008D05000800000000A73C0008BD3C00083A
:100040007F0200087F0200087F0200087F0200088C
:100050007F0200087F0200087F0200087F0200087C
:100060007F0200087F0200087F0200087F0200086C
:100070007F0200087F0200087F0200087F0200085C
:100080007F0200087F0200087F0200087F0200084C
:1000900061040008710400087F0200087F02000864
:1000A0007F020008913D00087F0200087F020008DF
:1000B0007F0200087F0200087F0200087F0200081C
:1000C0007F0200087F0200087F0200087F0200080C
:1000D0007F0200087F0200087F0200087F020008FC
:1000E0007F0200087F0200087F0200087F020008EC
:1000F0007F0200087F0200087F0200087F020008DC
:100100007F0200087F0200087F0200087F020008CB
:100110007F0200087F0200087F0200087F020008BB
:100120007F0200087F0200087F0200087F020008AB
:100130007F02000800000000000000007F020008AD
:1001400081040008910400087F020008393A000881
:100150007F0200087F0200087F0200087F0200087B
:100160007F0200087F0200087F0200087F0200086B
:100170007F0200087F0200087F02000800000000E4
:10018000000000007F0200080000000000000000E6
:100190007F02000800000000000000007F0200084D
:1001A0000000000000000000000000007F020008C6
:1001B0007F0200087F0200087F0200087F0200081B
:1001C0007F02000800F002F800F03CF80AA090E876
:1001D000000C82448344AAF10107DA4501D100F002
:1001E00031F8AFF2090EBAE80F0013F0010F18BF93
:1001F000FB1A43F001031847186700003867000036
:10020000103A24BF78C878C1FAD8520724BF30C842
:1002100030C144BF04680C60704700000023002414
:1002200000250026103A28BF78C1FBD8520728BF06
:1002300030C148BF0B6070471FB506F057FB1FBDAC
:1002400010B510BD00F0CFF81146FFF7F5FF06F02E
:10025000E9FA00F0EDF803B4FFF7F2FF03BC00F099
:10026000F5F800000948804709480047FEE7FEE727
:10027000FEE7FEE7FEE7FEE7FEE7FEE7FEE7FEE756
:1002800004480549054A064B704700007D3D0008BB
:10029000C5010008181F0020182500201821002083
:1002A0001821002053EA020C00F069802DE9F04B80
:1002B0004FF00006002B1FBFB3FA83F503FA05F4D5
:1002C00024FA05F65E4012BF1643B2FA82F502FA2E
:1002D00005F4C5F120051EBF22FA05FC44EA0C0412
:1002E000203556EA044C4FEA144418BF641C4FF002
:1002F00000084FF00009904271EB030C39D300293C
:1003000019BFB1FA81F701FA07F6B0FA80F700FADF
:1003100007F6C7F120071EBF20FA07FC46EA0C06C5
:100320002037B6FBF4FCA7EB0507103F07F01F0BC7
:10033000CBF120060CFA0BFB2CFA06F644BFB346B1
:100340000026202FA4BF5E464FF0000B5BEA060C90
:1003500008BF4FF0010B19EB0B09ABFB027C48EB1C
:100360000608C01B06FB02CC0BFB03CC71EB0C0197
:10037000C1E70B46024641464846BDE8F08B13B53F
:100380004FF000004FF00001AFF30080BDE81C40CB
:1003900070474FF0000200B5134694469646203948
:1003A00022BFA0E80C50A0E80C50B1F12001BFF42E
:1003B000F7AF090728BFA0E80C5048BF0CC05DF894
:1003C00004EB890028BF40F8042B08BF704748BFE2
:1003D00020F8022B11F0804F18BF00F8012B704756
:1003E000704770477047754600F02CF8AE46050020
:1003F0006946534620F00700854618B020B5FFF740
:100400003FFFBDE820404FF000064FF000074FF0DF
:1004100000084FF0000B21F00701AC46ACE8C00922
:10042000ACE8C009ACE8C009ACE8C0098D4670472B
:1004300010B50446AFF300802046BDE81040FFF73A
:100440000ABF000000487047B81E0020014918206C
:10045000ABBEFEE726000200704700BFFEE70000CB
:1004600010B5024800F0E2FA10BD0000240100209F
:1004700010B5024800F0DAFA10BD00002401002097
:1004800010B5024800F0D2FA10BD0000880100202B
:1004900010B5024800F0CAFA10BD00008801002023
:1004A00000B58BB0012009900020069005900190C6
:1004B0000290039004900790012008900E200A906B
:1004C00001A90B4800F03AF9012009900E2006908E
:1004D0000020059001900290039004900790012065
:1004E000089001A9034800F029F90BB000BD0000F5
:1004F00024010020880100200346042B15D007DCCE
:100500007BB1012B0ED0022B0DD0032B12D10BE0AF
:10051000202B0BD0212B0AD0222B09D0232B09D141
:1005200007E008E007E006E005E004E003E002E0A1
:1005300001E000E000BF00BF0020704700207047CE
:1005400010B500220449054803F0ADFF04490348F3
:1005500003F09AFF002010BD7C0F0020A0020020B5
:100560007C07002070B504460D462146034803F081
:100570008BFF024803F054FF002070BDA002002052
:1005800010B503460C460021084610BD704772B6F0
:1005900000BFFEE770B50A480468001D0568001D2D
:1005A0000668344454B108220649204603F01AF97B
:1005B000042204491031284603F014F970BD0000EC
:1005C000107AFF1F5600002010B5024692F8203026
:1005D000012B01D0022B06D1106840690843146832
:1005E0006061002010BD506A40F4802050620120FC
:1005F000F8E7F0B504460D461E4694F820702068D2
:100600008368A86800B900E000BF012F01D0022F65
:100610007DD103F0806030B903F0006018B903F0B9
:10062000805000287ED0C3F30161012088403060F3
:10063000A86860B9B5F800C0E86840EA4C5C20687A
:1006400000F5C07000EB0110C0F800C00FE0D5E964
:1006500001C040EACC00D5F80CC040EA0C00D4F848
:1006600000C00CF5C07C0CEB011CCCF80000D5F8E8
:1006700010C0206800F5C07000EB0110C0F804C085
:10068000287D01280ED1206800F5C07000EB011014
:10069000406840F4807C206800F5C07000EB0110D9
:1006A000C0F804C0D079000692F806C040EA0C40B9
:1006B00092F805C040EA0C2092F804C040EA0C0011
:1006C000D4F800C00CF5C07C0CEB011CCCF80C007D
:1006D000D078000692F802C040EA0C4092F801C0BF
:1006E00040EA0C2092F800C040EA0C00D4F800C0A8
:1006F0000CF5C07C0CEB011CCCF80800206800F560
:10070000C07000EB0110006840F0010C01E00FE048
:1007100008E0206800F5C07000EB0110C0F800C0D0
:100720000020F0BD606A40F4001060620120F8E72C
:10073000606A40F4802060620120F2E7F0B5044670
:100740000A46216894F82050012D01D0022D7ED157
:10075000424901F50071086840F00100086008682E
:1007600020F47C5008600868566A40EA0620086059
:10077000107D00F01F06012000FA06F3C8699843B7
:10078000C861A1F50071D069C8B9D1F80C029843CD
:10079000C1F80C02908880B2968940EA064601F5BD
:1007A0001070576940F83760108880B2168940EAA7
:1007B000064601F51070576900EBC7004660D06926
:1007C000012819D1D1F80C021843C1F80C02908805
:1007D00080B2168840EA064601F51070576940F865
:1007E0003760908980B2168940EA064601F510709C
:1007F000576900EBC7004660906928B9D1F8040238
:100800009843C1F8040204E0D1F804021843C1F887
:100810000402106928B9D1F814029843C1F81402EF
:1008200004E0D1F814021843C1F81402106A012838
:1008300004D1D1F81C021843C1F81C02D1F80002FF
:1008400020F00100C1F800020020F0BDFFE7606A5F
:1008500040F4802060620120F7E70000006400405F
:10086000704770B5044694F82050012D01D0022D38
:100870007DD151B92068C06800F0030080B9606A7A
:1008800040F400106062012070BD2068006900F033
:10089000030028B9606A40F4001060620120F3E7A9
:1008A000206800F5D87000EB0110006800F004002B
:1008B0009060906840B9206800F5D87000EB011096
:1008C0000068400D106007E0206800F5D87000EB6C
:1008D00001100068C0085060206800F5D87000EB77
:1008E0000110006800F00200D060206800F5D870A8
:1008F00000EB0110406800F00F00082802D3082028
:10090000106108E0206800F5D87000EB0110406825
:1009100000F00F001061206800F5D87000EB0110A6
:10092000406800F47F40000A9061206800F5D870AC
:1009300000EB01104068000C5061206800F5D87091
:1009400000EB011080681870206800F5D87000EB8B
:100950000110806800F47F40000A5870206800F59C
:10096000D87000EB0110806800F47F0000E03CE0EC
:10097000000C9870206800F5D87000EB01108068BA
:10098000000ED870206800F5D87000EB0110C06828
:100990001871206800F5D87000EB0110C06800F4F1
:1009A0007F40000A5871206800F5D87000EB0110F4
:1009B000C06800F47F00000C9871206800F5D870C2
:1009C00000EB0110C068000ED87131B92068C06812
:1009D00040F020002668F06005E02068006940F0E3
:1009E00020002668306100204EE7606A40F48020D5
:1009F0006062012048E70146002091F82020012A8A
:100A000001D0022A11D10B689B6803F0806303B107
:100A1000401C0B689B6803F0006303B1401C0B682B
:100A20009B6803F0805303B1401C70472DE9F05FD1
:100A300004460025206846692068D0F804902068A4
:100A400087682068D0F80CA02068D0F810B0206823
:100A5000D0F8188006F00100002855D007F00100FA
:100A6000C0B101202168886007F0020018B120465B
:100A7000A16A88470EE007F0040010B145F4006554
:100A800008E007F0080010B145F4805502E0204668
:100A9000616B884707F48070C8B14FF4807021689B
:100AA000886007F4007018B12046E16A88470EE0BC
:100AB00007F4806010B145F4005508E007F40060C9
:100AC00010B145F4804502E02046A16B884707F449
:100AD0008030C8B14FF480302168886007F400305E
:100AE00018B12046216B88470EE007F4802010B132
:100AF00045F4004508E007F4002010B145F48035C6
:100B000002E02046E16B884706F0080038B10AF0A1
:100B1000100020B145F4007510202168C86006F06F
:100B2000040040B10AF0080028B108202168C8601C
:100B30002046616C884706F0020038B12068C06822
:100B400000F0030010B12046216C884706F04000F9
:100B500038B10BF0100020B145F4806510202168F9
:100B6000086106F0200040B10BF0080028B1082011
:100B7000216808612046E16C884706F0100038B112
:100B80002068006900F0030010B12046A16C88477E
:100B900006F4003040B109F0100028B1102021689F
:100BA00048602046216D884706F4803040B109F046
:100BB000080028B10820216848602046616D8847F8
:100BC00006F4004088B309F0040078B306F480709E
:100BD00020B108F0010008B145F0010506F40070ED
:100BE00020B108F0020008B145F0020506F480606B
:100BF00020B108F0040008B145F0040506F40060D7
:100C0000A0B108F0700088B108F07000402817D03B
:100C100006DC10280BD020280CD0302819D10CE08D
:100C2000502810D0602814D110E01DE019E045F0E4
:100C300008050FE045F010050CE045F0200509E03F
:100C400045F0400506E045F0800503E045F4807579
:100C500000E000BF00BF2068806920F070002168BC
:100C600088610420216848602DB1606A2843606271
:100C70002046A16D8847BDE8F09F000070B504468E
:100C80000CB9012070BD94F82000002820D16848DC
:100C90002064684860646848A0646848E064684804
:100CA000A0626848E06268482063684860636848FA
:100CB000A0636848E06368482065684860656848E4
:100CC000A065E06D08B96748E0652046E16D88479A
:100CD0002068006840F001002168086000F0F6FA22
:100CE00005460DE000F0F2FA401B0A2808D9606AB8
:100CF00040F400306062052084F820000120C1E744
:100D00002068406800F001000028EBD020680068EF
:100D100020F002002168086000F0D8FA05460DE0D6
:100D200000F0D4FA401B0A2808D9606A40F4003069
:100D30006062052084F820000120A3E72068406855
:100D400000F002000028EBD1207E012806D12068A7
:100D5000006840F080002168086005E020680068B5
:100D600020F0800021680860607E012806D120689C
:100D7000006840F040002168086005E020680068D5
:100D800020F0400021680860A07E012806D120687C
:100D9000006840F020002168086005E020680068D5
:100DA00020F0200021680860E07E012806D120683C
:100DB000006820F010002168086005E020680068E5
:100DC00040F0100021680860207F012806D12068CB
:100DD000006840F008002168086005E020680068AD
:100DE00020F0080021680860607F012806D1206893
:100DF000006840F004002168086005E02068006891
:100E000020F0040021680860D4E902010843216948
:100E10000843616908436168491E08432168C86145
:100E200000206062012084F8200000202AE70000F2
:100E3000ED0F0008E90F00084310000841100008FA
:100E4000A7100008AB100008AF100008A51000089C
:100E5000A9100008AD10000845100008B1100008E6
:100E600061080008690E000810B586B00446142118
:100E700001A8FFF78EFA5749206888424AD15648A0
:100E80000068401C544908600846006801280FD1DA
:100E900000BF002000905148006840F000704F49AA
:100EA00008600846006800F00070009000BF00BFB6
:100EB00000BF0020009049481038006840F0020050
:100EC0004649103908600846006800F002000090AA
:100ED00000BF00BF4FF4407001900220029000203C
:100EE0000390032004900920059001A93C4800F0DC
:100EF000F5F800221146142000F076FA142000F0D4
:100F00005FFA00221146152000F06EFA152000F05D
:100F100057FA5DE033492068884259D100BF00206C
:100F200000902E48006840F080602C490860084618
:100F3000006800F08060009000BF00BF2648006895
:100F4000401C254908600846006801280FD100BFF1
:100F5000002000902148006840F000701F490860A0
:100F60000846006800F00070009000BF00BF00BF9E
:100F70000020009019481038006840F0020017491E
:100F8000103908600846006800F00200009000BFB9
:100F900000BF4FF4405001900220029000200390C7
:100FA000032004900920059001A90D4800F096F84F
:100FB00000221146402000F017FA402000F000FA0D
:100FC00000221146412000F00FFA412000F0F8F90C
:100FD00006B010BD006400400C0000204038024004
:100FE00000040240006800407047000010B58AB05D
:100FF00004461149206888420BD101AB03AA0021A5
:101000002046FFF72EFC0398112802D101A802F018
:10101000FDFA0A49206888420BD101AB03AA0021DE
:101020002046FFF71EFC0398112802D101A802F008
:10103000EDFA0AB010BD00000064004000680040F6
:1010400070477047704770B5044694F82000012837
:1010500022D1022084F820002068006820F00100DE
:101060002168086000F032F905460DE000F02EF925
:10107000401B0A2808D9606A40F4003060620520ED
:1010800084F82000012070BD2068406800F0010055
:101090000028EBD16062F6E7606A40F400206062ED
:1010A0000120F0E7704770477047704770477047FE
:1010B0007047000070B5044600F008F90646254662
:1010C000681C10B104480078054400BF00F0FEF829
:1010D000801BA842FAD370BD8C000020F8B50246F0
:1010E0000B460025002400200021D1E0012606FA4D
:1010F00001F51E6806EA0504AC4274D11E7906F0BB
:101100000306012E04D01E7906F00306022E13D129
:1011100090684F000326BE40B0434F00DE68BE40DB
:1011200030439060506801268E40B0431E79C6F36C
:1011300000168E40304350601E7906F00306032EE1
:1011400009D0D0684F000326BE40B0434F009E68D0
:10115000BE403043D0601E7906F00306022E13D144
:10116000CF0802F1200656F827004E07F70E0F268B
:10117000BE40B0434F07FF0E1E69BE403043CF084C
:1011800002F1200646F8270010684F000326BE40F3
:10119000B0431E7906F003064F00BE403043106096
:1011A0005E6806F44036002E71D000BF002600961F
:1011B000394E366846F48046374F3E603E463668C4
:1011C00006F48046009600BF00BF344E8F0856F8E4
:1011D00027008E07370F0F26BE40B043304EB24275
:1011E00002D100261FE052E02E4EB24201D101266C
:1011F00019E02D4EB24201D1022614E02B4EB2422C
:1012000001D103260FE02A4EB24201D104260AE0A2
:10121000284EB24201D1052605E0274EB24201D147
:10122000062600E007268F073F0FBE4030431B4EC7
:101230008F0846F82700214E3068A0435E6806F408
:10124000801606B120431D4E3060361D3068A04325
:101250005E6806F4001606B12043184E361D306055
:10126000164E361F3068A0435E6806F4003606B19D
:101270002043124E361F3060361F3068A0435E6830
:1012800006F4803606B120430C4E083E3060491CFF
:101290001029FFF42BAFF8BD443802400838014054
:1012A000000002400004024000080240000C02401E
:1012B000001002400014024000180240083C0140A7
:1012C0000AB1816101E00B04836170470148006845
:1012D0007047000084000020034800680349097833
:1012E0000844014908607047840000208C000020F9
:1012F00010B50D48006840F400700B4908600846BE
:10130000006840F4806008600846006840F480701F
:101310000860032000F0A6F80F2000F007F800F0A6
:101320002BF8002010BD0000003C024070B50446C0
:101330000E4800784FF47A71B1FBF0F00C4909685F
:10134000B1FBF0F5284601F069FE08B1012070BD3F
:10135000102C07D200222146501E00F045F8054807
:10136000046001E00120F2E70020F0E78C0000209B
:10137000900000208800002008B500BF00200090E9
:101380000E48006840F480400C4908600846006838
:1013900000F48040009000BF00BF00BF002000901C
:1013A000081F006840F08050091F08600846006868
:1013B00000F08050009000BF00BF08BD44380240DC
:1013C0000146084600280DDB00BF00BF00F01F03E8
:1013D00001229A4043099B0003F1E023C3F8002156
:1013E00000BF00BF00BF70472DE9F05F80460D468B
:1013F0001646002705F0FAF9074639462A463346CD
:1014000001F00700C0F1070ABAF1040F02D94FF04A
:10141000040A01E0C0F1070AD14600F1040ABAF15A
:10142000070F02D24FF0000A01E0A0F1030AD446F0
:101430004FF0010A0AFA09FAAAF1010A0AEA020AB5
:101440000AFA0CFA4FF0010B0BFA0CFBABF1010B93
:101450000BEA030B4AEA0B042146404605F0CEF99D
:10146000BDE8F09F00BF00F00702064B19684FF679
:10147000FF031940044B0B4343EA0221014B19605F
:1014800000BF70470CED00E00000FA0501460A6855
:101490000120C1F8D804002081F8CC04906940F004
:1014A00000609061506D024B1843506500207047FA
:1014B0000300001070B504460D4615B1012D2CD166
:1014C00016E0E07A38B102F0FDFB1548006820F024
:1014D0000600134908602068D0F8000E20F00100D3
:1014E0002168C1F8000ED4F8E00403F013FE14E004
:1014F0002068D0F8000E40F001002168C1F8000E0D
:10150000D4F8E00403F099FEE07A28B104480068BA
:1015100040F006000249086000BF00BF70BD000037
:1015200010ED00E002461068416200207047F0B5FF
:10153000034615461868446A21B944EA05401E6806
:10154000B06219E01868806A04EB1044002208E0D9
:10155000186800F5827050F8220004EB1044501C0B
:10156000C2B2481E9042F3D844EA0547186800F515
:1015700082704E1E40F826700020F0BD10B5044663
:10158000D4F8E00403F0A8FC10BD70B504460D4685
:1015900005EBC50304F1140101EB8301CA68294678
:1015A000D4F8E00403F093FB70BD70B504460D461B
:1015B00005EBC50304F5157101EB8301CA682946E3
:1015C000D4F8E00403F007FC70BD10B50446D4F86D
:1015D000E00403F084FC10BD2DE9F04104460D4603
:1015E00005F08000802808D105F00F0000EBC00155
:1015F00004F1140000EB810607E005F00F0000EB9A
:10160000C00104F5157000EB81063146206804F036
:10161000ADFE07463846BDE8F08170B504460E467B
:1016200006F0800080280AD106F00F0000EBC00110
:1016300004F1140000EB81050120687009E006F058
:101640000F0000EBC00104F5157000EB81050020D0
:10165000687006F00F00287000BF94F89404012809
:1016600001D1022070BD012084F8940400BF2946F6
:10167000206804F00DFA00BF002084F8940400BF35
:1016800000BFEFE770B504460E4606F00F00217963
:10169000884201D9012070BD06F0800080280AD15F
:1016A00006F00F0000EBC00104F1140000EB81050F
:1016B0000120687009E006F00F0000EBC00104F59E
:1016C000157000EB8105002068700020A87006F0FE
:1016D0000F00287000BF94F89404012801D1022063
:1016E000D9E7012084F8940400BF2946206804F05B
:1016F000C9FB00BF002084F8940400BF00BFCAE704
:10170000024601F00F0000EBC00302F5157000EB7C
:101710008300406970472DE9F04705460E46904624
:101720001F464FF0000906F0800080280AD106F01D
:101730000F0000EBC00105F1140000EB8104012053
:10174000607009E006F00F0000EBC00105F51570B0
:1017500000EB81040020607006F00F002070C8F3D9
:101760000A00A0602771607808B120786083022F9A
:1017700001D10020607100BF95F89404012802D1C6
:101780000220BDE8F087012085F8940400BF2146BF
:10179000286804F091F800BF002085F8940400BF89
:1017A0004846EEE72DE9F04105460E4617469846B5
:1017B00006F00F0000EBC00105F5157000EB810489
:1017C000E760C4F8108000206061607006F00F00D0
:1017D0002070A879012800D1E761AA7921462868FC
:1017E00004F0E4FB0020BDE8F08170B504460D462E
:1017F00005F00F002179884201D9012070BD05F064
:10180000800080280AD105F00F0000EBC00104F130
:10181000140000EB81060120707007E005EBC501A4
:1018200004F5157000EB8106002070700120B07087
:1018300005F00F00307000BF94F89404012801D126
:101840000220DBE7012084F8940400BF31462068C1
:1018500004F05FFB05F00F0028B9A17904F29C4267
:10186000206804F0D7FA00BF002084F8940400BF79
:1018700000BFC3E72DE9F04105460E4617469846DE
:1018800006F00F0000EBC00105F1140000EB81042D
:10189000E760C4F81080002060610120607006F0ED
:1018A0000F002070A879012800D1E761AA792146AC
:1018B000286804F07BFB0020BDE8F0812DE9FE4F95
:1018C0000446D4F800B05E46206804F031FE0028DB
:1018D00074D1206804F06BFE08B9BDE8FE8F40F6B5
:1018E00008008059C0F30D20C4F8D404206804F027
:1018F0005EFE00F00200022805D12068406900F079
:10190000020021684861206804F051FE00F01000D8
:10191000102845D12068806920F010002168886176
:10192000DBF8209009F00F0000EBC00104F5157002
:1019300000EB810AC9F3434002281AD147F6F07040
:1019400009EA000030B3C9F30A125846DAF80C105D
:1019500004F032FEC9F30A11DAF80C000844CAF8A0
:101960000C00C9F30A11DAF814000844CAF814008C
:1019700010E0C9F3434006280CD1082204F29C4130
:10198000584604F019FEC9F30A11DAF814000844A5
:10199000CAF814002068806940F01000216888614E
:1019A000206804F004FE00F40020B0F5002F7BD185
:1019B0000025206804F0CBFD029072E003E302985A
:1019C00000F00100002868D0E9B2206804F0E2FDD0
:1019D000804608F0010048B1012106F5306000EBB7
:1019E000451081602946204602F060F808F00800A2
:1019F000082809D1082106F5306000EB4510816008
:101A00002946204602F020F808F01000102805D1E1
:101A1000102106F5306000EB4510816008F00200EF
:101A2000022824D1DBF8140000F08000802807D1C0
:101A300040F60400805940F4806140F60400815172
:101A400005EBC50104F5157000EB810A9AF8030057
:101A5000012806D100208AF80300E9B2204600F0F0
:101A6000BDFA022106F5306000EB4510816008F0F8
:101A70002000202805D1202106F5306000EB45101C
:101A8000816008F40050B0F5005F06D14FF40051BA
:101A900006F5306000EB451081606D1C029840082F
:101AA0000290029800288AD1206804F080FD00F49A
:101AB0008020B0F5802F7DD1206804F03EFD02909B
:101AC00000259AE0029800F00100002873D0E9B2E6
:101AD000206804F046FD804608F00100F0B305F0F0
:101AE0000F0101208840019040F63400815901988F
:101AF00021EA000040F634018851012106F510600A
:101B000000EB45108160A079012824D105EBC501C7
:101B100004F1140000EB810005EBC502C16804F17B
:101B2000140000EB82008068014405EBC50204F15B
:101B3000140000EB8200C1606DB905EBC50104F132
:101B4000140000EB8100006928B904F29C420121D5
:101B5000206804F05FF9E9B2204600E001E0FFF7F9
:101B600014FD08F00800082805D1082106F51060CA
:101B700000EB4510816008F01000102805D11021FD
:101B800006F5106000EB4510816008F04000402829
:101B900005D1402106F5106000EB4510816008F08A
:101BA000020002281DD12946584604F084FC05EBAA
:101BB000C50101E025E01CE004F1140000EB810AFE
:101BC0009AF80300012806D100208AF80300E9B240
:101BD000204600F0FAF9022106F5106000EB4510EE
:101BE000816008F08000802803D12946204601F05A
:101BF000FFFF6D1C029840080290029800287FF4B5
:101C000061AF206804F0D3FC00F00040B0F1004F59
:101C10001CD140F60400805920F0010140F6040078
:101C2000815194F8CC04012807D1002084F8CC0419
:101C300000212046FFF73EFC02E0204600F008FBB2
:101C40002068406900F0004021684861206804F085
:101C5000AEFC00F40060B0F5006F0ED140F6080055
:101C6000805900F0010010B1204600F049FB2068C7
:101C7000406900F4006021684861206804F097FC26
:101C800000F00060B0F1006F19D12068406900F0E9
:101C900000602168486194F8CC0468B9012084F898
:101CA000CC042068406DC0F38300C4F8D004012147
:101CB0002046FFF7FFFB02E0204600F021FB2068F2
:101CC00004F075FC00F48050B0F5805F7ED140F6E2
:101CD0000400805920F0010140F6040081511021D8
:101CE000206804F0E8FB002732E04FF67F3106F56C
:101CF000106000EB4710816006F5106000EB4710A4
:101D0000006820F4001106F5106000EB4710016038
:101D10004FF67F3106F5306000EB4710816006F525
:101D2000306000EB4710006820F4001106F53060C9
:101D300000EB4710016006F5306000EB47100068CB
:101D400040F0006106F5306000EB471001607F1C39
:101D50002079B842C9D840F61C00805940F00111E2
:101D600040F61C008151E07B70B1D6F8840840F049
:101D70000B01C6F8841840F64400805940F00B016E
:101D800040F6440081510FE040F61400805942F2C1
:101D90002B01084340F614018851081F805940F078
:101DA0000B014FF401608151D6F8000820F4FE6069
:101DB000C6F80008A17904F29C42206804F02AF8D1
:101DC0002068406900F48050216800E000E048612C
:101DD000206804F0ECFB00F40050B0F5005F17D170
:101DE000206803F0D1FD206804F08FFBE07100F063
:101DF0000FFE0090E2792068009904F05FFC204615
:101E000000F00EFA2068406900F400502168486133
:101E1000206804F0CCFB00F00800082808D1204618
:101E200000F01DFA2068406900F008002168486150
:101E3000206804F0BCFB00F08000802818D1DBF89B
:101E4000180020F08000CBF8180001250DE005EB0C
:101E5000C50104F5157000EB8100C078012803D19D
:101E6000E9B22046FFF7B8FB6D1C2079A842EED8F6
:101E7000206804F09CFB00F48010B0F5801F2DD189
:101E8000012522E006F5106000EB4510D0F8009027
:101E900005EBC50104F1140000EB81000079012875
:101EA00012D109F00040B0F1004F0DD1012105EB36
:101EB000C50204F1140000EB8200C170E8B240F0EA
:101EC00080012046FFF788FB6D1C2079A842D9D8F5
:101ED0002068406900F4801021684861206804F09F
:101EE00066FB00F40010B0F5001F44D1012538E076
:101EF00006F5306000EB4510D0F8009005EBC50109
:101F000004F5157000EB81000079012828D109F053
:101F10000040B0F1004F23D109F4803094F8D4147C
:101F200001F0010188421BD1012105EBC50204F536
:101F3000157000EB8200C170DBF8180040F08000E3
:101F4000CBF81800DBF8140000F0800040B940F630
:101F50000400805940F4007140F60400815103E010
:101F60006D1C2079A842C3D800BF2068406900F4E6
:101F7000001021684861206804F019FB00F08040DF
:101F8000B0F1804F08D12046FFF7F8FA2068406989
:101F900000F0804021684861206804F008FB00F0F0
:101FA000040004280FD12068D0F8049009F0040040
:101FB000042802D12046FFF708FB2068406840EA69
:101FC00009002168486000BF87E470B504460D46EB
:101FD0002946D4F8E00402F0EFFF70BD70B5044666
:101FE0000D462946D4F8E00403F00AF870BDF8B5B0
:101FF00004460CB90120F8BD266894F8950428B968
:10200000002084F89404204600F0A6F8032084F809
:102010009504B6F1A04F01D10021A171206803F011
:10202000F1FE207C8DF8000094E80F0003F0C0FC66
:1020300020B1022084F895040120DCE7002120680B
:1020400004F0EAFA20B1022084F895040120D2E7D6
:10205000002531E0012105EBC50204F1140000EB7D
:102060008200417005EBC50104F1140000F8215015
:1020700005EBC50100EB81004583002105EBC5029E
:1020800004F1140000EB8200017105EBC50204F1BC
:10209000140000EB8200816005EBC50204F114001E
:1020A00000EB8200C16005EBC50204F1140000EBF7
:1020B00082000161681CC5B22079A842CADC0025F3
:1020C0002AE0002105EBC50204F5157000EB820043
:1020D000417005EBC50104F5157000F82150002191
:1020E00005EBC50200EB8200017105EBC50204F5AA
:1020F000157000EB8200816005EBC50204F51570D8
:1021000000EB8200C16005EBC50204F5157000EB21
:1021100082000161681CC5B22079A842D1DC207C14
:102120008DF8000094E80F0003F07CFD20B1022040
:1021300084F8950401205EE700206074012084F893
:102140009504207B012802D12046FFF79FF92068E3
:1021500003F056FD00204EE710B59EB00446142152
:1021600019A8FEF716F95C2102A8FEF712F92068FB
:10217000B0F1A04F4DD14FF4807002900020179025
:1021800002A800F0D7F808B1FEF701FA00BF00205E
:1021900001902148006840F001001F49086008468E
:1021A000006800F00100019000BF00BF4FF4C05074
:1021B000199002201A9000201B9003201C900A20E6
:1021C0001D9019A91548FEF789FF00BF1248001D90
:1021D000006840F080001049091D086000BF002021
:1021E00001900D481430006840F480400A491431D1
:1021F00008600846006800F48040019000BF00BFFE
:1022000000BF002211464320FFF7EEF84320FFF7FE
:10221000D7F81EB010BD0000303802400000024068
:1022200070B504460125E07908B9002506E0E0799B
:10223000022801D1012501E0FEF7A9F92946D4F8C9
:10224000E00402F086FFD4F8E00402F02DFF70BD38
:1022500010B50446D4F8E00402F05CFF10BD10B5E0
:102260000446D4F8E00402F060FF10BD70B50446E7
:102270000D4600BF94F89404012801D1022070BDDE
:10228000012084F8940400BF65742946206804F096
:10229000F7F900BF002084F8940400BF00BFEEE708
:1022A00010B5044604F29C41D4F8E00402F068FF43
:1022B00010BD70B50446256800BF94F89404012849
:1022C00001D1022070BD012084F8940400BFE868A9
:1022D00000F0400030B1607B012803D1A86B40F4CE
:1022E0008030A863206804F0B7F8206803F076FC1B
:1022F00000BF002084F8940400BF00BFE2E70000A4
:1023000010B50446D4F8E00402F097FF2068D0F836
:10231000000E40F001002168C1F8000EE07A28B1FB
:102320000348006840F006000149086010BD000045
:1023300010ED00E02DE9FE4F0446002500260027A1
:10234000A846A946AA46AB460020029001902078F4
:1023500000F0010058B1FE48006820F0C060A16B99
:102360000843FB490860A06B08B90120029020785F
:1023700000F0020002280BD1F548006820F0C050A0
:10238000E16B0843F2490860E06B08B90120029054
:10239000207800F00400042811D1ED48006820F4F2
:1023A0004010216B0843EA490860206BB0F5801F9C
:1023B00001D101200290206B08B901200190207802
:1023C00000F00800082811D1E148006820F440001E
:1023D000616B0843DE490860606BB0F5800F01D186
:1023E00001200290606B08B901200190207800F074
:1023F000200020286FD100BF00200090D4484C3826
:10240000006840F08050D2494C39086008460068A6
:1024100000F08050009000BF00BFCE48006840F43C
:102420008070CC490860FEF751FF054607E0FEF7D3
:102430004DFF401B022802D90320BDE8FE8FC5488E
:10244000006800F480700028F1D0C1481C38006892
:1024500000F4407656B3B4F8400000F44070B04247
:1024600024D0BB481C38006820F440760120BA49CB
:10247000086000200860B6481C380660006800F05C
:10248000010098B1FEF722FF054608E0FEF71EFFA7
:10249000401B41F28831884201D90320CDE7AC4886
:1024A0001C380068C0F340000028EFD000BFB4F82B
:1024B000400000F44070B0F5407F0DD1A44884384E
:1024C000006820F4F810A54A216C11400843A04987
:1024D0008439086008E013E09D488438006820F4DF
:1024E000F8109B498439086099481C380068B4F892
:1024F0004010C1F30B01084395491C39086000BF27
:10250000207800F01000102803D194F85800944966
:102510000860207800F08000802809D18C480830BD
:10252000006820F44000E16C0843894908310860E4
:10253000207800F04000402809D185480830006824
:1025400020F08060A16C0843814908310860208830
:1025500000F48070B0F5807F0FD17D4808300068AE
:1025600020F00060616D0843794908310860606DB2
:10257000B0F1006F01D101200190208800F40070BB
:10258000B0F5007F09D172480830006820F0805013
:10259000616C08436E4908310860208800F480604F
:1025A000B0F5806F0FD16A480830006820F0005005
:1025B000216D0843664908310860206DB0F1005F65
:1025C00001D1012002900298012803D02068B0F5C3
:1025D000006F7DD1002063498866FEF777FE0546CF
:1025E00006E0FEF773FE401B022801D9032024E712
:1025F00057488C380068C0F3C0600028F1D12078BB
:1026000000F0010008B1A06B30B1207800F00200AA
:1026100002281ED1E06BE0B94D4808380068C0F3CD
:102620000140401C47004A4808380068C0F303686E
:10263000D4E9011041EA80100121C1EB570140EAC1
:10264000014040EA0861207D41EA007040490839B4
:102650000860207800F00400042803D1206BB0F556
:10266000801F08D0207800F00800082829D1606B6E
:10267000B0F5800F25D1364808380068C0F3014016
:10268000401C4700324808380068C0F30279D4E99A
:10269000011041EA80100121C1EB570140EA0141DC
:1026A000207C41EA006040EA097029490839086045
:1026B0002748006820F01F00A16A491E08432449EA
:1026C0000860208800F48060B0F5806F23D100E0BE
:1026D0005BE0206DB0F1005F1DD11D480838006837
:1026E000C0F30140401C4FEA400819480838006810
:1026F000C0F30279D4E9011041EA80110122E068B7
:10270000C2EB500041EA004040EA086040EA09702C
:102710000F4908390860208800F40060B0F5006FA8
:1027200012D1D4E9011041EA80110122E068C2EB24
:10273000500041EA0041207C41EA0061207D41EAED
:1027400000700349083908600120064988660BE0DB
:102750008C38024000700040400E4742FFFCFF0FE3
:10276000E011474200004742FEF7B0FD054606E093
:10277000FEF7ACFD401B022801D903205DE641486D
:102780000068C0F3C0600028F2D00198012877D11A
:1027900000203D490867FEF799FD054606E0FEF773
:1027A00095FD401B022801D9032046E63548006804
:1027B000C0F340700028F2D1207800F00400042813
:1027C00001D1206B30B1207800F00800082824D116
:1027D000606B10BB2B4888300068C0F30140401C80
:1027E0004FEA400AD4E9061041EA80100121C1EB0A
:1027F0005A0140EA01412420005D41EA006021497C
:1028000088310860081D006820F4F851E06A401E15
:1028100041EA00201B498C310860208800F4807058
:10282000B0F5807F17D1606DB0F1006F13D11548FE
:1028300088300068C0F3036BD4E9061041EA8011C8
:102840000122206AC2EB500041EA004040EA0B60DE
:102850000C498831086001200B490867FEF736FDF6
:10286000054607E0FEF732FD401B022802D903208F
:10287000E3E505E003480068C0F340700028F1D0AC
:102880000020DAE5003802400000474270B50446F7
:102890000D460CB9012070BD5848006800F00F00CB
:1028A000A84209D255490D700846006800F00F0093
:1028B000A84201D00120EEE7207800F002000228B3
:1028C0001DD1207800F00400042805D14C48006890
:1028D00040F4E0504A490860207800F008000828D9
:1028E00005D14748006840F46040454908604448C5
:1028F000006820F0F000A168084341490860207892
:1029000000F00100A8B36068012807D13C480838EE
:102910000068C0F34040B8B90120BCE760680228F5
:1029200002D06068032807D1354808380068C0F332
:10293000406048B90120AEE7314808380068C0F36C
:10294000400008B90120A6E72D48006820F00300E8
:10295000616808432A490860FEF7B8FC064609E0AA
:10296000FEF7B4FC801B41F28831884202D9032073
:1029700091E707E02248006800F00C006168B0EBC6
:10298000810FEDD11D48006800F00F00A84209D961
:102990001A490D700846006800F00F00A84201D0E7
:1029A000012078E7207800F00400042807D11448BB
:1029B000006820F4E050E16808431149086020787D
:1029C00000F00800082808D10D48006820F4604095
:1029D000216940EAC1000A49086000F01FF808496F
:1029E0000968C1F30311074A515CC84006490860F1
:1029F00006480068FEF79AFC00204CE7003C0240C5
:102A000008380240F6680008900000208800002086
:102A10000148006870470000900000202DE9F04751
:102A2000002400250026A146A2463F48006800F089
:102A30000C0030B1042807D0082808D00C286BD12E
:102A400038E0DFF8E8A06AE0DFF8E4A067E03648A5
:102A5000001F006800F03F043348001F006800F4C6
:102A6000800078B132483049091F0968C1F38811E4
:102A7000A0FB01700146224600233846FDF712FCF8
:102A800005460DE029482849091F0968C1F3881146
:102A9000A0FB0171224600233846FDF703FC0546E2
:102AA0002148001F0068C0F30140401C4600B5FBF0
:102AB000F6FA34E01C48001F006800F03F041A4892
:102AC000001F006800F4800078B119481649091FFA
:102AD0000968C1F38811A0FB01700146224600235A
:102AE0003846FDF7DFFB05460EE010480E49091F8A
:102AF0000968C1F38811A0FB01700146224600233A
:102B00003846FDF7CFFB05460748001F0068C0F3B5
:102B10000279B5FBF9FA02E0DFF810A000BF00BFB0
:102B20005046BDE8F0870000083802400024F40059
:102B3000001BB700F8B504460CB90120F8BD207899
:102B400000F0010000286FD0FE48006800F00C0083
:102B500004281BD0FB48006800F00C00082807D1AF
:102B6000F848001F006800F48000B0F5800F0DD019
:102B7000F448006800F00C000C2813D1F148001F45
:102B8000006800F48000B0F5800F0BD1ED480838E4
:102B90000068C0F34040002859D06068002856D132
:102BA0000120CBE700BF6068B0F5803F08D1E54861
:102BB0000838006840F48030E249083908601EE0B7
:102BC0006068B0F5A02F0DD1DE480838006840F4E9
:102BD0008020DC49083908600846006840F48030ED
:102BE00008600CE0D7480838006820F48030D549E8
:102BF000083908600846006820F48020086000BF9B
:102C0000606890B1FEF762FB054606E0FEF75EFBEA
:102C1000401B642801D9032090E7CA48083800689F
:102C2000C0F340400028F1D011E0FEF74FFB05460D
:102C300006E0FEF74BFB401B642801D903207DE72B
:102C4000C04808380068C0F340400028F1D120781F
:102C500000F0020002286BD1BA48006800F00C00B6
:102C6000B8B1B848006800F00C00082805D1B54894
:102C7000001F006800F4800058B1B248006800F0FE
:102C80000C000C281CD1AF48001F006800F4800025
:102C9000B0B9AC4808380068C0F3400020B1E06823
:102CA000012801D0012049E7A6480838006820F033
:102CB000F800216940EAC100A2490839086037E0FC
:102CC000E06800B30120A0490860FEF7FFFA05465E
:102CD00006E0FEF7FBFA401B022801D903202DE78E
:102CE000984808380068C0F340000028F1D09548A3
:102CF0000838006820F0F800216940EAC1009149D5
:102D00000839086014E000208F490860FEF7DEFAF9
:102D1000054606E0FEF7DAFA401B022801D9032037
:102D20000CE7884808380068C0F340000028F1D15B
:102D3000207800F0080008282CD16069A8B1012093
:102D400082490860FEF7C2FA054606E0FEF7BEFAC1
:102D5000401B022801D90320F0E67A486C30006855
:102D6000C0F340000028F1D014E00020774908604B
:102D7000FEF7ACFA054606E0FEF7A8FA401B02286B
:102D800001D90320DAE66F486C300068C0F34000D8
:102D90000028F1D1207800F00400042870D1002729
:102DA00068483830006800F0805090B900BF0020BB
:102DB000009064483830006840F0805061493831F4
:102DC00008600846006800F08050009000BF00BF17
:102DD00001275F48006800F48070B0B95C48006863
:102DE00040F480705A490860FEF770FA054606E024
:102DF000FEF76CFA401B022801D903209EE65448D6
:102E0000006800F480700028F2D000BFA06801289C
:102E100008D14C486830006840F0010049496831E9
:102E200008601DE0A06805280DD14648683000689C
:102E300040F004004349683108600846006840F0EB
:102E4000010008600CE03F486830006820F0010095
:102E50003C49683108600846006820F004000860BA
:102E600000BFA068A8B1FEF731FA054609E0FEF7F9
:102E70002DFA401B41F28831884202D903205DE6D9
:102E800026E0304868300068C0F340000028EED0EB
:102E900013E0FEF71BFA054608E0FEF717FA401BA1
:102EA00041F28831884201D9032047E6254868303D
:102EB0000068C0F340000028EFD1012F07D121485E
:102EC0003830006820F080501E493831086000BF5B
:102ED000A069002851D01B48006800F00C000828A9
:102EE00061D0A069022849D1002017490866FEF781
:102EF000EDF9054606E0FEF7E9F9401B022801D985
:102F000003201BE60F4808380068C0F34060002823
:102F1000F1D1D4E907010843616A40EA8111012235
:102F2000A06AC2EB500041EA00412C20005D41EA5A
:102F300000613020005D41EA00700249091F08600D
:102F4000012007E00838024000004742800E474257
:102F5000007000402F490866FEF7B8F9054606E004
:102F6000FEF7B4F9401B022801D90320E6E52A4800
:102F70000068C0F340600028F2D048E000202549F6
:102F80000866FEF7A3F9054606E0FEF79FF9401B29
:102F9000022801D90320D1E51F480068C0F3406032
:102FA0000028F2D133E0A069012800D1C6E51A4813
:102FB000001D0668A069012827D006F48001E06999
:102FC000814222D106F03F01206A81421DD147F69D
:102FD000C0703040616AB0EB811F16D106F44031F9
:102FE0000122A06AC2EB5000B1EB004F0DD106F0F8
:102FF00070612C20005DB1EB006F06D106F0E0415E
:103000003020005DB1EB007F01D0012096E500206B
:1030100094E50000000047420038024070B50446C5
:103020002546681EB0F1807F01D301200FE0681EA5
:103030004FF0E02148610F214FF0FF3003F0DEFB3D
:1030400000204FF0E021886107200861002070BD5A
:10305000704770477047000030B502460B4600BF0E
:1030600092F83C00012801D1022030BD012082F8F5
:103070003C0000BF022082F83D00106844681068E0
:10308000816824F070041868044310684460184D87
:103090001068A8421BD01068B0F1804F17D0154DB2
:1030A0001068A84213D0144D1068A8420FD0134DD9
:1030B0001068A8420BD0124D1068A84207D0114DDD
:1030C0001068A84203D0104D1068A84205D121F025
:1030D00080015868014310688160012082F83D003A
:1030E00000BF002082F83C0000BF00BFBDE7000029
:1030F000000001400004004000080040000C0040B7
:1031000000040140004001400018004010B5044692
:103110000CB9012010BD94F83D0060B9002084F87E
:103120003C00204600F0C4FEA06C08B91448A0641E
:103130002046A16C8847022084F83D00211D2068AC
:1031400000F02EFE012084F8460000BF84F83E0007
:1031500001213F200155402001554120015500BF6C
:1031600000BF012084F8420043200155442001554E
:103170004520015500BF012084F83D000020C9E72B
:103180008531000838B504460E492068884217D1B9
:1031900000BF002000900C48006840F001000A4980
:1031A00008600846006800F00100009000BF00BF02
:1031B000002211461920FEF717F91920FEF700F931
:1031C00038BD00000000014044380240014691F83B
:1031D0003D00012801D001207047022081F83D0008
:1031E0000868C06840F001000B68D8601A4B086896
:1031F00098421BD00868B0F1804F17D0174B086871
:10320000984213D0164B086898420FD0154B0868A7
:1032100098420BD0144B0868984207D0134B0868AB
:10322000984203D0124B086898420CD10868806815
:1032300000F00702062A0CD00868006840F0010080
:103240000B68186005E00868006840F001000B6832
:1032500018600020C0E700000000014000040040AA
:1032600000080040000C0040000401400040014004
:10327000001800402DE9F04104460D46002700BF2C
:1032800094F83C00012802D10220BDE8F081012021
:1032900084F83C0000BF022084F83D002068866866
:1032A00026F0770626F47F46206886602868502836
:1032B00033D00CDC202850D004DC00284BD0102860
:1032C00051D149E0302849D040284CD139E060281C
:1032D0002DD0702807D0B0F5805F03D0B0F5005F27
:1032E00041D10DE041E0D5E902136A68206800F0A1
:1032F000CBFD2068866846F077062068866034E05B
:10330000D5E902136A68206800F0BEFD2068806875
:1033100040F480402168886027E0EA686968206896
:1033200000F0FEFD5021206800F0B9FD1DE0EA68C4
:103330006968206800F007FE6021206800F0AFFD9A
:1033400013E0EA686968206800F0EAFD402120681F
:1033500000F0A5FD09E000BF00BF00BF296820689C
:1033600000F09DFD01E0012700BF00BF012084F8AF
:103370003D0000BF002084F83C0000BF384684E7D1
:1033800070477047704770B504462068C56820686C
:10339000066906F0020002281CD105F0020002288E
:1033A00018D1401F216808610120207720688069BA
:1033B00000F0030020B12046D4F89010884707E0C1
:1033C0002046D4F8981088472046D4F89C108847A7
:1033D0000020207706F0040004281CD105F004002A
:1033E000042818D1C0432168086102202077206892
:1033F000806900F4407020B12046D4F890108847CE
:1034000007E02046D4F8981088472046D4F89C104E
:1034100088470020207706F0080008281CD105F016
:103420000800082818D1C0432168086104202077CB
:103430002068C06900F0030020B12046D4F8901045
:10344000884707E02046D4F8981088472046D4F8EB
:103450009C1088470020207706F0100010281CD10F
:1034600005F01000102818D1C04321680861082019
:1034700020772068C06900F4407020B12046D4F85D
:103480009010884707E02046D4F8981088472046D7
:10349000D4F89C1088470020207706F0010050B136
:1034A00005F0010038B16FF0010021680861204685
:1034B000D4F88010884706F0800080280AD105F0F3
:1034C0008000802806D1C043216808612046D4F8D6
:1034D000B010884706F0400040280AD105F04000AF
:1034E000402806D1C043216808612046D4F88810DE
:1034F000884706F0200020280AD105F02000202867
:1035000006D1C043216808612046D4F8A810884736
:1035100070BD704770477047034A0168914202D1FD
:103520000121024A11707047000001400000002094
:1035300070477047704700BFFEE7000070B588B065
:1035400006460C46154610A000680190E0B28DF8C2
:10355000040020128DF805008DF806500420069016
:1035600000200490059040F2FF6002903046FDF785
:1035700042FA012805D96B4601AA02A93046FDF797
:1035800038F808B070BD0000000000CC0CB5034650
:103590009878D97840EA0120ADF800001879597977
:1035A00040EA0120ADF802009879D97940EA01207B
:1035B000ADF80400BDF800001021DFED110A9FED09
:1035C000110A03F079F9104880ED060ABDF80200EF
:1035D0001021DFED0B0A9FED0B0A03F06DF90A488D
:1035E00080ED070ABDF804001021DFED050A9FED0C
:1035F000050A03F061F9044880ED080A0CBD0000DB
:1036000033336B4233336BC2801E002010B5044647
:103610002078012806D0022808D003280AD00428E0
:1036200010D10BE02046FFF7B1FF0BE0204600F081
:1036300049F807E0204600F007F803E0204600F0D4
:1036400081F800BF00BF10BD0EB503469878D97849
:1036500040EA012000901879597940EA0120019050
:103660009879D97940EA012002901021DFED100A03
:103670009FED100A009803F01FF90F4880ED000A33
:103680001021DFED0E0A9FED0E0A019803F014F9E8
:10369000094880ED020A1021DFED080A9FED080AB3
:1036A000029803F009F9044880ED010A0EBD0000FC
:1036B0000000B4420000B4C2801E00200000344369
:1036C000000034C30CB503469878D97840EA01204D
:1036D000ADF800001879597940EA0120ADF80200F0
:1036E0009879D97940EA0120ADF80400BDF80000CE
:1036F0001021DFED110A9FED110A03F0DDF81048EB
:1037000080ED030ABDF802001021DFED0B0A9FEDEA
:103710000B0A03F0D1F80A4880ED040ABDF8040052
:103720001021DFED050A9FED050A03F0C5F80448F6
:1037300080ED050A0CBD00001F850B421F850BC2E2
:10374000801E0020F0B5034658788001997801F07A
:10375000F80140EAA10498788007800CD97840EA03
:103760000110197940EA111518790007800C597970
:1037700040EA8100997940EA9116D879997901F067
:103780003F0140EA01270E21F7EE000ABFEE000AD2
:10379000204603F091F8124880ED090A0E21F7EE59
:1037A000000ABFEE000A284603F086F80C4880EDB8
:1037B0000A0A0E21F7EE000ABFEE000A304603F0B7
:1037C0007BF8074880ED0B0A0E21F7EE000ABFEEEA
:1037D000000A384603F070F8014880ED0C0AF0BD8D
:1037E000801E002030B50B46002100BF16E00A24E1
:1037F000B4EB107F05D9302404EB107403F81140AA
:1038000005E0412404EB10740A3C03F81140000168
:1038100000254C00641C1D554C1CE1B29142E6DBB6
:1038200030BD000010B510481049086006204860FF
:1038300000210E4881604FF08071C16089110161E3
:10384000002141610176417601218176C176002116
:1038500001774177FDF712FA08B1FCF798FE0221D3
:103860000248FCF7B1FE10BD0064004024010020B6
:1038700010B51048104908600620486000210E4825
:103880008160C1604FF480210161002141610176B6
:10389000417601218176C176002101774177FDF7DC
:1038A000EDF908B1FCF773FE02210348FCF78CFE2A
:1038B00010BD0000006800408801002000B587B0FE
:1038C000142102A8FCF765FD00BF002001902648E6
:1038D000006840F00400244908600846006800F0D1
:1038E0000400019000BF00BF00BF00200190084607
:1038F000006840F0800008600846006800F0800022
:10390000019000BF00BF00BF002001900846006882
:1039100040F0020008600846006800F002000190D4
:1039200000BF00BF00BF002001900846006840F0C3
:10393000010008600846006800F00100019000BF27
:1039400000BF4FF4804002900120039000200490BB
:10395000059002A90548FDF7C1FB01229103034828
:10396000FDF7AEFC07B000BD303802400008024051
:1039700000B587B000200390049005900690019058
:103980000290164816490860B32048600021144888
:1039900081604FF47A71C1600021016141618161F0
:1039A000FFF7B4FB08B1FCF7F2FD4FF48050039031
:1039B00003A90B48FFF75EFC08B1FCF7E8FD002007
:1039C0000190029001A90648FFF746FB08B1FCF7F9
:1039D000DEFD0348FFF7FAFB07B000BD0000014021
:1039E000EC01002010B500220D490E4801F02CF921
:1039F00008B1FCF7CCFD0C490A4801F05FFC08B1A6
:103A0000FCF7C5FD0949074800F032FD08B1FCF795
:103A1000BEFD044801F054FD08B1FCF7B8FD10BD2F
:103A200010000020A0020020A40000207000002050
:103A300000BFFEE700BFFEE710B50248FDF73EFFFE
:103A400010BD00007C1700202DE9F04704460D460C
:103A500026683746D6F8408007F5306000EB451001
:103A6000D0F80890104880450BD909F40040B0F513
:103A7000004F06D14FF4004107F5306000EB4510D0
:103A800081602046FEF70CFC0748804508D9A079E4
:103A9000012805D104F29C420121206802F0BAF904
:103AA0000020BDE8F08700000A30544F2DE9F047B0
:103AB00005460C46D5F800904E46D9F840A006F5CC
:103AC000306000EB4410D0F80880A879012855D167
:103AD00008F0080008280FD1434882450BD908F4A4
:103AE0000040B0F5004F7BD14FF4004106F5306047
:103AF00000EB4410816073E008F02000202806D11C
:103B0000202106F5306000EB4410816068E008F089
:103B10002800002864D1344882450CD908F40040BC
:103B2000B0F5004F07D14FF4004106F5306000EBCF
:103B30004410816054E004EBC40105F5157000EBFE
:103B4000810706F5306000EB4410396A0069C0F364
:103B50001200081A786164B9386930B905F29C42DC
:103B60000121286802F056F903E07969F8680844F1
:103B7000F860E1B22846FDF718FD31E01B488245A8
:103B80001BD108F40040B0F5004F07D14FF40041BD
:103B900006F5306000EB4410816021E008F0200061
:103BA000202805D1202106F5306000EB441081600B
:103BB000E1B22846FDF7F9FC12E06CB904EBC40150
:103BC00005F5157000EB8100006928B905F29C42EB
:103BD0000021286802F01EF9E1B22846FDF7E5FC55
:103BE0000020BDE8F08700000A30544F0A31544FDE
:103BF0002DE9F84F07460E46D7F80090C84606EB69
:103C0000C60107F1140000EB8104D4E904108842D6
:103C100002D90120BDE8F88FD4E90401451AA06853
:103C2000A84200D2A568E81C4FEA900A17E0D4E940
:103C30000401451AA068A84200D2A568E81C4FEA12
:103C4000900AB879ABB2F2B200904846E16802F04F
:103C5000A9FDE0682844E06060692844606108F5D7
:103C6000106000EB4610806980B2504506D3D4E95D
:103C70000410884202D220690028D8D1D4E9040176
:103C800088420ED806F00F01012000FA01FB40F631
:103C9000340050F8080020EA0B0040F6340141F8E7
:103CA00008000020B6E77047704730B501460A4665
:103CB0001378521C147843EA042030BD10B5FDF788
:103CC0000BFB10BD00B593B0342106A8FCF761FBD7
:103CD000142101A8FCF75DFB00BF002000902548DF
:103CE000006840F08050234908600846006800F0F2
:103CF0008050009000BF00BF00BF002000901E4811
:103D0000006840F440401C4908600846006800F420
:103D10004040009000BF00BF0120069000040790C3
:103D200002200C9041050D910C210E914FF4A871C9
:103D30000F9102211091072111910221129106A8E1
:103D4000FEF7F8FE08B1FCF722FC0F2001900220DC
:103D50000290002003904FF4A05004904FF4805044
:103D60000590052101A8FEF791FD08B1FCF70FFCB5
:103D700013B000BD403802400070004003480068A6
:103D800040F47000014908607047000088ED00E0D1
:103D900010B50248FFF7F7FA10BD0000EC01002053
:103DA00010B502682D4B98420ED0B0F1804F0BD069
:103DB0002B4B984208D02B4B984205D02A4B984267
:103DC00002D02A4B984203D122F070024B681A436A
:103DD000224B984220D0B0F1804F1DD0204B98420A
:103DE0001AD0204B984217D01F4B984214D01F4B2B
:103DF000984211D01E4B98420ED01E4B98420BD0C9
:103E00001D4B984208D01D4B984205D01C4B984240
:103E100002D01C4B984203D122F44072CB681A4363
:103E200022F080034C6943EA040202608B68C3629B
:103E30000B688362094B984202D00C4B984201D127
:103E40000B69036301234361036903F001031BB1A1
:103E5000036923F00103036110BD0000000001406D
:103E60000004004000080040000C00400004014035
:103E7000004001400044014000480140001800405B
:103E8000001C00400020004030B50C46816821F441
:103E90007F4142EA032525432943816030BD0A461C
:103EA000816821F0700142F0070319438160704777
:103EB0000E4940F8801F0E4941600E4981600E494D
:103EC000C1600E4901610E4941610E4981610E498F
:103ED000C1610E4901620E4941620E4981620E497B
:103EE000C1620E490163803870470000193500082F
:103EF00031350008333500083535000883330008B4
:103F000085330008133500081535000817350008FB
:103F10008133000853300008553000085130000844
:103F200030B50B461446026A056A25F001050562A4
:103F3000816921F0F00141EA041122F00A021A43DA
:103F40008161026230BD30B50B461446026A056AD3
:103F500025F010050562816921F4704141EA0431C0
:103F600022F0A00242EA03128161026230BD2DE913
:103F7000F04104460D46D4F8C87204F53070D4F808
:103F8000D41250F8210010B90320BDE8F08104F5E7
:103F90003070D4F8D41250F8216005F00F0000EB17
:103FA000800104F1140000EB8100406838B305F093
:103FB0000F0000EB800104F1140000EB8100416868
:103FC00005F00F0000EBC00207F1140000EB8200C7
:103FD0008068B1FBF0F200FB121080B9002105F0FF
:103FE0000F0000EB800204F1140000EB820041603E
:103FF00000231A462946204601F02DF917E000203B
:10400000C6F8140204F53170D4F8D41250F8210027
:10401000006960B1D6F8080204F53171D4F8D422F1
:1040200051F822102A460B6906F5047198470020C2
:10403000ABE770B504460E4604F53070D4F8D412E0
:1040400050F82150D4F8D41250F8210008B90320B8
:1040500070BD3146204600F055FFC5F80C02D5F87A
:10406000040204F53171D4F8D43251F82310CA682F
:1040700005F5037190470020EAE7000070B504469B
:104080000D4630480178204600F00EFE00212D48F4
:10409000007800F00F0000EB800204F1140000EB48
:1040A0008200018228480178204600F0FDFD0021B1
:1040B0002548007800F00F0000EB800204F5AA709C
:1040C00000EB8200018221480178204600F0ECFDDF
:1040D00000211E48007800F00F0000EB800204F180
:1040E000140000EB820001821848007800F00F00F5
:1040F00000EB800204F1140000EB8200418204F521
:104100003070D4F8D41250F82100C8B104F53171E0
:10411000D4F8D42251F822104868804704F5307151
:10412000D4F8D42251F8220001F0BEFB002104F59E
:104130003070D4F8D42240F822100020C4F8BC0219
:10414000002070BD1F01002020010020210100205F
:1041500070B5044604F53070D4F8D41250F82150EC
:104160000DB9032070BD04F53170D4F8D41250F8A5
:10417000210098B195F80002FF280FD095F8012290
:1041800095F8000204F53171D4F8D46251F8261084
:104190008B6829469847FF2085F800020020E1E758
:1041A00001460A200880014870470000980000205E
:1041B0002DE9F041044682210D4800F091FC0546AE
:1041C00001210B4800F08CFC06468121084800F0D4
:1041D00087FC07460DB11020A8710EB14020B080B9
:1041E0000FB14020B880432020800148BDE8F08115
:1041F000DC0000202DE9F041044682210E4800F049
:104200006FFC054601210C4800F06AFC064681213E
:10421000094800F065FC07460DB11020A87116B1E1
:104220004FF40070B08017B14FF40070B880432095
:1042300020800148BDE8F081DC0000202DE9F0413C
:10424000044682210D4800F04BFC054601210B4835
:1042500000F046FC06468121084800F041FC074674
:104260000DB11020A8710EB14020B0800FB14020D8
:10427000B880432020800148BDE8F081DC000020A8
:1042800070B504460E464FF4077001F00FFB05466B
:1042900045B9002104F53070D4F8D42240F822103A
:1042A000022070BD4FF407712846FCF772F804F540
:1042B0003070D4F8D41240F82150D4F8D41250F809
:1042C0002100C4F8BC02207C98BB4FF4007302228A
:1042D00050480178204600F0B7FE01214D48007893
:1042E00000F00F0000EB800204F1140000EB8200EC
:1042F00001824B02022248480178204600F0A4FEC9
:1043000001214548007800F00F0000EB800204F521
:10431000AA7000EB8200018210214048007800F072
:104320000F0000EB800204F1140000EB82004182D8
:1043300032E0FFE74023022236480178204600F0B1
:1043400083FE01213348007800F00F0000EB80026B
:1043500004F1140000EB82000182402302222E4867
:104360000178204600F070FE01212B48007800F013
:104370000F0000EB800204F5AA7000EB82000182BE
:1043800010212648007800F00F0000EB800204F1B5
:10439000140000EB82004182082303221F480178A9
:1043A000204600F051FE01211C48007800F00F006B
:1043B00000EB800204F1140000EB82000182002077
:1043C000C5F8040204F53171D4F8D42251F8221052
:1043D000086880470020C5F81402C5F81802D5F80F
:1043E000040208B902205CE7207C48B94FF400734E
:1043F000094801782046D5F8042200F03DFE07E088
:104400004023054801782046D5F8042200F034FE08
:10441000002046E71F01002020010020210100208C
:1044200070B5044604F53070D4F8D41250F8215019
:10443000D4F8D41250F8210008B9032070BD207CB4
:1044400048B94FF40073094801782046D5F8042292
:1044500000F012FE07E04023044801782046D5F81A
:10446000042200F009FE0020E8E7000020010020FF
:10447000024609B90320704702F53170D2F8D432F0
:1044800040F823100020F6E710B5024602F5307020
:10449000D2F8D44250F824300BB9032010BDC3F831
:1044A00004120020FAE730B503460C4603F53070DD
:1044B000D3F8D45250F8251009B9032030BDC1F803
:1044C0000842C1F810220020F8E72DE9FC4105461A
:1044D0000C4605F53070D5F8D41250F82160002054
:1044E00001900090804616B90320BDE8FC81207839
:1044F00000F0600000283DD020287CD1E08868B31F
:10450000207800F08000B8B1E288607805F531715C
:10451000D5F8D4C251F82C108B6831469847E08802
:10452000072801D9072000E0E08807463A463146CF
:10453000284600F0E2F81CE0607886F80002E08887
:10454000402801D2E08800E0402086F8010296F879
:1045500001223146284600F0AFF80AE0607805F500
:104560003171D5F8D42251F8221000228B682146EF
:10457000984747E0607830B1012832D00A2813D03C
:104580000B282FD121E095F89C02032805D10222A7
:104590006946284600F0B1F805E02146284600F0BB
:1045A0007FF84FF0030824E095F89C02032805D11A
:1045B000012201A9284600F0A0F805E0214628467E
:1045C00000F06EF84FF0030813E095F89C02032802
:1045D00005D02146284600F063F84FF0030808E0B4
:1045E00009E006E02146284600F05AF84FF003089B
:1045F00000BF00BF06E02146284600F051F84FF00A
:10460000030800BF00BF40466FE770B504460D4683
:104610000026D4F8B802294642682046904700B1E7
:104620000326304670BD70B504460D4694F89C02D2
:10463000012804D0022803D003280CD101E000BFD8
:1046400000BF6888012805D10020C4F8A4022046D4
:1046500000F064F804E02946204600F021F800BF8D
:1046600000BF70BD02460020704702460020704720
:1046700070B506460C4615462B46224600213046AC
:1046800000F0FAFC002070BD70B506460C461546D9
:104690002B4622460021304600F0DDFD002070BD93
:1046A00070B504460D468021204600F0A4FD00218F
:1046B000204600F0A0FD70BD70B504460E461546BC
:1046C0000320C4F894024FF4AC700551001D05514D
:1046D0002B4632460021204600F0CEFC002070BD63
:1046E00010B504460520C4F8940200231A46194662
:1046F000204600F0C1FC002010BD70B504460E46F7
:1047000015460220C4F89402A561E5612B463246A5
:104710000021204600F09FFD002070BD10B504462A
:104720000420C4F8940200231A461946204600F0DB
:1047300092FD002010BD000070B505460C462DB955
:104740002246064906A000F035FA04E02246034955
:1047500003A000F02FFA014870BD00007C05002086
:1047600043444320436F6E6669670000024612208F
:1047700008800148704700003000002070B50546F1
:104780000C462DB92246064906A000F013FA04E0B3
:104790002246034903A000F00DFA014870BD000055
:1047A0007C05002043444320496E74657266616352
:1047B00065000000024604200880014870470000A0
:1047C0005000002070B505460C462246024903A061
:1047D00000F0F0F9004870BD7C05002053544D698D
:1047E00063726F656C656374726F6E6963730000EA
:1047F00070B505460C462DB92246064906A000F0C4
:10480000D9F904E02246034903A000F0D3F9014896
:1048100070BD00007C05002053544D333220566992
:10482000727475616C20436F6D506F72740000007C
:1048300070B505460C461A202080FBF7ABFE0148F8
:1048400070BD00005400002002460C200880014882
:10485000704700004400002070B504460D46E8880B
:10486000012804D029462046FFF71AFF1EE094F8DD
:104870009C02012804D0022803D0032810D109E0AB
:1048800000BF0020A060012204F108012046FFF7CC
:1048900034FF0AE00122211D2046FFF72EFF04E02D
:1048A00029462046FFF7FCFE00BF00BF70BDF8B5EB
:1048B00004460E4600200090002700257088001254
:1048C000062874D006DC01281BD0022821D003283A
:1048D0006ED132E007286CD00F28F9D1D4F8B40299
:1048E000C06938B1207CD4F8B412CA6969469047CF
:1048F000074605E031462046FFF7D2FE681CC5B2E8
:10490000CBE0207CD4F8B4120A6869469047074689
:10491000C3E0207C40B9D4F8B802816A6846884771
:1049200007460220787007E0D4F8B802C16A6846EA
:104930008847074602207870AFE0B07806287AD220
:10494000DFE800F00316293F5265D4F8B40240684E
:1049500038B1207CD4F8B4124A68694690470746BB
:1049600005E031462046FFF79BFE681CC5B269E0B2
:10497000D4F8B402806838B1207CD4F8B4128A68C4
:1049800069469047074605E031462046FFF788FE16
:10499000681CC5B256E0D4F8B402C06850B1207C9F
:1049A000D4F8B412CA6869469047074608E04BE05D
:1049B0006CE059E031462046FFF772FE681CC5B234
:1049C00040E0D4F8B402006938B1207CD4F8B412C5
:1049D0000A6969469047074605E031462046FFF7D9
:1049E0005FFE681CC5B22DE0D4F8B402406938B14E
:1049F000207CD4F8B4124A6969469047074605E01E
:104A000031462046FFF74CFE681CC5B21AE0D4F8C8
:104A1000B402806940B1207CD4F8B4128A69694636
:104A20009047074606E006E031462046FFF738FE8D
:104A3000681CC5B206E031462046FFF731FE681C0F
:104A4000C5B200BF00BF28E0207C30B9D4F8B8025E
:104A5000416B68468847074605E031462046FFF728
:104A60001FFE681CC5B218E0207C40B9D4F8B8021B
:104A7000016B6846884707460720787005E0314695
:104A80002046FFF70DFE681CC5B206E03146204601
:104A9000FFF706FE681CC5B200BF00BF05B1F8BD38
:104AA000F088C0B1BDF8000080B1F088BDF80010FA
:104AB000884202DDBDF8000000E0F0880090BDF8FB
:104AC000002039462046FFF718FE07E03146204611
:104AD000FFF7E6FD02E02046FFF720FE00BFDEE71D
:104AE0002DE9F84105460F462C462E464FF00008AA
:104AF00070883178884218DD307800900FE0694680
:104B0000204600F020F804466078052807D1A0462A
:104B100098F80200B84200D106E04FF00008708813
:104B2000BDF800108842EADC00BF4046BDE8F881CD
:104B3000014600200A4602E0431CD8B2521C1378FA
:104B4000002BF9D1704710B5024610460B88047847
:104B500023440B800378981810BD70B504460D46A9
:104B600094F89C02012804D0022803D003281AD10B
:104B700001E000BF00BFE888022804D02946204693
:104B8000FFF78EFD14E00120E060D4F8A40218B114
:104B9000E06840F00200E060022204F10C012046CF
:104BA000FFF7ABFD04E029462046FFF779FD00BF83
:104BB00000BF70BD2DE9F04107460D469046002428
:104BC0000FB9BDE8F0813E463046FFF7B1FF022144
:104BD00001EB4000B0F5007F01D9080204E0304647
:104BE000FFF7A6FF4000801CA8F8000098F800001E
:104BF0002855601CC4B203202855601CC4B208E0CC
:104C000030782855761C601CC4B200202855601CE2
:104C1000C4B230780028F3D100BFD2E701460020AB
:104C200031B1012906D0022906D0032908D105E0B7
:104C3000002007E0032005E0012003E0032001E05D
:104C4000032000BF00BF70472DE9F04104460D4628
:104C5000164614B90320BDE8F0810020C4F8B8025C
:104C6000C4F8C402C4F8D0020DB1C4F8B452012093
:104C700084F89C022670204600F04EF9074638461C
:104C8000E9E72DE9F04104460D46002600272946B4
:104C9000D4F8C802FCF7F6FC06463046FFF7BEFF24
:104CA00007463846BDE8F0812DE9F04104460D463F
:104CB000002600272946D4F8C802FCF7AEFC0646B9
:104CC0003046FFF7ABFF07463846BDE8F0812DE9D7
:104CD000F04704460F469146002F56D104F11405C3
:104CE000D4F89402022846D1D5E9020188420FD9AE
:104CF000D5E90201401AA86049462046AA68FFF794
:104D0000C3FC00231A461946204600F0B5F932E0EC
:104D1000D5E90210884217D1E9686868884213D340
:104D20006868D4F8981288420ED2002211462046B4
:104D3000FFF7AAFC0020C4F8980200231A4619467F
:104D4000204600F099F916E094F89C0203280BD154
:104D5000D4F8B802C06838B10020C4F8D402D4F83E
:104D6000B802C168204688478021204600F043FAF7
:104D70002046FFF7B5FC94F8A00250B3204600F09F
:104D8000C1FA002084F8A00223E047F08001204609
:104D9000FFF768FC0646FF2E1BD0D6B994F89C029C
:104DA000032816D104F52E7050F82600406980B112
:104DB000C4F8D46204F52E7050F8260039464269D2
:104DC000204690478046B8F1000F02D04046BDE82B
:104DD000F0870020FBE72DE9F04705460F46904697
:104DE0004FF00009002F51D105F5AA76D5F89402AD
:104DF00003286FD1D6E90201884210D9D6E9020111
:104E0000401AB060D6E90201884201D2B06800E0E1
:104E1000F068024641462846FFF72AFC5AE095F81A
:104E2000AA0200F01F0020B1012804D0022812D1EC
:104E300009E0002411E040F2AE20415D2846FFF772
:104E400014FC044609E040F2AE20415D2846FFF71D
:104E500009FC044601E0002400BF00BF94B995F8A6
:104E60009C0203280ED105F52E7050F8240000692D
:104E700040B1C5F8D44205F52E7050F82400016900
:104E8000284688472846FFF749FC23E007F07F01C2
:104E90002846FFF7E7FB0446FF2C1BD0D4B995F852
:104EA0009C02032810D105F52E7050F8240080696B
:104EB00050B1C5F8D44205F52E7050F8240039469B
:104EC0008269284690478146B9F1000F02D04846D2
:104ED000BDE8F0870020FBE701460020704770B571
:104EE00004460025012084F89C02D4F8B80238B1A9
:104EF0002179D4F8B80242682046904700B10325D2
:104F0000284670BD70B504460D462946D4F8C8023F
:104F1000FCF7F6FB70BD000010B5044620780028B1
:104F20002AD11648C0F8E044C4F8C8024FF0A040A7
:104F3000124908600620087102211048C171002141
:104F400081710221417200218172C17201738173EA
:104F5000C173FDF74CF808B1FBF719FB8021074836
:104F6000FCF7E0FA402200210448FCF7E0FA802236
:104F700001210248FCF7DBFA002010BD7C1700205D
:104F800010B50246D2F8C83201F08000802809D15D
:104F900001F07F0000EBC00403F1140000EB84007B
:104FA000807810BD01F07F0000EBC00403F51570A0
:104FB00000EB84008078F4E770B504460D4604F5F4
:104FC0002E70D4F8D41250F8210008B9032070BD17
:104FD00094F89C02032811D104F52E70D4F8D41251
:104FE00050F82100006A48B104F52E70D4F8D412AC
:104FF00050F821002946026A204690470020E6E743
:1050000070B504460D4604F52E70D4F8D41250F84D
:10501000210008B9032070BD94F89C02032811D127
:1050200004F52E70D4F8D41250F82100406A48B12B
:1050300004F52E70D4F8D41250F821002946426AA3
:10504000204690470020E6E72DE9F04704460F464A
:1050500015461E464FF00008C1462B4632463946DB
:10506000D4F8C802FCF757FB80464046FFF7D6FD50
:1050700081464846BDE8F0872DE9F04704460D46D5
:1050800016461F464FF00008C1463B4632462946A9
:10509000D4F8C802FCF786FB80464046FFF7BEFD09
:1050A00081464846BDE8F08770B5044600250120DA
:1050B00084F89C020020C4F894026060C4F8A40242
:1050C00084F8A002D4F8B80258B1D4F8B802406805
:1050D00038B12179D4F8B80242682046904700B12F
:1050E00003254023002211462046FFF7ADFF012192
:1050F0004FF4B27001534021001F015140230022A0
:1051000080212046FFF7A0FF0121A18440212162D8
:10511000284670BD014691F89C02042803D191F8FD
:105120009D0281F89C020020704710B5044694F857
:105130009C0203280BD1D4F8B80240B1D4F8B802CD
:10514000C06920B1D4F8B802C16920468847002060
:1051500010BD02461174002070472DE9F04104464D
:105160000D46002600272946D4F8C802FDF77EF830
:1051700006463046FFF752FD07463846BDE8F08147
:1051800070B504460D46294604F2AA2000F07BF8CB
:105190000120C4F894024FF42C70005BC4F898020C
:1051A00094F8AA0200F01F0020B1012809D00228BB
:1051B00015D10DE004F2AA21204600F087F9064639
:1051C00016E004F2AA21204600F017FB06460FE085
:1051D00004F2AA21204600F0D0F9064608E094F82F
:1051E000AA0200F08001204600F005F8064600BF44
:1051F00000BF304670BD2DE9F04104460D46002643
:1052000000272946D4F8C802FCF7EFFA06463046D4
:10521000FFF704FD07463846BDE8F08170B5044647
:1052200000250026D4F8C802FDF743F805462846B5
:10523000FFF7F4FC0646304670BD014691F89C022B
:10524000042803D091F89C0281F89D02042081F883
:105250009C02002070472DE9F04704460D46164693
:105260001F464FF00008C1463B4632462946D4F857
:10527000C802FCF7FFFA80464046FFF7CFFC8146A4
:105280004846BDE8F08770B505460E46344620789E
:105290002870641C20786870641C2046FEF705FDA9
:1052A0006880641C641C2046FEF7FFFCA880641C18
:1052B000641C2046FEF7F9FCE88070BD38B5044652
:1052C0000D46002000900DB9032038BDC4F8B85237
:1052D00004F52E70D4F8D41250F82100C06A50B1F1
:1052E00004F52E70D4F8D42250F82200C16A684622
:1052F0008847C4F8D002D4F8D802401CC4F8D802B9
:105300000020E2E701460020704770B504460D46D4
:10531000A88810BBE88800BB688880281DD2A878C0
:1053200000F07F0694F89C02032804D12946204609
:10533000FFF7B6F915E084F89E6231462046FFF784
:105340000CFF2046FFF7EAF91EB1022084F89C0208
:1053500007E0012084F89C0203E029462046FFF77D
:105360009FF970BD70B504460D460026D4F8B8020A
:1053700030B1D4F8B8022946026820469047064664
:10538000304670BD70B504460E460025B0783D49E4
:10539000087008460078012805D931462046FFF7F5
:1053A0007FF9032070BD94F89C02022802D00328E4
:1053B00059D11FE033480078C0B1324800786060AE
:1053C000304801782046FFF7CDFF05463DB1314614
:1053D0002046FFF765F9022084F89C0209E0204688
:1053E000FFF79CF9032084F89C0202E02046FFF7B7
:1053F00095F943E02348007870B9022084F89C02B4
:105400002048007860601F4801782046FFF7FDF8CB
:105410002046FFF783F925E01A4909786068884239
:105420001DD021792046FFF7F0F81648007860601B
:10543000144801782046FFF795FF05465DB13146D7
:105440002046FFF72DF921792046FFF7DEF80220EC
:1054500084F89C0206E02046FFF760F902E020464F
:10546000FFF75CF90AE031462046FFF719F90548D5
:1054700001782046FFF7C9F8032500BF00BF284682
:1054800090E700009400002070B505460C46608847
:10549000012805D1C5F8A4022846FFF73FF90EE020
:1054A0006088022807D1A088001285F8A00228464B
:1054B000FFF734F903E021462846FFF7F1F870BD05
:1054C00010B504462046FFF7A9FE10BD70B504468E
:1054D0000D460026287800F0600088B1202802D010
:1054E000402842D100E000BF04F52E70D4F8D41259
:1054F00050F821002946826820469047064639E048
:1055000068780A282AD2DFE800F01A24291F290A1D
:105510000529150F29462046FFF7C9F923E029463A
:105520002046FFF7F2FE1EE029462046FFF72AFF3D
:10553000064618E029462046FFF78EF913E0294673
:105540002046FFF70AFB0EE029462046FFF79CFFA6
:1055500009E029462046FFF766F804E02946204680
:10556000FFF79EF800BF00BF04E029462046FFF782
:1055700097F800BF00BF304670BD2DE9F0470546E3
:105580000F464FF000093C79387800F06000F8B120
:10559000202802D040287DD100E000BF21462846C7
:1055A000FFF760F80646FF2E11D086B9C5F8D46221
:1055B00005F52E7050F82600806840B105F52E7074
:1055C00050F826003946826828469047814610E107
:1055D000787800287AD001282FD003286ED195F84A
:1055E0009C02022802D0032820D110E054B1802C64
:1055F00008D021462846FFF7FEFD80212846FFF708
:10560000FAFD03E039462846FFF74AF813E07888A8
:1056100040B93CB1802C05D0F88818B921462846FD
:10562000FFF7E9FD2846FFF779F804E039462846F8
:10563000FFF736F800BF00BFD4E095F89C020228BF
:1056400002D003283BD110E054B1802C08D0214671
:105650002846FFF7D0FD80212846FFF7CCFD03E068
:1056600039462846FFF71CF82EE0788820BB04F066
:105670007F0018B121462846FFF703FB2846FFF7B5
:105680004DF821462846FEF7EDFF0646FF2E13D0C3
:1056900096B900E0A8E0C5F8D46205F52E7050F880
:1056A0002600806840B105F52E7050F82600394676
:1056B000826828469047814606E007E08DE039463B
:1056C0002846FEF7EDFF00BF00BF8BE095F89C0277
:1056D000022802D0032879D126E034B1802C04D0EE
:1056E00039462846FEF7DCFF75E004F0800080288C
:1056F00008D104F07F0000EB800105F1140000EBFD
:10570000810007E004F07F0000EB800105F5AA703E
:1057100000EB810080460020C8F8000002224146CC
:105720002846FEF7EAFF56E004F0800080280ED1FC
:1057300004F00F0000EB800105F1140000EB810084
:10574000008A98B939462846FEF7AAFF43E004F0DC
:105750000F0000EB800105F5AA7000EB8100008AC4
:1057600020B939462846FEF79BFF34E004F080005C
:10577000802808D104F07F0000EB800105F11400BF
:1057800000EB810007E004F07F0000EB800105F5ED
:10579000AA7000EB810080460CB1802C03D1002060
:1057A000C8F800000CE021462846FFF7E9FB20B1CD
:1057B0000120C8F8000003E008E00020C8F800005D
:1057C000022241462846FEF798FF04E03946284663
:1057D000FEF766FF00BF00BF04E039462846FEF72B
:1057E0005FFF00BF00BF04E039462846FEF758FFC0
:1057F00000BF00BF4846BDE8F0872DE9F0410546EF
:105800000E460027307800F0600030B1202802D02A
:10581000402840D100E000BF00BF95F89C0201285D
:1058200004D0022803D003282ED101E000BF00BF1E
:105830003079012823D831792846FEF716FF04462F
:10584000FF2C14D09CB905F52E7050F82400806808
:1058500058B1C5F8D44205F52E7050F824003146F1
:10586000826828469047074602E0032700E00327A6
:10587000F08840B93FB92846FEF750FF03E03146B3
:105880002846FEF70DFF04E031462846FEF708FFE4
:1058900000BF00BF04E031462846FEF701FF00BF0D
:1058A00000BF3846BDE8F08170470000014601485E
:1058B00070470000601C002070B504460B4622466D
:1058C0001978587801282CD140F61C0080581D7892
:1058D00005F00F060125B540ADB2284340F61C0582
:1058E000A85002F5106000EB4110006800F4004081
:1058F000F0BB1889C0F30A001D7940EA854040EAF0
:10590000815040F0805040F4004002F5106505EBF6
:1059100041152D68284302F5106505EB41152860F7
:105920002DE040F61C0080581D7805F00F0601257B
:10593000B540144E06EA0545284340F61C05A8501C
:1059400002F5306000EB4110006800F4004078B9C7
:105950001889C0F30A001D7940EA854040F0805064
:1059600040F4004002F5306505EB41152D6800E07C
:1059700005E0284302F5306505EB4115286000205D
:1059800070BD00000000FFFF01460A464FF41060A2
:105990008058C30ADB024FF41060835040F60400C5
:1059A000805840F4807340F6040083500020704714
:1059B0000FB470B504469DF81900012818D1A06BEA
:1059C00020F48030A063E0681B490840E060E06894
:1059D00020F44010E0609DF82000012803D1E06829
:1059E00040F48010E060204600F028F8054613E0FF
:1059F000E06840F04000E060204600F01FF80546F7
:105A00009DF81D0020B9A06B40F48030A06303E036
:105A1000A06B20F48030A0639DF81600012807D108
:105A2000A06840F00600A060A06840F02000A060E0
:105A3000284670BC5DF814FBBFFFBDFF08B50146EA
:105A40000020009000BF0098401C00900098B0F12A
:105A5000706F01D9032008BD086900F000400028DC
:105A6000F1D000200090086940F00100086100BFFB
:105A70000098401C00900098B0F1706F01D903208D
:105A8000E9E7086900F001000028F1D100BFE2E772
:105A900070B504460B46224619785878012848D13B
:105AA00002F5106000EB4110006800F00040B0F11A
:105AB000004F17D102F5106000EB4110006840F074
:105AC000006502F5106000EB4110056002F5106002
:105AD00000EB4110006840F0804502F5106000EBDB
