:020000040800F2
:10000000F8680024B1030008C3960008D9860008E8
:10001000C1960008210A000891CD000800000000E8
:10002000000000000000000000000000599D0008D2
:10003000E50F0008000000007D990008659D00089C
:10004000CB030008CB030008CB030008CB03000858
:10005000CB030008CB030008E70F0008CB03000820
:10006000CB030008CB030008CB030008D10A00082B
:10007000DD0A0008E90A0008F50A0008010B00087B
:100080000D0B0008190B0008CB030008091000082D
:1000900015100008CB030008CB030008CB030008B1
:1000A000CB030008CB030008CB030008CB030008F8
:1000B000CB030008CB030008CB030008CB030008E8
:1000C000CB030008CB030008CB030008CB030008D8
:1000D000C99B0008D9AD0008E5AD0008F1AD0008E6
:1000E000ED0F0008CB03000800000000CB03000860
:1000F000CB030008CB030008CB030008250B000846
:10010000CB030008CB030008CB030008CB03000897
:10011000CB03000841A30008299E0008359E000873
:10012000310B00083D0B0008490B0008CB03000809
:10013000CB030008CB030008CB030008CB03000867
:1001400000000000000000000000000000000000AF
:10015000CB030008CB030008CB030008CB03000847
:10016000CB030008CB030008D1960008C596000811
:10017000CB030008DD960008CB0300080000000058
:10018000CB030008CB030008CB030008CB03000817
:10019000CB030008CB030008CB030008CB03000807
:1001A000CB030008CB030008CB03000800000000CD
:1001B000CB030008CB030008CB030008CB030008E7
:1001C000CB030008CB030008000000000000000083
:1001D0000000000000000000CB0300080000000049
:1001E000000000000000000000000000000000000F
:1001F0000000000000000000CB030008CB03000853
:10020000CB030008CB03000800000000CB0300086C
:10021000CB030008CB030008CB030008CB03000886
:10022000CB03000800000000CB0300080000000022
:10023000CB030008CB03000800000000CB0300083C
:10024000CB030008CB030008CB030008CB03000856
:10025000CB030008CB030008CB030008CB03000846
:10026000CB030008CB030008CB030008CB03000836
:10027000CB030008CB030008CB03000800000000FC
:10028000CB030008CB030008CB030008CB03000816
:1002900000000000CB030008CB03000800000000B2
:1002A00000000000CB030008CB030008CB030008CC
:1002B000CDAD0008CB030008CB03000821100008D7
:1002C000CB030008CB030008CB03000800F002F8C2
:1002D00000F05EF80AA090E8000C82448344AAF182
:1002E0000107DA4501D100F053F8AFF2090EBAE880
:1002F0000F0013F0010F18BFFB1A43F0010318475A
:10030000382F0100582F01000A444FF0000C10F85C
:10031000013B13F0070408BF10F8014B1D1108BF83
:1003200010F8015B641E05D010F8016B641E01F823
:10033000016BF9D113F0080F1EBF10F8014BAD1C73
:100340000C1B09D16D1E58BF01F801CBFAD505E091
:1003500014F8016B01F8016B6D1EF9D59142D6D3EB
:10036000704700000023002400250026103A28BF13
:1003700078C1FBD8520728BF30C148BF0B60704717
:100380001FB512F0F1FA00F053F91FBD10B510BD02
:1003900000F096F91146FFF7F3FF12F039FA00F07A
:1003A000B4F903B4FFF7F2FF03BC00F0B7F90000A3
:1003B0000948804709480047FEE7FEE7FEE7FEE7F9
:1003C000FEE7FEE7FEE7FEE7FEE7FEE70448054935
:1003D000054A064B70470000699D0008CD020008E1
:1003E000F8620024F8680024F8640024F86400240B
:1003F00053EA020C00F069802DE9F04B4FF0000643
:10040000002B1FBFB3FA83F503FA05F424FA05F6AF
:100410005E4012BF1643B2FA82F502FA05F4C5F146
:1004200020051EBF22FA05FC44EA0C04203556EADA
:10043000044C4FEA144418BF641C4FF000084FF0FE
:100440000009904271EB030C39D3002919BFB1FAAE
:1004500081F701FA07F6B0FA80F700FA07F6C7F15C
:1004600020071EBF20FA07FC46EA0C062037B6FB21
:10047000F4FCA7EB0507103F07F01F0BCBF120069C
:100480000CFA0BFB2CFA06F644BFB3460026202FCD
:10049000A4BF5E464FF0000B5BEA060C08BF4FF0AE
:1004A000010B19EB0B09ABFB027C48EB0608C01BE8
:1004B00006FB02CC0BFB03CC71EB0C01C1E70B4636
:1004C000024641464846BDE8F08B13B54FF00000A8
:1004D0004FF00001AFF30080BDE81C407047032AD5
:1004E00040F2308010F0030C00F0158011F8013B51
:1004F000BCF1020F624498BF11F801CB00F8013B38
:1005000038BF11F8013BA2F1040298BF00F801CBFB
:1005100038BF00F8013B11F0030300F02580083AD2
:10052000C0F0088051F8043B083A51F804CBA0E829
:100530000810F5E7121D5CBF51F8043B40F8043B7E
:10054000AFF30080D20724BF11F8013B11F801CBB3
:1005500048BF11F8012B24BF00F8013B00F801CB84
:1005600048BF00F8012B704710B5203AC0F00B804F
:10057000B1E81850203AA0E81850B1E81850A0E8A7
:100580001850BFF4F5AF5FEA027C24BFB1E8185001
:10059000A0E8185044BF18C918C0BDE810405FEA71
:1005A000827C24BF51F8043B40F8043B08BF7047ED
:1005B000D20728BF31F8023B48BF11F8012B28BFF2
:1005C00020F8023B48BF00F8012B704702F0FF0300
:1005D00043EA032242EA024200F049B84FF0000227
:1005E00000B5134694469646203922BFA0E80C5029
:1005F000A0E80C50B1F12001BFF4F7AF090728BF04
:10060000A0E80C5048BF0CC05DF804EB890028BF7F
:1006100040F8042B08BF704748BF20F8022B11F0A8
:10062000804F18BF00F8012B704770477047704724
:1006300070B5064C7C44064D7D4403E020682044A0
:100640008047241DAC42F9D170BD0000202C010070
:10065000242C010010B500F02BF8006810BD10B577
:10066000044600F025F8046010BD4FF00002042994
:10067000C0F0128010F0030C3FF4B2AFCCF1040CC8
:10068000BCF1020F18BF00F8012BA8BF20F8022B05
:10069000A1EB0C01FFF7A4BF5FEAC17C24BF00F807
:1006A000012B00F8012B48BF00F8012B7047000018
:1006B0000048704794620024004870479462002408
:1006C0007546FFF7F9FFAE4605006946534620F030
:1006D0000700854618B020B5FFF778FEBDE820403A
:1006E0004FF000064FF000074FF000084FF0000BEE
:1006F00021F00701AC46ACE8C009ACE8C009ACE8A1
:10070000C009ACE8C0098D46704710B50446AFF388
:1007100000802046BDE81040FFF743BE0149182085
:10072000ABBEFEE726000200704700009FED060A00
:10073000F0EE402AB0EE402AF0EE401AB0EE401A39
:10074000F0EE400A0EF0F6BE0000000000210FF0AF
:10075000DBBE0000B7EE000A80ED000A9FED040A40
:1007600080ED010A80ED020A80ED030A7047000067
:100770000000000000EE101ADFED090AB8EE400A92
:1007800080EE803AD3ED022A93ED012AD3ED001AD0
:1007900092ED021AD2ED010A92ED000A08F09ABE1B
:1007A00000007A4401220248114603F05DBA0000BD
:1007B0000008025800220248012103F055BA000047
:1007C0000008025801220248082103F04DBA000037
:1007D0000008025800220248082103F045BA000030
:1007E000000802582DE9FC417B4E0420307011F0C6
:1007F0005BFE71780843707011F0A6FE71780843B3
:10080000707000287ED17548002780F82C70009702
:10081000019700F59E7400F5947500F59C78694683
:10082000062212200DF0AEFF9DF801009DF8001089
:10083000000200B2084300EE100AD6ED070AB8EE37
:10084000C00A20EE200A85ED010A9DF803009DF8FC
:100850000210000200B2084300EE100AF8EEC00ACF
:1008600096ED070A60EE800AC5ED020A9DF80500C4
:100870009DF80410000200B2084300EE900AF8EE62
:10088000E00A20EE800A85ED030A0822694600206E
:100890000DF0E3FE9DF800000F2830D19DF8030015
:1008A0009DF80210000200B2084300EE100AD6EDD7
:1008B000080AB8EEC00A20EE200A84ED000A9DF86E
:1008C00005009DF80410000200B2084300EE100A73
:1008D000F8EEC00A96ED080A60EE800AC4ED010A3F
:1008E0009DF807009DF80610000200B2084300EED4
:1008F000900AF8EEE00A20EE800A84ED020A022255
:10090000694600E066E022200DF03CFF9DF8000003
:100910009DF80110C00040EA5110B0F5806F02DB75
:10092000A0F5006000B200EE100AB4EE001AF8EE76
:10093000C00AB3EE070A00EE810A88ED000A284AD1
:10094000A2F59A71A1F10C000CF0B8FF9FED260AF8
:1009500023489FED243A2430F0EE402AB3EE0E2ACD
:10096000DFED221AB2EE041AF6EE000A0FF0BCFD1B
:100970001A4919480C39DC30FFF7ECFE17480C38DF
:10098000A0F1180190ED000AA0F1240281ED000A07
:10099000A0F1300382ED000A83ED000A90ED010A18
:1009A00081ED010A82ED010A83ED010A90ED020A50
:1009B00081ED020A82ED020A83ED020A0C4805F07D
:1009C0004BFE08B100F01DFB0A480C2106F0DEFECC
:1009D00037707078BDE8FC81180100243C5C00246D
:1009E000645D002400000000000048430000FA435A
:1009F0003C0600249C08002401B582B04FF4FA7034
:100A00000123009001AA044802A905F0A9FF0349A7
:100A1000C8639DF804000EBD3C06002418010024A4
:100A2000FEE700000A4610B50849D1F8BC12D1F81B
:100A30001412002901D0012010BD014603480AF01C
:100A4000E9FBBDE8104001480AF07ABC0413002419
:100A500070B51C4C0020A0701B4DA07800EB8001ED
:100A600001EBC00129440A79120624D5D1F80920E6
:100A70000AB31449543151F8200001219047D0B1F4
:100A8000A078124900EB800202EBC00211F820307E
:100A9000AB5401EB800150194B7843708978817019
:100AA0005521C170017921F0800101710DF014F818
:100AB000E06A401CE062A078401CC0B2A07004282C
:100AC000CBD370BD180100240C5D0024102A01084E
:100AD000014801F063B80000F0060024014801F06D
:100AE0005DB8000068070024014801F057B8000015
:100AF000CC0E0024014801F051B80000440F00243E
:100B0000014801F04BB80000BC0F0024014801F07F
:100B100045B8000034100024014801F03FB800003F
:100B2000AC100024014801F039B800002411002461
:100B3000014801F033B800009C110024014801F085
:100B40002DB8000014120024014801F027B800005D
:100B50008C12002410B52C4A016891423AD02A4ADE
:100B60001832914236D0284A3032914232D0264A49
:100B7000483291422ED0244A603291422AD0224AF1
:100B80007832914226D0204A9032914222D01E4A99
:100B9000A83291421ED01D4A91421BD01B4A1832E6
:100BA000914217D0194A3032914213D0174A483235
:100BB00091420FD0154A603291420BD0134A7832DD
:100BC000914207D0114A9032914203D00F4AA83285
:100BD000914214D1CAB2103A1823B2FBF3F20C4C72
:100BE00002F00703E35CC365032A04D96FF309012C
:100BF000091D816506E06FF30901816502E021F0BE
:100C0000FF018165806D10BD10000240100402409C
:100C10007229010810B501680123224CCAB2A14211
:100C20001BD0204C1434A14217D01E4C2834A142B2
:100C300013D01C4C3C34A1420FD01A4C5034A1426A
:100C40000BD0184C6434A14207D0164C7834A14222
:100C500003D0144C8C34A1420FD1083A1421B2FBBA
:100C6000F1F1114A02EB810202660F4A80324266BC
:100C700001F01F018B40836610BD103A1824B2FBAF
:100C8000F4F20A4C2144A82900D80832084901EBA3
:100C90008201016606498031416602F01F018B40E6
:100CA000836610BD0854025800580258F0FBFDBF7F
:100CB000000802400279521E072A31D8194B0168F8
:100CC00099421BD0174B1433994217D0154B283338
:100CD000994213D0134B3C3399420FD0114B5033F0
:100CE00099420BD00F4B6433994207D00D4B7833A8
:100CF000994203D00B4B8C33994207D10A4901EB3F
:100D00008201C16608494031016706E0074901EBED
:100D10008201C16605494031016701219140416767
:100D20007047000008540258005902580009024058
:100D3000014610B500208B694FF0C0748A6A002B01
:100D40000ED0B3F5005F1AD062B3012A2AD0022A6E
:100D500028D0032A03D1C96AC90100D5012010BDDA
:100D60001AB1012A06D0022AF9D1C96AC901F6D5F9
:100D7000012010BDC96AA142FBD1012010BD52B1B2
:100D8000012A0AD0022A06D0032AF7D1C96AA14251
:100D9000F4D1012010BD012010BDC96AC901FBD5E5
:100DA000012010BD012010BD2DE9F04F856D8A4E48
:100DB000894FDFF824C2A836DFF81C82DFF81892CA
:100DC0000CF1180CDFF810A208F13008DFF808B2B7
:100DD00009F1480904680AF1600A0BF1780BBC427A
:100DE0006DD064456BD0444569D04C4567D05445BF
:100DF00065D05C4563D0DFF8E0E10EF1900E7445FC
:100E00005DD0B4425BD0DFF8D4E1744557D0DFF851
:100E1000CCE10EF1180E744551D0DFF8C0E10EF1AF
:100E2000300E74454BD0DFF8B4E10EF1480E744536
:100E300045D0DFF8A8E10EF1600E74453FD0DFF831
:100E40009CE10EF1780E744539D0DFF890E10EF197
:100E5000900E744533D0DFF884E10EF1A80E74458E
:100E60002DD0DFF87CE1744529D0DFF874E10EF174
:100E7000140E744523D0DFF868E10EF1280E744596
:100E80001DD0DFF85CE10EF13C0E744517D0DFF8A1
:100E900050E10EF1500E744511D0DFF844E10EF12F
:100EA000640E74450BD0DFF838E10EF1780E74450E
:100EB00005D0DFF82CE10EF18C0E744509D1D0E994
:100EC00019E4CEF80440C46E1CB1D0E91CE4CEF89D
:100ED00004400468BC422ED064452CD044452AD03E
:100EE0004C4528D0544526D05C4524D03A4F903705
:100EF000BC4220D0B4421ED0384EB4421BD0374E34
:100F00001836B44217D0354E3036B44213D0334E73
:100F10004836B4420FD0314E6036B4420BD02F4E1B
:100F20007836B44207D02D4E9036B44203D02B4EC3
:100F3000A836B4421BD190F85C4004F01F063F2451
:100F4000B440AC600468256825F4802525600468F9
:100F500063608368402B05D0036899600068C260B5
:100F6000BDE8F08F03689A600068C160F8E71C4E26
:100F7000B4421BD01A4E1436B44217D0184E28363D
:100F8000B44213D0164E3C36B4420FD0144E5036F5
:100F9000B4420BD0124E6436B44207D0104E7836AD
:100FA000B44203D00E4E8C36B442D9D190F85C4096
:100FB00004F01F060124B4406C6004686360836819
:100FC000402B04D0036899600068C260C8E70368DA
:100FD0009A600068C160C3E710000240100402403C
:100FE000085402587047012002F028BD10B54FF494
:100FF000806002F023FDBDE810404FF4805002F005
:101000001DBD72B6FEE70000014801F00BBF0000F5
:1010100078030024014801F005BF000064040024A7
:10102000014801F0FFBE00005005002430B5426BBE
:10103000036853F8844F4FF6FC718C4344EA8204F2
:101040001C60036853F8844F058F24F47F0444EA3E
:1010500005441C60836B1A44036853F8884F8C4323
:1010600044EA82041C60036853F8884F858F24F497
:10107000FE0444EA05441C60C36B02EB43020368B0
:1010800053F8A04F8C4344EA82041C60036853F871
:10109000A04FB0F8405024F4FE0444EA05441C601C
:1010A000D0E9103403FB0422036853F8B04F8C439B
:1010B00044EA82041C60036853F8B04FB0F848500B
:1010C00024F4FE0444EA05441C60D0E9123403FB16
:1010D0000422036853F8AC4F8C4344EA82041C603A
:1010E000D0E9143403FB0422036853F8F04F8C4317
:1010F00044EA82041C60036853F8F04FB0F858507B
:1011000024F47C1444EA05441C60836D02EB430321
:10111000026852F8C04F8C4344EA830111600168B1
:1011200051F8C02FB0F85C3022F47C1242EA03423E
:101130000A60016851F8C02F90F8603022F07C52AC
:1011400042EA03620A60416B224A02EB8101C166F6
:10115000826B01EB82020267C36B02EBC302426740
:10116000D0E91034634302EB83028267D0E9123482
:10117000634302EB8302C267D0E91434634302EB9A
:101180008302C0F88020836D02EBC302C0F8842084
:10119000C46D836E5C4302EB8402C0F88820046E49
:1011A0005C4302EB8402C0F890200B4B9A4208D9B2
:1011B0009830416841F02001416003210170012015
:1011C00030BD002200E004C1D0F890308B42FAD844
:1011D000002030BD00AC0040FCD30040F0B5D1E9A8
:1011E00001650C692C430D68002E1AD045F080452E
:1011F0002C4391F82070D1E9066535434E6946EAE3
:10120000076635438E8945EA0645D0F88460806ECE
:10121000584306EB80031C605D60083300200B4ED2
:101220000FE044EA8544E4E71418155CE77845EAE2
:101230000765A77864783F0447EA0424254320C360
:10124000001DCC68345D8442EED8F0BD7C290108D5
:10125000C9070BD00649CB6823F4E663CB60CB68A3
:101260001343842242EA00200343CB60704700000E
:1012700000200052C9070BD00649CA6822F030028C
:10128000CA60CA680243CA60C86840F08800C86083
:1012900070470000002000522DE9F04704468946BF
:1012A0000426002502F0E8FC8046164F08E0601C8A
:1012B00006D002F0E1FCA0EB0800A04208D83CB147
:1012C000386936EA0000F2D0B9F1010F03D005E029
:1012D0000320BDE8F0873D690B480540680006D053
:1012E0000A488169294381617D610120F1E7B9F1F3
:1012F000010F05D13869C00302D54FF48030786101
:101300000020E6E7002000520000EE17542F0024D2
:1013100030B504464FF6FF700022074D08E0A35C8D
:1013200083EA102335F8133083EA400080B2521C60
:101330008A42F4D330BD0000642D010810B50B487B
:101340000168001D0468001D0068084400280BD0D7
:101350000749082207F050FB054904222046BDE852
:101360001040103107F048BB10BD000000E8F11F2D
:101370004A0000242DE9F84F044602F07DFC00905D
:101380005CB194F83500022809D080206065002007
:1013900084F834000120BDE8F88F0120FBE7D14E2E
:1013A000D04FD0491836DFF83C833037DFF834931C
:1013B000DFF830A308F14808DFF828B309F1600925
:1013C00020680AF1780A0BF1900B88422ED0B042C7
:1013D0002CD0B8422AD0404528D0484526D0504588
:1013E00024D0584522D0BF4AA83290421ED0BE4ACF
:1013F00090421BD0BC4A1832904217D0BA4A3032C1
:10140000904213D0B84A483290420FD0B64A603268
:1014100090420BD0B44A7832904207D0B24A903210
:10142000904203D0B04AA83290420AD1026822F01A
:101430001E0202602068426922F080024261256833
:1014400004E0026822F00E020260256820688842EB
:101450004DD0B0424BD0B84249D0404547D0484526
:1014600045D0504543D0584541D09E4AA83290427D
:101470003DD09D4A90423AD09B4A1832904236D095
:10148000994A3032904232D0974A483290422ED018
:10149000954A603290422AD0934A7832904226D0C0
:1014A000914A9032904222D08F4AA83290421ED068
:1014B0008E4A90421BD08D4A1432904217D08B4AEC
:1014C0002832904213D0894A3C3290420FD0874A4A
:1014D000503290420BD0854A6432904207D0834A02
:1014E0007832904203D0814A8C32904204D1206EEF
:1014F000026822F4807202607A49206888422ED005
:10150000B0422CD0B8422AD0404528D0484526D0F9
:10151000504524D0584522D07249A83188421ED067
:10152000714988421BD070491831884217D06E49E2
:101530003031884213D06C49483188420FD06A4913
:10154000603188420BD068497831884207D06649BB
:101550009031884203D06449A831884204D101689F
:1015600021F00101016013E0016821F00101016037
:101570000EE002F081FB0099401A052808D92020CE
:10158000343420620320607000202070012002E7C4
:101590002868C007EDD1534A0121206890422ED01F
:1015A000B0422CD0B8422AD0404528D0484526D059
:1015B000504524D0584522D04A4BA83398421ED0DB
:1015C000494B98421BD0484B1833984217D0464B92
:1015D0003033984213D0444B483398420FD0424B9B
:1015E000603398420BD0404B7833984207D03E4B43
:1015F0009033984203D03C4BA833984208D1A06D59
:1016000094F85C3003F01F053F23AB40836007E094
:10161000A06D94F85C3003F01F0301FA03F34360FC
:10162000206890424DD0B0424BD0B84249D040459E
:1016300047D0484545D0504543D0584541D0294A28
:10164000A83290423DD0284A90423AD0264A1832D9
:10165000904236D0244A3032904232D0224A483228
:1016600090422ED0204A603290422AD01E4A7832D0
:10167000904226D01C4A9032904222D01A4AA83278
:1016800090421ED0194A90421BD0184A1432904200
:1016900017D0164A2832904213D0144A3C32904256
:1016A0000FD0124A503290420BD0104A643290420E
:1016B00007D00E4A7832904203D00C4A8C329042C6
:1016C0000BD1D4E919205060E06E30B1026822F4E9
:1016D00080720260D4E91C205060343461700020B4
:1016E000207058E6100002401004024008540258CE
:1016F0002DE9F05F002808D090F83510022906D0B7
:10170000802141650120BDE8F09F0120FBE7A14A4F
:10171000A04BA04C18329F4D30339E4E4834DFF81A
:1017200074B26035DFF870C27836DFF86C82DFF8AB
:1017300068920CF1300CDFF860A208F160080168D3
:1017400009F17809944F0AF1900A594531D0914234
:101750002FD099422DD0A1422BD0A94229D0B142FD
:1017600027D0DFF830E20EF1900E714521D0DFF87E
:1017700024E20EF1A80E71451BD0DFF81CE2AEF199
:10178000180E714515D0B94213D0DFF80CE20EF1F6
:10179000180E71450DD061450BD0DFF8FCE10EF15C
:1017A000480E714505D0414503D0494501D051450A
:1017B00037D14FF0040E80F835E0594527D09142DB
:1017C00025D0994223D0A14221D0A9421FD0B142B5
:1017D0001DD070489030814219D06E48A8308142A7
:1017E00015D06D481838814211D0B9420FD06A48DF
:1017F000183081420BD0614509D06748483081429A
:1018000005D0414503D0494501D0514504D1086870
:1018100020F001000860BAE0086820F001000860CC
:10182000B5E0D1F800E02EF00E0EC1F800E001683E
:10183000DE46594531D091422FD099422DD0A14258
:101840002BD0A94229D0B14227D0DFF848B10BF103
:10185000900B594521D0DFF83CB10BF1A80B59454D
:101860001BD0DFF834B1ABF1180B594515D0B94294
:1018700013D0DFF824B10BF1180B59450DD0614599
:101880000BD0DFF814B10BF1480B594505D0414599
:1018900003D0494501D0514506D1D1F800B02BF015
:1018A000010BC1F800B005E0D1F800B02BF0010B3E
:1018B000C1F800B001684FF0010B714546D091426C
:1018C00044D0994242D0A14240D0A9423ED0B14238
:1018D0003CD0304A9032914238D02E4AA8329142C0
:1018E00034D02D4A183A914230D0B9422ED02A4AEB
:1018F000183291422AD0614528D0274A4832914275
:1019000024D0414522D0494520D051451ED0234AFC
:1019100091421BD0214A1432914217D01F4A2832DB
:10192000914213D01D4A3C3291420FD01B4A503293
:1019300091420BD0194A6432914207D0174A78324B
:10194000914203D0154A8C32914218D1016E0A6837
:1019500022F480720A60816D90F85C2002F01F0210
:101960000BFA02F24A60D0E919215160C16E31B11F
:101970000A6822F480720A60D0E91C21516080F864
:1019800035B0002180F83410016D01B18847002086
:10199000B9E6000010000240280402400854025832
:1019A0002DE9F05F0446002C4ED0784A774B774EF5
:1019B0001832764F303375494836DFF8D0C160377A
:1019C000DFF8C881DFF8C4910CF1780CDFF8C0B102
:1019D00008F19008DFF8B8E109F1A80920680BF1D7
:1019E000180BDFF8ACA10EF1300E884227D09042E0
:1019F00025D0984223D0B04221D0B8421FD06045B4
:101A00001DD040451BD0484519D0504517D05845EA
:101A100015D0704513D05E4D4835A8420FD05C4DAF
:101A20006035A8420BD05A4D7835A84207D0584DA2
:101A30009035A84203D0564DA835A84207D1056875
:101A400025F00105056006E00120BDE8F09F05686E
:101A500025F00105056020680025884227D09042C6
:101A600025D0984223D0B04221D0B8421FD0604543
:101A70001DD040451BD0484519D0504517D058457A
:101A800015D0704513D04249483188420FD04049A3
:101A9000603188420BD03E497831884207D03C49BA
:101AA0009031884203D03A49A831884216D1056066
:101AB00020684560206885602068C56020680561F1
:101AC0002120216848612046FFF744F894F85C1013
:101AD00001F01F023F219140816031E02D49884291
:101AE0001BD02C491431884217D02A49283188420A
:101AF00013D028493C3188420FD0264950318842C2
:101B00000BD024496431884207D022497831884279
:101B100003D020498C31884236D105602068456069
:101B2000206885602068C560206805612046FFF751
:101B300011F894F85C1001F01F02012191404160FE
:101B40002046FFF767F8206E18B10560D4E9191038
:101B500048606068401E072807D82046FFF7AAF8AB
:101B6000E06E0560D4E91C1048603434A563E56379
:101B70002564A560E56025616561A561E561256273
:101B800065702570002060E701205EE710000240CC
:101B90001004024008540258406D70472DE9FF5F61
:101BA0000446002001904FF41651FD480068B0FB38
:101BB000F1F00090A56D2E682968FA4FDFF8E4B3C4
:101BC000DFF8E083DFF8DC930BF1180BDFF8D4A328
:101BD00008F13008206809F148090AF1600AB842A2
:101BE0003BD05A46904238D0404536D0484534D054
:101BF000504532D0EB4A783290422ED0E94A9032AA
:101C000090422AD0E74AA832904226D0E64A904233
:101C100023D0E54A183290421FD0E34B303398422C
:101C20001BD0E14B4833984217D0DFF87CC30CF14E
:101C3000600C604511D0DFF870C30CF1780C604582
:101C40000BD0DFF864C30CF1900C604505D0DFF8D1
:101C500058E30EF1A80E70457ED194F85C1008236D
:101C600001F01F0103FA01F232424BD0B84232D0E8
:101C7000584530D040452ED048452CD050452AD02C
:101C8000C8497831884226D0C6499031884222D04E
:101C9000C449A83188421ED0C34988421BD0C249DA
:101CA0001831884217D0C0493031884213D0BE491C
:101CB000483188420FD0BC49603188420BD0BA49C4
:101CC0007831884207D0B8499031884203D0B6496C
:101CD000A831884203D1016801F0040102E00168E3
:101CE00001F0080171B1016821F00401016094F86C
:101CF0005C0000F01F0003FA00F2AA60606D40F083
:101D00000100606594F85C00012100F01F00814033
:101D1000314240D02068B84234D0584532D0404596
:101D200030D048452ED050452CD09E4A7832904233
:101D300028D09C4A9032904224D09A4AA8329042AD
:101D400020D0994A90421DD0974A1832904219D01B
:101D5000954A3032904200E0D2E113D0924A4832A4
:101D600090420FD0904A603290420BD08E4A783227
:101D7000904207D08C4A9032904203D08A4AA832CF
:101D800090427DD1406910F0800F04D0A960606D51
:101D900040F00200606594F85C00042100F01F0030
:101DA000814031423ED02068B84232D0584530D0D0
:101DB00040452ED048452CD050452AD0794A78321B
:101DC000904226D0774A9032904222D0754AA8326B
:101DD00090421ED0744A90421BD0734A18329042EF
:101DE00017D0714A3032904213D06F4A4832904235
:101DF0000FD06D4A603290420BD06B4A78329042DD
:101E000007D0694A9032904203D0674AA832904284
:101E10004ED1006810F0020F04D0A960606D40F050
:101E20000400606594F85C00102100F01F00814000
:101E3000314260D02068B84234D0584532D0404555
:101E400030D048452ED050452CD0564A783290425A
:101E500028D0544A9032904224D0524AA83290421C
:101E600020D0514A90421DD04F4A1832904219D08A
:101E70004D4A3032904215D04B4A4832904200E0F1
:101E800014E00FD0484A603290420BD0464A783274
:101E9000904207D0444A9032904203D0424AA8323E
:101EA000904207D1006800F0080006E0006872E781
:101EB0000068B7E7006800F0040058B1A960206826
:101EC000016849030CD50068000304D4216C09B1F2
:101ED000204688470FE0A16C69B1204688470AE098
:101EE0000168C90503D4016821F008010160216C73
:101EF00009B12046884794F85C00202100F01F00BB
:101F0000814031427BD02068B84232D0584530D031
:101F100040452ED048452CD050452AD0214A783211
:101F2000904226D01F4A9032904222D01D4AA832B9
:101F300090421ED01C4A90421BD01B4A183290423D
:101F400017D0194A3032904213D0174A4832904283
:101F50000FD0154A603290420BD0134A783290422B
:101F600007D0114A9032904203D00F4AA8329042D3
:101F700003D1006800F0100002E0006800F00200E9
:101F8000E8B3A96094F83500042812D020680168ED
:101F900049033DD50068000335D4616C79B305E091
:101FA00084000024100002401004024020468847AC
:101FB0003FE02068016821F0160101602068416956
:101FC00021F080014161206C08B9A06C20B120682B
:101FD000016821F00801016094F85C0000F01F0125
:101FE0003F208840A860012084F83500002084F854
:101FF0003400216D002974D004B0204600E018E0C0
:10200000BDE8F05F0847E16B99B12046884710E0D2
:102010000168C90509D4016821F01001016001209F
:1020200084F83500002084F83400E16B09B12046C3
:102030008847606D002854D0606DC00758D00420D8
:1020400084F835002068B84231D058452FD040453B
:102050002DD048452BD0504529D0B749884226D0AD
:10206000B5491831884222D0B349303188421ED058
:10207000B24988421BD0B1491831884217D0AF49C4
:102080003031884213D0AD49483188420FD0AB4936
:10209000603188420BD0A9497831884207D0A749DE
:1020A0009031884203D0A549A831884204D1016803
:1020B00021F00101016003E0016821F001010160EC
:1020C00021680198009A401C0190904202D808684B
:1020D000C007F6D10868C00704D0032084F8350093
:1020E00003E087E0012084F83500002084F8340004
:1020F000E16C00297ED004B02046BDE8F05F0847BF
:102100008F4EB0421BD08E4E1436B04217D08C4E3C
:102110002836B04213D08A4E3C36B0420FD0884E9B
:102120005036B0420BD0864E6436B04207D0844E53
:102130007836B04203D0824E8C36B0425AD106680F
:102140004FF0040E94F85CB00BF01F0B0EFA0BFE70
:102150001EEA010FCDF80CE05ED05FEA467E5BD54B
:1021600003986860300411D5F00307D4A16C0029EE
:1021700040D004B02046BDE8F05F0847216C00293C
:1021800038D004B02046BDE8F05F0847B0063BD425
:102190002068B8422DD068496039884229D040452E
:1021A00027D0484525D0504523D06349884220D0C8
:1021B0006149183188421CD05F493031884218D0BB
:1021C0005E49884215D0904213D05C493031884234
:1021D0000FD098420DD059496031884209D05749F3
:1021E0007831884205D0604503D05449A8318842EF
:1021F00006D100E07CE0016821F00801016003E005
:10220000016821F004010160216C002970D004B044
:102210002046BDE8F05F08474FF0020E0EFA0BFEB5
:102220001EEA010FCDF808E063D05FEA867E60D534
:1022300002986860300411D5F00307D4616C00295E
:1022400078D004B02046BDE8F05F0847E16B002974
:1022500070D004B02046BDE8F05F0847B0063FD418
:102260002068B8422DD034496039884229D0404591
:1022700027D0484525D0504523D02F49884220D02B
:102280002D49183188421CD02B493031884218D052
:102290002A49884215D0904213D0284930318842CB
:1022A0000FD098420DD025496031884209D023498A
:1022B0007831884205D0604503D02049A831884252
:1022C00004D1016821F01401016003E0016821F0EC
:1022D0000A010160012084F83500002084F83400F0
:1022E000E16B002926D004B02046BDE8F05F084726
:1022F00020E0082202FA0BF20A421BD0310719D55E
:10230000016821F00E01016094F85C0000F01F01EB
:10231000012000FA01F16960606584F83500002051
:1023200084F83400E16C002904D004B02046BDE8F4
:10233000F05F0847BDE8FF9F88000240100402409C
:10234000085402582DE9F05F044601F095FC06465A
:10235000002C7DD0F24F0222DFF8C4830025DFF885
:10236000C093DFF8BCA308F13008DFF8B4B309F17B
:10237000480920680AF1600A0BF1780BB84232D0A4
:10238000E749183188422ED040452CD048452AD004
:10239000504528D0584526D0E1499031884222D076
:1023A000DF49A83188421ED0DE4988421BD0DD4972
:1023B0001831884217D0DB493031884213D0D949CF
:1023C000483188420FD0D749603188420BD0D54977
:1023D0007831884207D0D3499031884203D0D1491F
:1023E000A83188427ED184F8352084F83450B84230
:1023F00034D0CB491831884230D040452ED04845A2
:102400002CD050452AD0584528D0C5499031884213
:1024100024D0C349A831884220D0C24988421DD067
:10242000C0491831884219D0BE493031884215D090
:10243000BC494831884211D0BA49603188420DD038
:10244000B8497831884209D0B6499031884200E0D5
:1024500009E003D0B349A831884207D1016821F0CF
:102460000101016013E00120BDE8F09F016821F047
:10247000010101600BE001F0FFFB801B052806D97C
:1024800020206065032084F835000120ECE72068F7
:102490000068C007EFD122681168A3480140D4E961
:1024A00002031843D4E9043633431843A36918439D
:1024B000E3691843236A18430843616A042903D176
:1024C000D4E90B13194308436168A1F12903052BD3
:1024D0000DD9163B032B0AD9083B012B07D9083B22
:1024E000032B00E02AE002D97439032901D840F413
:1024F000801010602068406920F00701606A40EA9F
:10250000010604280DD1A06A0643E06A48B12046BE
:10251000FEF70EFC28B140206065012084F83500EC
:10252000A2E7206846612046FEF714FB94F85C1091
:1025300001F01F023F219140816066E07B498842A3
:102540001BD07A4B1433984217D0784B28339842DB
:1025500013D0764B3C3398420FD0744B5033984293
:102560000BD0724B6433984207D0704B783398424B
:1025700003D06E4B8C3398427ED1884211D06B4988
:10258000143188420DD069492831884209D0674901
:102590003C31884205D065495031884201D06349B9
:1025A000643184F8352084F83450026860490A4068
:1025B000A16840297ED080297DD00021E36841EACE
:1025C000D301236941EAD301636941EAD301A369D5
:1025D00041EAD301E36941EAD301236A41EA1311D5
:1025E0001143016051492068494208441421B0FB5D
:1025F000F1F08000E0652046FEF7ACFA94F85C103C
:1026000001F01F020121914041602068B84256D07C
:1026100043491831884252D0404550D048454ED0A9
:1026200050454CD058454AD03D499031884246D01B
:102630003B49A831884242D03A4988423FD0394983
:10264000183188423BD037493031884237D035493C
:102650004831884233D03349603188422FD03149E4
:10266000783188422BD02F499031884227D02D498C
:10267000A831884223D000E02DE02C4988421ED0AA
:102680002A49143188421AD028492831884216D064
:1026900026493C31884212D02449503188420ED01C
:1026A0002249643188420AD020497831884206D0D4
:1026B0001E4901E00AE00BE08C31884229D1204616
:1026C000FEF7A8FAA06880280CD00CE0102175E76E
:1026D0004FF4804172E740206065032084F83500A4
:1026E0000120C1E66560216E20790860D4E91910E7
:1026F00048606068401E072808D82046FEF7DAFACE
:10270000E06E0560D4E91C10486002E0E5662567CC
:1027100065676565012084F835000020A4E60000A7
:1027200010000240100402403F8010FE085402587E
:102730000F00FEFF2DE9F84F044600200090002C0A
:1027400015D094F83400012813D0012084F8340007
:1027500094F835500020012D0DD04FF400616165D3
:1027600084F83400012000900098BDE8F88F012023
:10277000FBE70220F9E7022584F835506065A54D96
:10278000A44EA44F1835DFF88CC23036DFF88482AF
:102790004837DFF88092DFF87CA208F16008DFF8A4
:1027A00074B209F1780920680AF1900A0BF1A80BBC
:1027B00060453BD0A84239D0B04237D0B84235D07E
:1027C000404533D0484531D050452FD058452DD0C5
:1027D000DFF844C2604529D0DFF83CC20CF1180C88
:1027E000604523D0DFF830C20CF1300C60451DD0BD
:1027F000DFF824C20CF1480C604517D0DFF818C28E
:102800000CF1600C604511D0DFF80CC20CF1780CB3
:1028100060450BD0DFF800C20CF1900C604505D08C
:10282000DFF8F4C10CF1A80C604506D1D0F800C067
:102830002CF0010CC0F800C005E0D0F800C02CF06E
:10284000010CC0F800C02046FEF7AEFA71492068BE
:1028500088422CD0A8422AD0B04228D0B84226D0F4
:10286000404524D0484522D0504520D058451ED060
:10287000694A90421BD0684A1832904217D0664A83
:102880003032904213D0644A483290420FD0624AAC
:10289000603290420BD0604A7832904207D05E4A54
:1028A0009032904203D05C4AA83290420DD1026827
:1028B00022F01E0242F016020260206C90B12068E5
:1028C000026842F0080202600CE0026822F00E0288
:1028D00042F00A020260206C20B12068026842F0D7
:1028E00004020260206888424BD0A84249D0B0421E
:1028F00047D0B84245D0404543D0484541D05045E7
:102900003FD058453DD0444A90423AD0424A1832CE
:10291000904236D0404A3032904232D03E4A48321D
:1029200090422ED03C4A603290422AD03A4A7832C5
:10293000904226D0384A9032904222D0364AA8326D
:1029400090421ED0354A90421BD0344A14329042F5
:1029500017D0324A2832904213D0304A3C3290424B
:102960000FD02E4A503290420BD02C4A6432904203
:1029700007D02A4A7832904203D0284A8C329042BB
:102980000DD1206E0268D20303D5026842F4807232
:102990000260E06E18B1026842F480720260206842
:1029A00088422CD0A8422AD0B04228D0B84226D0A3
:1029B000404524D0484522D0504520D058451ED00F
:1029C000154988421BD014491831884217D0124942
:1029D0003031884213D01049483188420FD00E4917
:1029E000603188420BD00C497831884207D00A49BF
:1029F0009031884203D00849A831884204D1016847
:102A000041F001010160AFE6016841F001010160A0
:102A1000AAE60000100002401004024008540258C8
:102A200070B5044601F028F90546601C02D0044840
:102A30000078044401F020F9401BA042FAD370BD95
:102A40007800002410B590F89830012B08D0022BA4
:102A500006D050F89C1F41F002010160012010BD1A
:102A600003689C6D0C4204D1DC6D44F00104DC650C
:102A700005E09C6D31EA04041CD00324DC658B0561
:102A800004D5036853F8E04F14431C604B0504D58C
:102A9000036853F8E44F14431C600068426D084B10
:102AA0000B401A4342650748026842EA917101608F
:102AB000002010BDDC6D44F00204DC65DFE700009F
:102AC000FFFFCF3F14A8004070B5044694F898006B
:102AD000022806D054F89C0F40F008002060012026
:102AE00070BD2068D0F8C03013F07C5F0AD0D0F8F9
:102AF000C4309B020DD554F89C0F40F40070206048
:102B0000012070BD54F89C0F40F02000206001208F
:102B100070BDD0F8C400C0F3044520462B46FEF734
:102B20005DFB21680120A840C1F8D000C4F89400E2
:102B3000002070BD704710B590F89820012A08D089
:102B4000022A06D050F89C1F41F0020101600120CA
:102B500010BDCA680B688BB1072A0B6943EA427340
:102B60002BD00C7A4A6942EA84724968006F00EB04
:102B7000C100036042604FF0000010BD072A10D072
:102B80000C7A4FEAC2624B6943EA84730C8A42EAC8
:102B9000044243EA02034968C06E00EB810003600F
:102BA000E9E70B8A4FF060548A6942EA0343CA6935
:102BB00044EA022243EA0203EDE78A69D5E730B529
:102BC000039C90F89850012D06D050F89C1F41F0BE
:102BD00004010160012030BD0068090141EA820161
:102BE00041EA43012143C0F88010002030BD0000BD
:102BF00010B590F89820012A08D0022A06D050F883
:102C00009C1F41F002010160012010BD0268536D5C
:102C1000134C0C40A3435365124A136823EA917383
:102C200013608B054FF0000202D50368C3F8E02063
:102C3000490502D50168C1F8E42001688A6D4B6D31
:102C4000934303D1CB6D23F00103CB650068416D45
:102C5000114203D1C16D21F00201C165002010BDF8
:102C6000FFFFCF3F14A8004070477047F0B5002425
:102C700090F89850022D06D050F89C1F41F00801A2
:102C800001600120F0BD40290BD0412936D0056DEF
:102C90008D4260D850F89C1F41F020010160012056
:102CA000F0BD0568D5F8A06016F4FE0F18D0D5F871
:102CB000A46076061BD0D5F8A460F60105D5D5F83A
:102CC000A06016F0004F00D50124D5F8A450C5F33C
:102CD00005252C44456C466F654306EB85063FE0B1
:102CE00050F89C1F41F0200101600120F0BD50F818
:102CF0009C1F41F4807101600120F0BD0568D5F88A
:102D0000B06016F4FE0F18D0D5F8B46076061BD06C
:102D1000D5F8B460F60105D5D5F8B06016F0004FCF
:102D200000D50124D5F8B450C5F305252C44C56C55
:102D3000866F654306EB850612E050F89C1F41F054
:102D4000200101600120F0BD50F89C1F41F480710A
:102D500001600120F0BD456DC66F4D4306EB850651
:102D6000356805F0804555602DB3356825F0604520
:102D70001560356805F000559560356805F000452B
:102D80001561B588ADB2D5617568C5F30345D560E9
:102D9000756805F480155561756805F40015956131
:102DA0007568C5F30665156275680836ED0F5562DE
:102DB0000025174F09E03568C5F38A451560D8E747
:102DC00016F805C003F805C06D1CD2F80CC017F842
:102DD0000CC0AC45F4D8402909D041290BD00122C0
:102DE00020290CD200688A40C0F898200DE00068C5
:102DF000C0F8A84009E00068C0F8B84005E00068E5
:102E000001F01F018A40C0F89C200020F0BD0000A6
:102E10007C2901080068D0F8C40000F03F0070472A
:102E2000704700002DE9FE4F0446C04F3868800708
:102E3000391D096800EA817002902068016D01F473
:102E40007041D0F854A00AEA010A016D01F00F01A7
:102E5000D0F854B00BEA010B016D01F0F001426DA6
:102E60000A400192016D01F07151D0F8548008EAD6
:102E70000108016D01F06071426D0A400092416DE0
:102E8000056D4FF00009CE43F1050AD4E943C905A9
:102E900007D4B9150165C7F800902046D4F8C010D2
:102EA0008847700511D4E84340050ED42068D0F857
:102EB000DC20D0F8E41011404FF480620265C7F8BE
:102EC00000902046D4F8B8209047029860B1984905
:102ED00002980840216808650298800F3860D4F88D
:102EE000A020204602999047BAF1000F0CD021682B
:102EF0008F480AEA000008654FEA9A703860514628
:102F0000D4F8A42020469047BBF1000F0CD02168D4
:102F100087480BEA000008654FEA9B703860594605
:102F2000D4F8A82020469047019860B180490198C4
:102F30000840216808650198800F3860D4F8AC20FB
:102F400020460199904730050CD4E843000509D488
:102F500021684FF400600865C7F800902046D4F857
:102F6000B0108847B00511D4E84380050ED420681E
:102F7000D0F8D820D0F8E01011404FF4007202656C
:102F8000C7F800902046D4F8B420904730030CD402
:102F9000E843000309D421684FF400200865C7F80E
:102FA00000902046D4F8BC108847F0030CD4E843C6
:102FB000C00309D421684FF480300865C7F8009039
:102FC0002046D4F8C410884770030CD4E84340036B
:102FD00009D421684FF480200865C7F80090204686
:102FE000D4F8C8108847B0030ED4E84380030BD44C
:102FF00021684FF400300865C7F80090D4F89C00B1
:1030000040F08000C4F89C00009860B148490098E6
:103010000840216808650098800F3860D4F8D020F7
:10302000204600999047B8F1000F0DD02168404824
:1030300008EA000008654FEA98703860D4F89C00F0
:1030400040EA0800C4F89C003A49206888425FD1F1
:103050006068816889075BD0016A01F00F02416AEC
:103060001140026A02F03002476A1740026A02F415
:10307000C072D0F8248008EA0208026A02F4FC4216
:10308000456A1540026A02F4F022466A1640D0F8FA
:103090002490D0F820A021B101622046D4F8D42099
:1030A000904737B1606807623946D4F8D820204687
:1030B00090476FEA090040060FD46FEA0A00400605
:1030C0000BD46068C16B090CC26B02F03F02402355
:1030D0000362D4F8DC3020469847B8F1000F07D0DF
:1030E0006068C0F820804146D4F8E0202046904730
:1030F00035B160680562D4F89C002843C4F89C0090
:1031000036B160680662D4F89C003043C4F89C0075
:10311000D4F89C00002806D0D4F8CC1003B0204688
:10312000BDE8F04F0847BDE8FE8F000010A8004042
:10313000FFFFCF3F00A000402DE9F04393B00446CD
:103140004C22AA496846FDF70FFA6CB1A84F2068D7
:10315000B84202D100F5807060604FF4407994F875
:103160009800002620B132E0012013B0BDE8F083C2
:103170009C3404F8036C9F4860609F48A0609F489F
:10318000E0609F4820619F4860619F48A0619F4820
:10319000E0619F4820629F4860629F48A0629F480C
:1031A000E0629F4820639F4860639F48A0639F48F8
:1031B000E0639F4820649F486064A06C9C3C10B909
:1031C0009D48C4F8E4002046D4F8E41088472068FD
:1031D000816921F01001816100F04EFD05464FF03C
:1031E00003080DE000F048FD401B0A2808D954F8F8
:1031F0009C0F40F00100206004F8048C0120B4E72B
:10320000206880690007EDD42068816941F00101E0
:10321000816100F031FD05460DE000F02DFD401B01
:103220000A2808D954F89C0F40F00100206004F8E7
:10323000048C012099E720688069C007EDD02068E0
:10324000816941F002018161207C012839D0206828
:10325000816941F040018161607C012837D020689C
:10326000816921F480418161A07C012835D02068EA
:10327000816941F48051816120688169A26821F4EB
:103280004071114381612068816921F0A40181614D
:103290002068016921F010010161E068012822D055
:1032A00030B302282BD02068816941F08001816110
:1032B0002068016941F010010161E068032818D01D
:1032C00022E02068816921F040018161C4E7206823
:1032D000816941F480418161C6E72068816921F4F8
:1032E00080518161C8E72068816941F004018161F2
:1032F0000AE02068816941F02001816104E02068D2
:10330000816941F020018161207E401E4106E06913
:10331000401E41EA0020216A491E0843A18A491E35
:1033200040EA01402168C861A06848450FD1E16AC0
:10333000A06A491E401E40EA0121206B401E41EA5E
:103340000011A08C401E41EA00402168C860206E38
:1033500028B1206850F8C01F626E11430160D4E9A3
:103360001701C842694609D0206850F8C82FA36EDB
:1033700022F0070251F823301A430260206C48B152
:10338000206850F8BC2F636C22F0070251F82330FC
:103390001A430260A06C50B1206850F8BC2FE36C57
:1033A00022F0700251F8233042EA03120260206DCD
:1033B00050B1206850F8BC2F636D22F4E06251F8E0
:1033C000231042EA012101602068B84204D16068FC
:1033D000816821F00301816044F8946FA6600120A8
:1033E0002071943C2046FDF721FEBEE68C290108A1
:1033F00000A00040352B000807370008C33600083E
:10340000C5360008093700080537000803370008EB
:10341000C1360008212E000801370008FF360008D9
:10342000692C00086B2C0008F9360008FD360008EE
:10343000FB360008F73600083D3400082DE9F04758
:10344000B6B00446142130A8FDF7C8F8B82102A888
:10345000FDF7C4F85F4D00265C4A4FF080502168AC
:103460000C3D5B4F4FF002085A4C9142DFF868A1C7
:103470004FF0090936D142130021CDE902211D90F8
:1034800002A801F021FD08B1FDF7BBFD3868401C22
:103490003860012807D1206840F4807020602068DF
:1034A00000F480700190286840F0080028602868C7
:1034B00000F00800019003203090CDF8C4803296CF
:1034C0003396CDF8D09030A9504600F0C3FA0022D0
:1034D0001320114600F0A8FC132000F098FC36B031
:1034E000BDE8F0873D4A914235D100214FF40042BA
:1034F000CDE902211D9002A801F0E6FC08B1FDF71C
:1035000080FD3868401C3860012807D1206840F4ED
:1035100080702060206800F480700190286840F07E
:1035200002002860286800F00200019060203090BE
:10353000CDF8C48032963396CDF8D09030A9284883
:1035400000F088FA00221420114600F06DFC1420CF
:1035500000F05DFCC3E7234A9142C0D100214FF443
:103560000042CDE902211D9002A801F0ADFC08B196
:10357000FDF747FD3868401C3860012807D12068F6
:1035800040F480702060206800F48070019028680A
:1035900040F008002860286800F0080001904FF40F
:1035A00040503090CDF8C480329633960520349048
:1035B00030A9504600F04EFA00229F20114600F03C
:1035C00033FC9F2000F023FC89E7000000A00040AE
:1035D00000000024EC440258000C025800A40040F3
:1035E0000004025800D4004010B50023002A0ED079
:1035F00090F89840012C11D090F89840ACB350F856
:103600009C1F41F4807101600123184610BD50F8E1
:103610009C1F41F480710160012010BD08291DD25A
:10362000DFE801F004070A0D10131619C0F8B020E6
:10363000EBE7C0F8BC20E8E7C0F8C020E5E7C0F839
:10364000C420E2E7C0F8C820DFE7C0F8CC20DCE700
:10365000C0F8E420D9E7C0F8E820D6E750F89C1F6E
:1036600041F4807101600123CFE7FFE7062908D00C
:10367000072909D050F89C1F41F480710160012393
:10368000C3E7C0F8E420C0E7C0F8E820BDE70022A7
:1036900000290BD090F89830012B0ED050F89C1FC9
:1036A00041F48071016001221046704750F89C1F60
:1036B00041F48071016001207047C0F8A810F3E761
:1036C00070477047704790F89810012906D050F85D
:1036D0009C1F41F00401016001207047022180F825
:1036E000981001688A6922F001028A610021C0F8FD
:1036F0009C100020704770477047704770477047B4
:103700007047704770477047704700002DE9F05FC1
:1037100004460F460026DFF8BC9099F814000128F3
:1037200013D0012089F814004FF0000AC9F818A03E
:1037300020794CF2503BC00705D001215846FDF7D7
:10374000ABFD00B101261EB13FE00220BDE8F09FB5
:103750002068DFF88480012806D04FF0FF30386001
:10376000A56840F2047B2BE061682069FDF782FDCB
:103770002079C00729D001215846FDF78DFD00B101
:103780000126D8F80C0020F00800C8F80C001CE056
:10379000226928466168FDF75BFD2079C0070BD0E0
:1037A00001214CF25030FDF777FD0646D8F80C00A9
:1037B00020EA0B00C8F80C000EB13D6005E06D1C5E
:1037C000D4E902100844A842E2D889F814A030468F
:1037D000BCE70000542F0024002000520548C168B7
:1037E00041F00101C160C068C00701D000207047EE
:1037F00001207047002000522DE9F05F15460C466D
:103800000826204F387D012813D001203875A1F1FA
:103810000061B1F5801F0FD282464FF00009C7F852
:1038200018904CF2503B51465846FDF735FD28B1F3
:1038300024E00220BDE8F09F0120FBE7DFF848808C
:10384000D8F80C0040F00200C8F80C00BFF36F8FEE
:10385000BFF34F8F01CD01C4761EF6B2002EF9D111
:10386000BFF36F8FBFF34F8F51465846FDF714FDDE
:10387000D8F80C1021F00201C8F80C1087F8149049
:10388000D8E70000542F0024002000520748C168E8
:10389000C90708D00649416006494160C068C007B1
:1038A00001D0012070470020704700000020005226
:1038B00023016745AB89EFCD2DE9F04F0023424D41
:1038C0004FF001084FF00F0C79E008FA03F4A1461D
:1038D0000C40002C72D023F0030606F1B046D6F857
:1038E00008249F074FEA177A0CFA0AF707EA020B37
:1038F000364A904201D1002228E0354A904201D157
:10390000012223E0334A904201D102221EE0324AD2
:10391000904201D1032219E0304A904201D10422A1
:1039200014E02F4A904201D105220FE02D4A904227
:1039300001D106220AE02C4A904201D1072205E07B
:103940002A4A904201D1092200E00A2202FA0AF230
:103950005A4518D12A68A2432A606A68A2436A605D
:103960004FF0B042D2F804A02AEA040AC2F804A038
:10397000D2F800A02AEA040AC2F800A0D6F8082467
:10398000BA43C6F8082404685E000322B240144318
:103990000460DC0800EB8404276A5E074FEAD66AFD
:1039A0000CFA0AF6B7432762C4689443C4604468BB
:1039B00024EA090444608468944384605B1C31FAFF
:1039C00003F282D1BDE8F08F800000580000025859
:1039D0000004025800080258000C02580010025857
:1039E0000014025800180258001C02580024025803
:1039F000114A117804291DD0B0F5806F06D0B0F5BA
:103A0000805F0FD0012815D10AF008BAD07840F0B5
:103A10000100D070107940F001001071002909D127
:103A20000AF09EB8507940F001005071002901D190
:103A30000AF096B8704700001801002410B54FF046
:103A4000B041D1F88820024203D0C1F88800FFF7C6
:103A5000CFFF10BD2DE9F84F0022784D03264FF01F
:103A600001080F274FF0B04CE1E008FA02F31C40C8
:103A70009A46002C7ED00B7903F00303012B01D072
:103A8000022B1BD1D0F80890530006FA03FB29EA59
:103A90000B09D1F80CB00BFA03FB4BEA090BC0F889
:103AA00008B0436823EA0A0391F80490C9F30019A7
:103AB00009FA02F949EA0309C0F804900B79DB43DB
:103AC0009B070ED0D0F80C90530006FA03FA29EAAF
:103AD0000A09D1F808A00AFA03FA4AEA090AC0F862
:103AE0000CA00B7903F00303022B14D1D30800EBD5
:103AF0008303D3F820A04FEA42794FEAD96907FA45
:103B000009FB2AEA0B0AD1F810B00BFA09FB4BEAC1
:103B10000A0BC3F820B0D0F80090530006FA03FA5D
:103B200029EA0A0991F804A00AF0030A0AFA03FA3A
:103B30004AEA090AC0F800A04B6813F4403F75D068
:103B40003F4BD3F8009049F00209C3F800901B687E
:103B500003F00203009322F0030909F1B049D9F8F8
:103B600008B493074FEA137A07FA0AF32BEA030B18
:103B7000344B00E05AE0984201D1002328E0324B58
:103B8000984201D1012323E0304B984201D1022316
:103B90001EE02F4B984201D1032319E02D4B984290
:103BA00001D1042314E02C4B984201D105230FE0EE
:103BB0002A4B984201D106230AE0294B984201D1B1
:103BC000072305E0274B984201D1092300E00A238F
:103BD00003FA0AF343EA0B03C9F80834DCF80030AF
:103BE000A343D1F804905FEAC92900D52343CCF858
:103BF0000030DCF80430A343D1F804905FEA89294F
:103C000000D52343CCF804306B68A343D1F804906B
:103C10005FEA893900D523436B602B68A343D1F851
:103C200004905FEAC93900D523432B60521C0C680D
:103C300034FA02F37FF419AFBDE8F88F8000005822
:103C4000F4440258000002580004025800080258C8
:103C5000000C0258001002580014025800180258B4
:103C6000001C025800240258002A01D081617047CC
:103C700009048161704700000148806870470000B6
:103C800078000024024881680278114481607047FE
:103C90007800002410B5032000F0E6F801F060FF82
:103CA0000F490A68C2F303230E4AD35C03F01F03D3
:103CB000D840096801F00F01515C0B4A01F01F0167
:103CC00020FA01F11160094908600F2000F010F896
:103CD00008B1012010BD00F07BF8002010BD0000ED
:103CE00018440258002A0108880000248400002497
:103CF00070B504460F4D2A78002A0CD04FF47A7024
:103D00000D49B0FBF2F00968B1FBF0F003F04FF998
:103D100018B1012070BD012070BD102C07D2002207
:103D20002146501E00F080F86C60002070BD01201C
:103D300070BD00007800002484000024134A4178FC
:103D40001160124908310A6822F001020A600B1F53
:103D500042681A60027BC37A120742EA0362837ADE
:103D600042EAC342437B42EA8342837B42EA4342C4
:103D7000C37B42EA0342437A42EA0322037A007891
:103D800042EA430202430A607047000098ED00E0F7
:103D9000BFF35F8F0448016821F48031016002495C
:103DA000002070310860704724ED00E0074940F0C2
:103DB0000100086005487038016841F480310160F5
:103DC000BFF34F8FBFF36F8F7047000094ED00E09B
:103DD00008B50548016841F002010160006800F083
:103DE0000200009008BD0000F444025800280DDBDA
:103DF000012100F01F0291404009800000F1E02005
:103E0000C0F88011BFF34F8FBFF36F8F704700284A
:103E100009DB012100F01F0291404009800000F100
:103E2000E020C0F800117047F0B40D460D4B1B6840
:103E3000C3F30223C3F10704042C00D90424191D81
:103E4000072901D2002300E0DB1E012606FA04F157
:103E5000491E294099409E40761E16403143F0BCD1
:103E60000CF0C5BD0CED00E000F00701054A10683C
:103E70004FF6FF03184040EA012003490843106051
:103E8000704700000CED00E00000FA050168012217
:103E9000C0F8D824002280F8CC24886940F0006063
:103EA0008861486D024A1043486500207047000051
:103EB000030000107047704700684162002070479F
:103EC00070B50368586A002907D09C6A00EB144457
:103ED0000020491E4FF482750AE040EA02409862D1
:103EE0000DE005EB80069E5904EB1644401CC0B261
:103EF0008842F6D305EB810144EA02405850002085
:103F000070BD70477047704770470A0601F00F0197
:103F100001EBC10100EB810101D5143101E001F594
:103F20001571006808F066BD70B504464FF00102D7
:103F300001F00F004FF000050B0600EBC00104EB91
:103F4000810102D514314A7002E001F515714D70FE
:103F5000087094F89404012808D084F89424206808
:103F600008F064FA84F89454002070BD022070BDFB
:103F700070B5044601F00F002279904201D901206A
:103F800070BD0B064FF0010201F00F014FF000056C
:103F900001EBC10104EB810102D514314A7002E04A
:103FA00001F515714D708D70087094F89404012816
:103FB00008D084F89424206808F09EFB84F8945478
:103FC000002070BD022070BD01F00F0101EBC101A6
:103FD00000EB8100D0F8680270472DE9F0410446FB
:103FE0004FF0010601F00F004FF000050F0600EB47
:103FF000C00104EB810102D514314E7002E001F5DD
:1040000015714D7008708A600B714A7802B148834F
:10401000022B00D14D7194F89404012809D084F842
:104020009464206808F042F9284684F89454BDE866
:10403000F0810220FBE710B501F00F0404EBC4018E
:1040400000EB810101F51571CA600B6100234B6122
:104050004B700C708379012B00D1CA6182790068A2
:1040600008F0A2FB002010BD70B504460D4605F017
:104070000F002179884201D9012070BD29064FF037
:1040800000064FF0010206D500EBC00104EB8101F0
:1040900014314A7006E005EBC50104EB810101F51E
:1040A00015714E708A70087094F89404012807D036
:1040B00084F89424206808F04BFB280702D007E01E
:1040C000022070BDA17904F29C42206808F0EAFA4F
:1040D00084F89464002070BD10B501F00F0404EB67
:1040E000C40100EB81011431CA600B6100234B61F4
:1040F00001234B700C708379012B00D1CA61827946
:10410000006808F051FB002010BD2DE9F84F04466F
:104110002568284608F018FD00287ED1206808F0A0
:104120003FFD002879D0D5F80808C0F30D20C4F869
:10413000D404206808F034FD800704D52068416964
:1041400001F002014161206808F02AFDC10604F275
:104150009C40009035D52068816921F01001816173
:104160002F6A07F00F0000EBC00004EB800606F595
:104170001576C7F34340022802D0062812D01BE070
:1041800047F6F070074217D0C7F30A12F1681746D6
:10419000284608F009FDF0683844F060706938443A
:1041A000706109E000990822284608F0FDFC70695A
:1041B000C7F30A11084470612068816941F0100159
:1041C0008161206808F0ECFC00034FF0080B4FF011
:1041D00000094FF001085FD50026206808F0BFFCF9
:1041E000824656E05FEACA7050D02068F1B208F00B
:1041F000CFFC0746F80707D005EB4610C0F8088B40
:104200003146204605F0B0FA380709D505EB4610CF
:10421000C0F808BB3146204600E021E205F080FAF4
:10422000F80604D505EB46111020C1F8080BB807B5
:104230001DD56869000605D5D5F8040840F48061ED
:10424000C5F8041806EBC60004EB800000F51570F5
:10425000C178012906D180F80390F1B2D4F808257D
:104260002046904705EB46110220C1F8080BB8061E
:1042700004D505EB46102021C0F8081BB80405D56D
:1042800005EB46104FF40051C0F8081B761C4FEAAE
:104290005A0ABAF1000FA5D1206808F081FC40034A
:1042A0006ED5206808F054FC8246002665E05FEA7F
:1042B000CA705FD02068F1B208F058FC0746F807D2
:1042C00024D006F00F0108FA01F0D5F83418814324
:1042D000C5F8341805EB4610C0F80889A079012804
:1042E0000FD106EBC60004EB8000D0E90721114492
:1042F000016236B9606A20B920680121009A08F08D
:10430000D1F9D4F80425F1B220469047380703D5F7
:1043100005EB4610C0F808B9F80604D505EB4611C0
:104320001020C1F80809780604D505EB4610402195
:10433000C0F80819B80717D53146284608F0D2FB4F
:1043400006EBC60004EB80001430C178012906D1C9
:1043500080F80390F1B2D4F80C252046904705EB85
:1043600046100221C0F80819380603D53146204608
:1043700005F0B6FA761C4FEA5A0ABAF1000F96D148
:10438000206808F00DFC002812DAD5F8040820F0A7
:104390000101C5F8041894F8CC0401283CD0D4F8E5
:1043A000F414204688472068416901F000414161CA
:1043B000206808F0F5FB00050CD5D5F80808C00703
:1043C00003D0D4F8F014204688472068416901F4EE
:1043D00000614161206808F0E3FB00010BD5206813
:1043E000416901F00061416194F8CC04E0B1D4F876
:1043F000F01420468847206808F0D2FBC00470D52E
:10440000D5F8040820F00101C5F80418206810212F
:1044100008F068FB00212FE084F8CC940021D4F848
:10442000142520469047BEE784F8CC842068406D70
:10443000C0F38300C4F8D004D4F814250121204629
:104440009047D8E705EB41104FF67F3200F510603A
:104450008260036823F400130360C0F80822D0F8D8
:10446000002222F40012C0F80022D0F8002242F00C
:104470000062C0F80022491C20798842E2D8D5F8B1
:104480001C0840F00111C5F81C18E07B60B1D5F89C
:10449000840840F00B01C5F88418D5F8440840F0B2
:1044A0000B01C5F844180CE0D5F8140842F22B01B2
:1044B0000843C5F81408D5F8100840F00B01C5F8FA
:1044C0001018D5F8000820F4FE61C5F80018A1798D
:1044D0002068009A08F0E6F82068416901F48051EC
:1044E0004161206808F05CFB800416D5206807F065
:1044F0001FFF206808F018FBE07101F0EBFAE27989
:104500000146206808F0B6FBD4F8EC142046884732
:104510002068416901F400514161206808F040FBC6
:10452000000708D5D4F8E41420468847206841697C
:1045300001F008014161206808F032FB000615D542
:10454000A86920F08001A96101260CE006EBC600F5
:1045500004EB800090F85702012803D12046F1B205
:10456000FFF7D3FC761C2079B042EFD8206808F022
:1045700017FBC0021FD5012615E005EB4610D0F849
:10458000001906EBC60004EB8000027E012A09D167
:10459000002907DA80F81780F0B240F08001204649
:1045A000FFF7B3FC761C2079B042E6D82068416959
:1045B00001F480114161206808F0F2FA800230D5E0
:1045C000012026E005EB4011D1F8001B00EBC002F2
:1045D00004EB820292F85832012B19D1002917DA24
:1045E00094F8D43401F4803103F0010399420FD1DF
:1045F00082F85782A96941F08002AA6169690906B7
:1046000006D4D5F8040840F40070C5F8040803E0A7
:10461000401C21798142D5D82068416901F40011FC
:104620004161206808F0BCFA400008D5D4F8F814BD
:10463000204688472068416901F080414161206837
:1046400008F0AEFA40070BD520684568680703D527
:10465000D4F8FC142046884720684168294341600B
:10466000BDE8F88F70477047F8B50446002C04D0B9
:1046700094F89504002510B12AE00120F8BD04F259
:104680009C4404F8085C4048A0644048E06440480A
:104690002065404860654048A0654048E065404866
:1046A0002066404860664048A0664048E066404852
:1046B00020674048A06740486067E06FA4F29C44D0
:1046C00010B93E48C4F818052046D4F81815884794
:1046D000032084F89504206807F0DEFF207C8DF825
:1046E000000094E80F0007F031FE022618B184F8AC
:1046F00095640120F8BD2068002108F074FA18B113
:1047000084F895640120F8BD002101270CE001EB3D
:10471000C10004EB800047750175C1850576C56150
:1047200005624562491CC9B220798842EFD8002150
:104730000DE001EBC10004EB800000F51570457041
:10474000017005718560C5600561491CC9B2207999
:104750008842EED8207C8DF8000094E80F0007F026
:10476000E5FE18B184F895640120F8BD657484F8FD
:104770009574207B012802D12046FFF787FB206833
:1047800007F0C6FE0020F8BD4F4A0008774A00082F
:104790004B4A0008BB4A00084D4A0008033F000886
:1047A000093F0008073F0008053F0008674600086A
:1047B00065460008B73E0008B53E0008C14700083E
:1047C00010B5B0B00446B82102A8FBF707FF1B499B
:1047D0002068884230D100204FF48021CDE90210BA
:1047E0004FF44010239002A800F06EFB08B1FCF7D4
:1047F00008FC00F08FF91248016841F00071016077
:10480000006800F00070019000224A201146FFF776
:104810000BFB4A20FFF7FBFA00224B201146FFF763
:1048200003FB4B20FFF7F3FA00224D201146FFF760
:10483000FBFA4D20FFF7EBFA30B010BD000004404A
:10484000D844025810B50023002A19D090F8944497
:10485000012C1DD0012480F8944490F89544012C3B
:1048600018D090F8954484B3D0F8981441F0100112
:10487000C0F898140123002180F89414184610BD44
:10488000D0F8981441F01001C0F89814012010BD20
:10489000022010BD0A2922D2DFE801F02105080B11
:1048A0000E1114181B1EC0F8E424E4E7C0F8E82435
:1048B000E1E7C0F8EC24DEE7C0F8F024DBE7C0F85D
:1048C000F424D8E7C0F8F824D5E710E0C0F8FC24B9
:1048D000D1E7C0F81825CEE7C0F81C25CBE7D0F803
:1048E000981441F01001C0F898140123C3E7082977
:1048F00009D009290AD0D0F8981441F01001C0F865
:1049000098140123B7E7C0F81825B4E7C0F81C25B0
:10491000B1E70022002916D090F89434012B1AD068
:10492000012380F8943490F89534012B15D0D0F8F9
:10493000981441F01001C0F898140122002180F869
:10494000941410467047D0F8981441F01001C0F844
:1049500098140120704702207047C0F80415EDE755
:104960000022002916D090F89434012B1AD001238C
:1049700080F8943490F89534012B15D0D0F8981421
:1049800041F01001C0F898140122002180F894141D
:1049900010467047D0F8981441F01001C0F89814F0
:1049A0000120704702207047C0F80015EDE7002293
:1049B000002916D090F89434012B1AD0012380F8E6
:1049C000943490F89534012B15D0D0F8981441F018
:1049D0001001C0F898140122002180F894141046A8
:1049E0007047D0F8981441F01001C0F898140120D5
:1049F000704702207047C0F80C15EDE7002200292F
:104A000016D090F89434012B1AD0012380F89434F6
:104A100090F89534012B15D0D0F8981441F010017E
:104A2000C0F898140122002180F8941410467047B1
:104A3000D0F8981441F01001C0F898140120704784
:104A400002207047C0F80815EDE7704770477047BF
:104A500010B5044694F8940401280AD0012084F883
:104A600094046174206808F0EEF8002084F894043F
:104A700010BD022010BD704710B50446206894F8A0
:104A80009414012909D0012184F89414C1684906BD
:104A900009D5617B012902D005E0022010BD816BA0
:104AA00041F480318163206807F0F6FF206807F049
:104AB00021FD002084F8940410BD704770B514499E
:104AC0000A68D243520708D5096801F007018142FC
:104AD00001D0012070BD002070BD0A6822F00702DD
:104AE00002430A60FFF7C8F80446094D4FF47A768E
:104AF000083D06E0FFF7C0F8001BB04201D90120D5
:104B000070BD2868C0438004F4D4002070BD00004C
:104B10000C4802580248016841F0807101607047FA
:104B20000C48025810B500F0D5FF05490968054A40
:104B3000C1F30211515C01F01F01C84010BD00001B
:104B400020440258002A010810B569490A6802F099
:104B500003020968C1F30531654B1B1D1B68C3F3D4
:104B60000013634C14342468C4F3CC0414FB03F323
:104B700000EE103AB8EE400A002971D09FED5D1AA0
:104B80005B4BF7EE000A1033F2B39FED5B2A012A6C
:104B90007FD0022A7CD001EE901A1968F8EE611AD3
:104BA000C2EE212AC1F3080101EE901AF8EE611A53
:104BB00040EE011A31EEA00A22EE800A1968C1F314
:104BC000462101EE101AB8EE411A31EE201AC0EE5D
:104BD000011ABCEEE11A80ED001A1968C1F3064112
:104BE00001EE101AB8EE411A31EE201AC0EE011A89
:104BF000BCEEE11A80ED011A1968C1F3066101EEFD
:104C0000101AB8EE411A00E008E071EE200A80EEBA
:104C1000201ABCEEC10A80ED020A10BD344A283ABF
:104C20001468A4061ED51268C2F3C104334AE240D8
:104C300001EE902AF8EE612A01EE901A1968F8EE5A
:104C4000611A82EEA12AC1F3080101EE901AF8EE72
:104C5000611A40EE011A31EEA00A22EE000AADE719
:104C600041E016E001EE901ADFED252A1968F8EE12
:104C7000611A82EEA12AC1F3080101EE901AF8EE42
:104C8000611A40EE011A31EEA00A22EE000A95E701
:104C900013E001EE901A1968F8EE611AC2EE212AAB
:104CA000C1F3080101EE901AF8EE611A40EE011A04
:104CB00031EEA00A22EE800A80E701EE901ADFEDC5
:104CC000112A1968F8EE611A82EEA12AC1F30801CF
:104CD00001EE901AF8EE611A40EE011A31EEA00AC8
:104CE00022EE000A6AE7002101604160816010BD88
:104CF00028440258000000390024744A0090D00370
:104D00000024744C001BB74B10B569490A6802F0C7
:104D100003020968C1F30551654B1B1D1B68C3F3F2
:104D20000023634C1C342468C4F3CC0414FB03F349
:104D300000EE103AB8EE400A002971D09FED5D1ADE
:104D40005B4BF7EE000A1833F2B39FED5B2A012AA2
:104D50007FD0022A7CD001EE901A1968F8EE611A11
:104D6000C2EE212AC1F3080101EE901AF8EE611A91
:104D700040EE011A31EEA00A22EE800A1968C1F352
:104D8000462101EE101AB8EE411A31EE201AC0EE9B
:104D9000011ABCEEE11A80ED001A1968C1F3064150
:104DA00001EE101AB8EE411A31EE201AC0EE011AC7
:104DB000BCEEE11A80ED011A1968C1F3066101EE3B
:104DC000101AB8EE411A00E008E071EE200A80EEF9
:104DD000201ABCEEC10A80ED020A10BD344A283AFE
:104DE0001468A4061ED51268C2F3C104334AE24017
:104DF00001EE902AF8EE612A01EE901A1968F8EE99
:104E0000611A82EEA12AC1F3080101EE901AF8EEB0
:104E1000611A40EE011A31EEA00A22EE000AADE757
:104E200041E016E001EE901ADFED252A1968F8EE50
:104E3000611A82EEA12AC1F3080101EE901AF8EE80
:104E4000611A40EE011A31EEA00A22EE000A95E73F
:104E500013E001EE901A1968F8EE611AC2EE212AE9
:104E6000C1F3080101EE901AF8EE611A40EE011A42
:104E700031EEA00A22EE800A80E701EE901ADFED03
:104E8000112A1968F8EE611A82EEA12AC1F308010D
:104E900001EE901AF8EE611A40EE011A31EEA00A06
:104EA00022EE000A6AE7002101604160816010BDC6
:104EB00028440258000000390024744A0090D003AE
:104EC0000024744C001BB74B2DE9FC5F0446002501
:104ED0000026F94F2068DFF8E493C043010104F194
:104EE0000800019004F1280000900DD4606EB8B164
:104EF000B0F5801F19D0B0F5001F1CD0B0F5401FD1
:104F000000D00125EDB12E462088C043C00535D420
:104F1000A06D05282FD2DFE800F01D22282F2F00DA
:104F2000386840F400303860ECE70198022104F062
:104F300027FD0546E6E70098022104F0B3FD05468B
:104F4000E0E7D9F80000616E20F440100843C9F88A
:104F50000000D9E7386840F4003038600CE0019870
:104F6000002104F00DFD054606E00098002104F044
:104F700099FD054600E00125A5B12E462088DFF801
:104F80004083C04340051FD4D4F8A400B0F5C00F3F
:104F900018D010DC50B3B0F5001F2CD0B0F5800F46
:104FA0000FD12EE0D9F80000A16D20F007000843D2
:104FB000C9F80000E2E7B0F5000F03D0B0F5200F0C
:104FC00000D001251DB32E462088C043000531D4F2
:104FD000D4F8A800B0F1407F2AD022DCF0B3B0F1C1
:104FE000807F4BD0B0F1007F21D14DE0386840F494
:104FF00000303860E6E70198002104F0C1FC054666
:10500000E0E70098002104F04DFD0546DAE7D8F806
:105010000000D4F8A41020F460000843C8F8000091
:10502000D2E7B0F1806F03D0B0F1A06F00D00125BE
:1050300085B32E462068C04380010AD4E06C30B1AD
:10504000102832D0202836D0302800D001258DB34A
:105050002E462088C043C00446D400E009E0E06D3D
:10506000B0F5005F5CD036DCA0B3B0F5805F38D11E
:1050700050E0386840F400303860D9E701980021EA
:1050800004F07EFC0546D3E70098002104F00AFDF9
:105090000546CDE7FFE7D8F80000D4F8A81020F0C7
:1050A000E0600843C8F80000C4E7386840F4003006
:1050B0003860CCE705E00198022104F061FC054668
:1050C000C5E77E48001F0168E26C21F03001114302
:1050D0000160BEE719E0B0F5405F03D0B0F5804F46
:1050E00000D0012515B32E462088C04380042FD45C
:1050F000206EB0F5403F29D021DC38B3B0F5803FB9
:1051000038D0B0F5003F20D13AE0386840F40030A4
:105110003860E7E70198002104F032FC0546E1E73A
:105120000098002104F0BEFC0546DBE7D9F800003A
:10513000E16D20F4E0400843C9F80000D4E7B0F581
:10514000802F03D0B0F5A02F00D00125F5B12E4659
:105150002088C04340042BD4D4F8AC00B0F1405FA9
:1051600024D01CDC10B3B0F1805F4FD0B0F1005FF1
:105170001BD152E00198012104F002FC0546E5E74D
:105180000098012104F08EFC0546DFE7D9F8000005
:10519000216E20F4E0200843C9F80000D8E7B0F100
:1051A000804F03D0B0F1A04F00D00125A5B32E460B
:1051B0002088C04300040AD4E06E30B1B0F1805FB3
:1051C0003DD0B0F1005F3FD00125B5B32E46206839
:1051D000C043C0010AD4A06C30B1012843D00228DA
:1051E00046D0032800D0012545B32E462068C04391
:1051F00040025AD4DFF8CCB0DBF8000040F48070F5
:10520000CBF80000FEF738FD824648E00198012106
:1052100004F0B6FB0546C9E705E00098012104F05B
:1052200041FC0546C2E7D8F80000D4F8AC1020F0E5
:10523000E0400843C8F80000BAE70BE01EE0386819
:1052400040F400303860C0E70198012104F098FB79
:105250000546BAE7D9F80000E16E20F04050084357
:10526000C9F80000B3E7386840F400303860BBE7A5
:105270000198022104F084FB0546B5E70F48001FA2
:105280000168A26C21F0030111430160AEE7FEF753
:10529000F3FCA0EB0A00642801D9032503E0DBF846
:1052A0000000C005F3D58DB12E462078DFF818A098
:1052B000C043C00763D073E02C44025850440258E6
:1052C000584402580048025854440258DFF850B479
:1052D000DBF80000B4F8B01000F4407001F4407145
:1052E000884211D0DBF8000020F44070DBF8001099
:1052F00041F48031CBF80010DBF8001021F480314C
:10530000CBF80010CBF80000D4F8B000B0F5807FE7
:1053100011D1FEF7B1FC824609E0FEF7ADFCA0EB2F
:105320000A0141F28830814201D9032503E0DBF80C
:1053300000008007F1D50DB12E46B6E7D4F8B000D5
:10534000C0F3012103290FD0F5486038016821F42A
:105350007C510160DBF80000B4F8B010C1F30B0120
:105360000843CBF80000A0E7ED4960390A68ED4B2F
:1053700022F47C52184042EA10100860EAE7A06F5D
:1053800018280BD005DC48B1082815D0102804D106
:1053900018E0202802D0282800D00125C5B12E46CB
:1053A0002078C04380072BD4606F062825D2DFE821
:1053B00000F025181E2525250198012104F0E0FAAA
:1053C0000546EBE70098012104F06CFB0546E5E794
:1053D000DAF80000A16F20F038000843CAF8000096
:1053E000DEE70198012104F0CBFA054606E00098BB
:1053F000012104F057FB054600E001256DB12E4662
:105400002078C043400720D4D4F89000062819D251
:10541000DFE800F0190C12191919DAF80000616FB1
:1054200020F007000843CAF80000E9E701980121CD
:1054300004F0A6FA054606E00098012104F032FBCC
:10544000054600E0012595B12E462078C043800630
:1054500020D4D4F88C00B0F1405F19D011DCB8B181
:10546000B0F1805F28D0B0F1005F10D12AE0D8F809
:105470000000D4F8901020F007000843C8F800009E
:10548000E3E7B0F1804F03D0B0F1A04F00D0012589
:10549000F5B12E462078C04340062CD4D4F89800AD
:1054A000B0F5406F25D01DDC18B3B0F5806F34D057
:1054B000B0F5006F1CD136E00198002104F060FACD
:1054C0000546E5E70098022104F0ECFA0546DFE71F
:1054D000DAF80000D4F88C1020F0E0400843CAF855
:1054E0000000D7E7B0F5805F03D0B0F5A05F00D033
:1054F0000125F5B12E462078C04300062CD4D4F8FF
:105500009C00B0F5C04F25D01DDC18B3B0F5005F8E
:105510002CD0B0F5804F1CD12EE00198002104F072
:105520002FFA0546E5E70098022104F0BBFA05468C
:10553000DFE7D8F80000D4F8981020F4E0500843D2
:10554000C8F80000D7E7B0F5004F03D0B0F5204F02
:1055500000D00125B5B12E462078C04300072AD4DB
:10556000D4F88000B0F5805F16D01BE001980021D0
:1055700004F006FA0546EDE70098022104F092FADD
:105580000546E7E7D8F80000D4F89C1020F4604006
:105590000843C8F80000DFE70098022104F082FA0F
:1055A00000B10126DAF80000D4F8801020F4405051
:1055B0000843CAF800002078C043C00613D4D4F8CA
:1055C0009400B0F5807F05D10098022104F06AFABA
:1055D00000B10126D8F80000D4F8941020F44070EF
:1055E0000843C8F800002068C04300030BD4D4F877
:1055F000A000E8B3B0F5803F7DD0B0F5003F00D00B
:105600000125B5B32E462068C04340030DD4D4F81D
:105610008400B0F5801F70D0B0F5001F6ED0B0F5DB
:10562000401F00D001252DB32E462068C043C00383
:1056300007D4206DF0B3B0F5803F75D00125D5B308
:105640002E462068C043800005D40098022104F053
:1056500029FA00B101262068C043800311D4E06F0D
:1056600068B1B0F5807F76D0B0F5007F07D002E05A
:105670005BE066E07BE0B0F5407F00D00125DDB364
:105680002E462068C043C00207D4D9F80000216F1D
:1056900020F000400843C9F800002068C0438002A1
:1056A00007D4D9F80000A16E20F080700843C9F833
:1056B000000001E065E06FE02068C04340000AD4CC
:1056C00017486038016821F4004101600168D4F88E
:1056D000B420114301602068C04307D41048243827
:1056E0000168626D21F04051114301602068C043A0
:1056F00000020DD403E01EE05BE02DE031E0DAF8BB
:105700000000D4F8881020F440000843CAF80000D4
:1057100020790025C04300F00100284352D057E013
:1057200070440258FFFCFF0F30E00198002104F0A4
:1057300027F9054665E70098022104F0B3F905460C
:105740005FE7D8F80000D4F8A01020F440300843F8
:10575000C8F8000057E727E0386840F400303860A8
:1057600061E70098012104F09DF905465BE7DAF84E
:105770000000D4F8841020F440100843CAF8000058
:1057800053E7386840F40030386058E70198022148
:1057900004F0F6F8054652E72E480168226D21F420
:1057A0008031114301604CE7386840F400303860C4
:1057B00065E7DAF80000E16F20F440700843CAF8AA
:1057C00000005EE70198002104F0DAF800B1064617
:1057D0002079C04300F00200284305D1019801213F
:1057E00004F0CEF800B106462079C04300F0040072
:1057F000284305D10198022104F0C2F800B1064601
:105800002079C04300F00800284305D1009800210A
:1058100004F048F900B106462079C04300F01000BA
:10582000284305D10098012104F03CF900B1064657
:105830002079C04300F02000054305D100980221E3
:1058400004F030F900B1064616B10120BDE8FC9F16
:105850000020FBE74C4402582DE9F05F04460D465A
:10586000002C17D0DFF84C82D8F8000000F00F00B1
:10587000A84211D2D8F8000020F00F002843C8F841
:105880000000D8F8000000F00F00A84204D001206A
:10589000BDE8F09F0120FBE72078874E40070AD53E
:1058A0002069316801F07001884204D9316821F023
:1058B0007001014331602078804F00070AD560698C
:1058C000396801F07001884204D9396821F070010B
:1058D000014339602078C0060AD5A069396801F40F
:1058E000E061884204D9396821F4E06101433960FC
:1058F0002078DFF8CC9180060DD5E069D9F800104A
:1059000001F07001884206D9D9F8001021F0700129
:105910000143C9F80010207880070AD5E068316893
:1059200001F00F01884204D9316821F00F010143D1
:1059300031602078C00743D03068A16820F47060DF
:10594000084330605C4960681839022808D0032891
:105950000BD001280ED00968490710D4012097E721
:10596000096889030BD4012092E70968890106D4EC
:1059700001208DE70968C90501D4012088E7DFF817
:1059800038A1AAF1080ADAF8001021F00701014352
:10599000CAF80010FEF770F9834609E0FEF76CF9CB
:1059A000A0EB0B0141F28830814201D903206FE75F
:1059B000DAF80000616800F03800B0EBC10FEDD1FB
:1059C000207880070AD5E068316801F00F0188422D
:1059D00004D2316821F00F0101433160D8F8000092
:1059E00000F00F00A8420ED9D8F8000020F00F00F8
:1059F0002843C8F80000D8F8000000F00F00A842C3
:105A000001D0012044E7207840070AD52069316899
:105A100001F07001884204D2316821F07001014325
:105A20003160207800070AD56069396801F070019B
:105A3000884204D2396821F070010143396020782E
:105A4000C0060AD5A069396801F4E061884204D231
:105A5000396821F4E06101433960207880060DD572
:105A6000E069D9F8001001F07001884206D2D9F837
:105A7000001021F070010143C9F8001000F070F827
:105A80003168C1F303220F498A5C02F01F02D04043
:105A9000326802F00F02895C0B4A01F01F0120FA04
:105AA00001F111600949086009480068BDE8F05F2C
:105AB000FEF71EB900200052184402581C44025838
:105AC00020440258002A0108880000248400002491
:105AD0007C00002400B500F043F80B490A68C2F3CB
