:020000040800F2
:10000000081D00206D020008D7430008753D000858
:10001000D543000821080008854E000800000000B4
:10002000000000000000000000000000A1460008E1
:10003000FF09000800000000D9430008A34600089B
:10004000870200088702000887020008870200086C
:100050008702000887020008010A000887020008DA
:100060008702000887020008070A000887020008C4
:10007000E5080008870200088702000887020008D8
:100080008702000887020008870200083D08000870
:100090002508000831080008870200080D0A00083A
:1000A000870200088702000887020008870200080C
:1000B00087020008870200088702000887020008FC
:1000C00087020008870200088702000887020008EC
:1000D00087020008614E0008870200086D4E000884
:1000E00087020008870200088702000887020008CC
:1000F00087020008870200088702000887020008BC
:1001000087020008870200088702000887020008AB
:10011000870200088702000887020008B946000825
:10012000F108000887020008FD0800080909000816
:1001300087020008870200088702000855080008A7
:1001400049080008870200088702000887020008A3
:10015000870200088702000887020008794E00081D
:10016000870200088702000887020008870200084B
:1001700087020008870200088702000800000000CC
:10018000870200088702000800F002F800F05EF81D
:100190000AA090E8000C82448344AAF10107DA45E2
:1001A00001D100F053F8AFF2090EBAE80F0013F0D6
:1001B000010F18BFFB1A43F001031847848E00009B
:1001C000A48E00000A444FF0000C10F8013B13F01D
:1001D000070408BF10F8014B1D1108BF10F8015BA0
:1001E000641E05D010F8016B641E01F8016BF9D193
:1001F00013F0080F1EBF10F8014BAD1C0C1B09D1EA
:100200006D1E58BF01F801CBFAD505E014F8016B5B
:1002100001F8016B6D1EF9D59142D6D370470000ED
:100220000023002400250026103A28BF78C1FBD8FF
:10023000520728BF30C148BF0B6070471FB508F098
:100240003AFE00F0F3F81FBD10B510BD00F046F9FE
:100250001146FFF7F3FF08F0E5F800F064F903B486
:10026000FFF7F2FF03BC00F067F900000948804780
:1002700009480047FEE7FEE7FEE7FEE7FEE7FEE788
:10028000FEE7FEE7FEE7FEE704480549054A064BA0
:1002900070470000A94600088901000808170020DF
:1002A000081D0020081900200819002053EA020C3C
:1002B00000F069802DE9F04B4FF00006002B1FBFC6
:1002C000B3FA83F503FA05F424FA05F65E4012BF8B
:1002D0001643B2FA82F502FA05F4C5F120051EBFF5
:1002E00022FA05FC44EA0C04203556EA044C4FEA95
:1002F000144418BF641C4FF000084FF000099042EE
:1003000071EB030C39D3002919BFB1FA81F701FA57
:1003100007F6B0FA80F700FA07F6C7F120071EBF0C
:1003200020FA07FC46EA0C062037B6FBF4FCA7EBE4
:100330000507103F07F01F0BCBF120060CFA0BFB53
:100340002CFA06F644BFB3460026202FA4BF5E4613
:100350004FF0000B5BEA060C08BF4FF0010B19EBE6
:100360000B09ABFB027C48EB0608C01B06FB02CC6A
:100370000BFB03CC71EB0C01C1E70B460246414677
:100380004846BDE8F08B13B54FF000004FF0000178
:10039000AFF30080BDE81C407047032A40F2308074
:1003A00010F0030C00F0158011F8013BBCF1020FB6
:1003B000624498BF11F801CB00F8013B38BF11F837
:1003C000013BA2F1040298BF00F801CB38BF00F84E
:1003D000013B11F0030300F04680083AC0F00880AA
:1003E00051F8043B083A51F804CBA0E80810F5E7AF
:1003F000121D5CBF51F8043B40F8043BAFF3008092
:10040000D20724BF11F8013B11F801CB48BF11F806
:10041000012B24BF00F8013B00F801CB48BF00F8D6
:10042000012B7047704770477047000070B5064C4D
:100430007C44064D7D4403E0206820448047241D11
:10044000AC42F9D170BD00002C8C00002C8C000057
:1004500010B500F03BF8006810BD10B5044600F080
:1004600035F8046010BD10B5203AC0F00B80B1E83B
:100470001850203AA0E81850B1E81850A0E81850D9
:10048000BFF4F5AF5FEA027C24BFB1E81850A0E8E2
:10049000185044BF18C918C0BDE810405FEA827CFC
:1004A00024BF51F8043B40F8043B08BF7047D20713
:1004B00028BF31F8023B48BF11F8012B28BF20F8B4
:1004C000023B48BF00F8012B70470000004870470E
:1004D000A416002000487047A41600207546FFF7B8
:1004E000F9FFAE4605006946534620F007008546F1
:1004F00018B020B5FFF7C8FEBDE820404FF0000659
:100500004FF000074FF000084FF0000B21F00701FB
:10051000AC46ACE8C009ACE8C009ACE8C009ACE83E
:10052000C0098D46704710B50446AFF300802046E1
:10053000BDE81040FFF793BE01491820ABBEFEE7AF
:100540002600020070470000B7EE000A80ED000AA6
:100550009FED040A80ED010A80ED020A80ED030A96
:10056000704700000000000000EE101ADFED090ADD
:10057000B8EE400A80EE803AD3ED022A93ED012ACC
:10058000D3ED001A92ED021AD2ED010A92ED000AA3
:1005900003F02ABE00007A4401221021014801F034
:1005A000A1BD00000000024000221021014801F01E
:1005B00099BD00000000024001221146014801F0EF
:1005C00091BD00000004024000220121014801F019
:1005D00089BD0000000402402DE9F04182B07A4F4D
:1005E0000420387007F0CCFC044607F019FD2043C6
:1005F00000287DD17548002680F82C600096019671
:10060000FC3000F11404051D00F1100806226946B3
:10061000122005F005FC9DF801009DF80010000275
:1006200000B2084300EE100AD7ED080AB8EEC00A7F
:1006300020EE200A85ED000A9DF803009DF80210C7
:10064000000200B2014300EE101AF8EEC00A97ED66
:10065000080A60EE800AC5ED010A9DF805009DF8C4
:100660000410000200B2014300EE901AF8EEE00A16
:1006700020EE800A85ED020A08226946002005F076
:1006800073FB9DF800000F2830D19DF803009DF802
:100690000210000200B2084300EE100AD7ED090A6A
:1006A000B8EEC00A20EE200A84ED000A9DF805008D
:1006B0009DF80410000200B2084300EE100AF8EEA4
:1006C000C00A97ED090A60EE800AC4ED010A9DF8A0
:1006D00007009DF80610000200B2084300EE900AE1
:1006E000F8EEE00A20EE800A84ED020A022200E021
:1006F00066E06946222005F093FB9DF800009DF816
:100700000110C00040EA5111B1F5806F02DBA1F584
:10071000006001B200EE101AB4EE001AF8EEC00A42
:10072000B3EE070A00EE810A88ED000A284AA2F516
:100730008471A1F10C0004F013FE9FED261ADFED89
:10074000262AB3EE0E2AB0EE413ADFED241ADFED91
:10075000240A9FED240A244806F084FA23492448F9
:10076000FFF7F2FE2149A1F1180291ED000AA1F173
:10077000240082ED000AA0F10C0380ED000A83ED55
:10078000000A91ED010A82ED010A80ED010A83ED74
:10079000010A91ED020A82ED020A80ED020A83ED60
:1007A000020A14491020C861084602F01FF908B176
:1007B00000F02FF90021104802F0C0FE30463E70D4
:1007C00002B0BDE8F0810000480000204C14002079
:1007D00048150020000000000080894500A08C45DD
:1007E000CDCC4C3E0000C8446C15002040140020C5
:1007F00024010020240200201804002001B582B04A
:100800004FF4FA700090012301AA02A9034802F0F4
:10081000F9F99DF8040003B000BD00002402002097
:10082000FEE70000014800F022BC00005C0100204F
:10083000014800F01CBC00005C010020014800F0F1
:1008400016BC00005C010020014800F010BC000054
:10085000C0010020014800F00ABC0000C0010020D7
:100860002DE9F0411C4C002060701C4D1C4E04F121
:1008700054074FF05508607800EB800101EBC00190
:1008800029440A7912F0800F1ED0D1F80920DAB17C
:1008900057F8200001219047B0B1607800EB80014B
:1008A00001EBC00116F820206A5406EB80024819BB
:1008B000537843709178817080F80380017921F03A
:1008C0008001017104F0CCFD6078401CC0B2607002
:1008D0000428D0D3BDE8F08148000020F0140020A7
:1008E000E28E0008014800F091BF00008806002059
:1008F000014800F08BBF0000A4020020014800F076
:1009000085BF000028060020014800F07FBF0000DE
:100910000403002001680A4BCAB2103AA3FB02325A
:100920001209084B9B5CC365032A04D96FF30901C4
:10093000091D816502E06FF309018165806D7047D3
:10094000ABAAAAAAF28E0008014600208A6A8B6927
:10095000002B0FD0B3F5005F1DD08AB3012A30D031
:10096000022A2ED0032A04D1C96A11F0807F00D058
:10097000012070471AB1012A07D0022AF9D1C96AA9
:1009800011F0807FF5D001207047C96AB1F1C07FB6
:10099000FAD1012070475AB1012A0BD0022A07D0A0
:1009A000032AF7D1C96AB1F1C07FF3D101207047A2
:1009B00001207047C96A11F0807FFAD0012070478A
:1009C000FFE70120704710B4D0F800C0DCF8004009
:1009D00024F48024CCF80040D0F800C0CCF80430D7
:1009E0008368402B05D0036899600068C26010BC22
:1009F000704703689A600068C16010BC7047704718
:100A0000012001F04BBA102001F048BA202001F07B
:100A100045BA72B6FEE700000022002905D0012980
:100A20001AD002291BD04FF440720E490B6823F4F0
:100A300040730B600B681A430A600A6822F0F802E0
:100A40000A600A68022343EAC0001043086008688D
:100A500040F48030086070474FF48072E5E74FF44F
:100A60000072E2E7103C02401448016811F4007F74
:100A70000FD0016821F400710160016841F4006148
:100A80000160016821F400610160016841F40071B6
:100A90000160016811F4806F0FD0016821F480615A
:100AA0000160016841F480510160016821F48051C6
:100AB0000160016841F4806101607047003C0240C0
:100AC00008490A6822F440720A600A6842F0040287
:100AD0000A600A684FF4803343EA0020104308603C
:100AE00070470000103C0240064A136823F440732C
:100AF000136013681360136843F0010313600170FF
:100B000070470000103C02400B49D1F800C02CF4A3
:100B1000407CC1F800C0D1F800C04CF4407CC1F862
:100B200000C0D1F800C04CF0010CC1F800C0026058
:100B3000BFF36F8F43607047103C0240074A136851
:100B400023F440731360136843F4807313601368D5
:100B500043F001031360018070470000103C024025
:100B6000074A136823F440731360136843F4007357
:100B70001360136843F001031360016070470000C5
:100B8000103C02401A49086810F0100F194805D0AF
:100B9000C26942F01002C26110220A600A6812F0B3
:100BA000200F05D0C26942F00802C26120220A600B
:100BB0000A6812F0400F05D0C26942F00402C26117
:100BC00040220A600A6812F0800F05D0C26942F024
:100BD0000202C26180220A600A6812F0020F05D088
:100BE000C26942F02002C261022008607047000022
:100BF0000C3C02408416002070B5044614490020C5
:100C0000C86101F077FA0646124D286810F4803F5B
:100C10000ED0B4F1FF3F07D024B101F06BFA801B76
:100C2000A04201D9032070BD286810F4803FF0D1A4
:100C3000286810F0010F01D001202860286810F00A
:100C4000F20F03D0FFF79EFF012070BD002070BDA2
:100C5000841600200C3C024090F82020012A07D086
:100C6000022A05D0416A41F4802141620120704787
:100C700000684269114341610020704770B490F8E8
:100C80002040D0F800C0DCF808C0012C08D0022CAD
:100C900006D0416A41F48021416270BC0120704756
:100CA0000CF080640CF000652C4302D11CF0805FD6
:100CB0005FD0CCF3016CBCF1020F06D9416A41F45C
:100CC0000001416270BC01207047012404FA0CF459
:100CD0001C608B684FF4C0749BB1CD6804EB0C169C
:100CE0002B434D6843EAC5030568AB514FF4C2730B
:100CF000066803EB0C130D69F550097D012909D035
:100D00000DE00D88CB6804EB0C1643EA45530568EB
:100D1000AB51EBE70168CD5845F48075CD501179A2
:100D2000D379557941EA036193791B0443EA05239A
:100D300019434FF4C675036805EB0C15595111782A
:100D4000D37841EA0361937852781B0443EA022284
:100D500011434FF4C473026803EB0C13D1500168C4
:100D600004EB0C100A5842F001020A5070BC00203B
:100D70007047416A41F40011416270BC0120704724
:100D800090F82020012A07D0022A05D0416A41F4B8
:100D900080214162012070474248D0F8002242F091
:100DA0000102C0F80022D0F8002222F47C52C0F8E0
:100DB0000022D0F800224B6A42EA0322C0F8002247
:100DC0000A7D012302F01F0203FA02F2D0F81C325E
:100DD0009343C0F81C32CB69D3B9D0F80C3293439B
:100DE000C0F80C32B1F80CC04B686CF31F43D1F85B
:100DF00014C000EBCC0CCCF84032B1F808C00B6842
:100E00006CF31F43D1F814C000EBCC0CCCF8443287
:100E1000CB69012B1AD1D0F80C321343C0F80C3235
:100E2000B1F800C04B686CF31F43D1F814C000EB5D
:100E3000CC0CCCF84032B1F808C0CB686CF31F433F
:100E4000D1F814C000EBCC0CCCF844328B697BB1E8
:100E5000D0F804321343C0F804320B6973B1D0F8F0
:100E600014321343C0F81432096A01290CD010E07F
:100E7000D0F804329343C0F80432EEE7D0F81432CD
:100E80009343C0F81432EFE7D0F81C121143C0F8B6
:100E90001C12D0F8001221F00101C0F8001200204D
:100EA000704700000064004090F82020012A07D01D
:100EB000022A05D0416A41F4802141620120704735
:100EC0000068426922EA01014161002070477047D1
:100ED00010B490F820C0BCF1010F09D0BCF1020F92
:100EE00006D0416A41F48021416210BC0120704764
:100EF00039B1D0F800C0DCF810C01CF0030F7DD071
:100F000006E0D0F800C0DCF80CC01CF0030F7BD06A
:100F10004FF4D87C04680CEB011C54F80C4004F02E
:100F200004049460002C7DD0046854F80C40E4085C
:100F30005460046854F80CC00CF0020CC2F80CC0E9
:100F40004FF4DA7C04680CEB011C54F80C4004F0FC
:100F50000F041461046854F80C40C4F3072494612E
:100F6000046854F80CC04FEA1C4CC2F814C04FF48B
:100F7000DC72D0F800C002EB01125CF802C083F80A
:100F800000C0D0F800C05CF802C04FEA1C2C83F807
:100F900001C0D0F800C05CF802C04FEA1C4C83F8D6
:100FA00002C0D0F800C05CF80220120EDA704FF4D4
:100FB000DE72D0F800C002EB01125CF802C083F8C8
:100FC00004C0D0F800C05CF802C04FEA1C2C83F8C3
:100FD00005C0D0F800C05CF802C04FEA1C4C83F892
:100FE00006C0D0F800C05CF80220120EDA71F9B128
:100FF0000068016941F02001016102E00BE003E0BB
:1010000010E010BC00207047416A41F400114162B9
:1010100010BC01207047416A41F40011416210BCCC
:1010200001207047046854F80C40640D146080E798
:101030000068C16841F02001C160DEE7024600207F
:1010400092F82010012901D002290FD111688A6875
:1010500012F0806F00D001208A6812F0006F00D07B
:10106000401C896811F0805F00D0401C70472DE95A
:10107000F05F0546002428684669D0F80490876828
:10108000D0F80CA0D0F810B0D0F8188016F0010FEE
:1010900054D017F0010F17D00121816017F0020F13
:1010A00003D0A96A284688470EE017F0040F02D043
:1010B0004FF4006408E017F0080F02D04FF480549A
:1010C00002E0696B2846884717F4807F19D02968A9
:1010D0004FF48070886017F4007F03D0E96A2846D7
:1010E00088470EE017F4806F02D044F4005408E003
:1010F00017F4006F02D044F4804402E0A96B284644
:10110000884717F4803F19D029684FF480308860F1
:1011100017F4003F03D0296B284688470EE017F4E8
:10112000802F02D044F4004408E017F4002F02D0CE
:1011300044F4803402E0E96B2846884716F0080F33
:101140004FF0100706D01AF0100F03D044F40074CB
:101150002868C76016F0040F08D01AF0080F05D0F1
:1011600029680820C860696C2846884716F0020F75
:1011700007D02868C06810F0030F02D0296C2846F9
:10118000884716F0400F06D01BF0100F03D044F430
:1011900080642868076116F0200F08D01BF0080F44
:1011A00005D0296808200861E96C2846884716F0B0
:1011B000100F07D02868006910F0030F02D0A96C47
:1011C0002846884716F4003F07D019F0100F04D0C6
:1011D00028684760296D2846884716F4803F08D064
:1011E00019F0080F05D0296808204860696D284665
:1011F000884716F4004F4AD019F0040F44D016F473
:10120000807F04D018F0010F01D044F0010416F4DF
:10121000007F04D018F0020F01D044F0020416F44D
:10122000806F04D018F0040F01D044F0040416F4C9
:10123000006F29D018F0700F26D008F070004028F9
:1012400015D006DC102809D020280AD0302816D165
:101250000AE050280ED0602811D10EE044F00804B6
:101260000DE044F010040AE044F0200407E044F0EC
:10127000400404E044F0800401E044F480742868F1
:10128000816921F070018161296804204860002C87
:1012900007D0686A204368622846A96DBDE8F05F00
:1012A0000847BDE8F09F000070B50446002C03D04D
:1012B00094F8200010B122E0012070BD6348206442
:1012C000634860646348A0646348E0646348A06264
:1012D0006348E06263482063634860636348A063D7
:1012E0006348E06363482065634860656348A065C0
:1012F000E06D08B96248E065E16D204688472068E6
:10130000016841F00101016000F0F4FE054620682B
:1013100040684FF0050610F0010F11D100F0EAFE11
:10132000401B0A2807D9606A40F40030606284F8E4
:101330002060012070BD2068406810F0010FEDD0E2
:101340002068016821F00201016000F0D3FE05462B
:101350002068406810F0020F11D000F0CBFE401B57
:101360000A2807D9606A40F40030606284F820607F
:10137000012070BD2068406810F0020FEDD1207E82
:1013800001283FD02068016821F080010160607E63
:1013900001283DD02068016821F040010160A07E55
:1013A00001283BD02068016821F020010160E07E27
:1013B000012839D02068016841F010010160207FC8
:1013C000012837D02068016821F008010160607FA2
:1013D000012835D02068016821F004010160E1682E
:1013E000A068626908432169114308436168491E86
:1013F00008432168C86100206062012084F8200051
:10140000002070BD2068016841F080010160BEE7E6
:101410002068016841F040010160C0E72068016870
:1014200041F020010160C2E72068016821F010014D
:101430000160C4E72068016841F008010160C6E767
:101440002068016841F004010160C8E763160008E4
:10145000611600086716000865160008D116000816
:10146000D5160008D9160008CF160008D3160008B4
:10147000D716000869160008DB160008CF0E000812
:1014800085140008F0B587B0002102910391049102
:1014900005910691414E0168414B306802240925AF
:1014A000401C404AA1F180474FF0030CB7F5C847F4
:1014B00010D0A1F18047B7F5D04740D1116841F075
:1014C00080611160116801F0806101913060012834
:1014D00037D03EE03060012807D1106840F000703E
:1014E0001060106800F000700190186840F008006B
:1014F0001860186800F008000190CDF808C0039447
:10150000CDF814C0069502A9274800F0D3FC0022AC
:101510001146132000F072FE132000F061FE00223D
:101520001146142000F06AFE142000F059FE00223B
:101530001146152000F062FE152000F051FE07B0A4
:10154000F0BD106840F000701060106800F000708E
:101550000190186840F002001860186800F002005E
:101560000190602002900394CDF814C0069502A962
:101570000E4800F09FFC002211463F2000F03EFE86
:101580003F2000F02DFE00221146402000F036FEE4
:10159000402000F025FE07B0F0BD00000000002054
:1015A0003038024040380240000C02400004024043
:1015B0000023002A10D090F820C0BCF1010F11D0F8
:1015C00090F820C0BCF1000F3CD0416A41F480018A
:1015D0004162012318467047416A41F4800141622B
:1015E000012070470F2927D2DFE801F0080A0C0E0E
:1015F00010121416181A1C1E202224008262E9E719
:10160000C262E7E70263E5E74263E3E78263E1E79B
:10161000C263DFE70264DDE74264DBE78264D9E7A7
:10162000C264D7E70265D5E74265D3E78265D1E7B3
:10163000C265CFE70266CDE7416A41F480014162AD
:101640000123C7E70D2907D00E2907D0416A41F4CD
:10165000800141620123BDE7C265BBE70266B9E7CD
:101660007047704770477047704770B5044694F8EC
:101670002000012805D0606A40F40020606201204B
:1016800070BD022084F820002068016821F001016B
:10169000016000F02FFD05462068406810F0010F42
:1016A00012D000F027FD401B0A2808D9606A40F4D8
:1016B00000306062052084F82000012070BD2068A1
:1016C000406810F0010FECD10020606270BD7047DF
:1016D0007047704770477047704770472DE9F04179
:1016E0000446A66D00F006FD054694F83500002777
:1016F000022806D08020606584F834700120BDE89F
:10170000F0812068016821F01601016020684169BC
:1017100021F080014161206C08B9A06C20B12068E3
:10172000016821F0080101602068016821F00101D1
:1017300001602068006810F0010F12D000F0DAFCA0
:10174000401B052808D920206065032084F8350057
:1017500084F83470BDE8F0812068006810F0010F53
:10176000ECD194F85C003F2101FA00F0B060012058
:1017700084F8350084F834700020BDE8F08190F8DA
:101780003510022903D080214165012070470521D1
:1017900080F835100068016821F001010160002027
:1017A000704770B50446002C2CD094F83500022800
:1017B0002AD02068016821F001010160206800251D
:1017C000056020684560206885602068C5602068E5
:1017D00005612168212048612046FFF79BF8E563F9
:1017E00025646564A564E564256594F85C103F2272
:1017F00002FA01F18160656584F8355084F834504F
:10180000002070BD012070BD022070BD2DE9F8439D
:1018100004464FF00008CDF8008076484FF416518A
:101820000068B0FBF1F7A56D2E6894F85C00082104
:1018300001FA00F0304211D02068026812F0040F63
:101840000CD0026822F00402026094F85C0001FAF5
:1018500000F0A860606D40F00100606594F85C00E5
:101860004FF0010909FA00F0304209D021684969B6
:1018700011F0800F04D0A860606D40F00200606538
:1018800094F85C1004208840304209D0216809682F
:1018900011F0020F04D0A860606D40F00400606594
:1018A00094F85C1010208840304224D021680968E8
:1018B00011F0080F1FD0A8602068016811F4802F74
:1018C0000DD0006810F4002F04D0A16C99B120460F
:1018D000884710E0216C71B1204688470BE0016811
:1018E00011F4807F03D1016821F008010160216CAF
:1018F00009B12046884794F85C1020208840304287
:1019000051D02168096811F0100F4CD0A86094F8EC
:10191000350005280DD02068016811F4802F32D0E1
:10192000006810F4002F29D0E16B59B32046884796
:1019300039E02068016821F01601016020684169E2
:1019400021F080014161206C08B9A06C20B12068B1
:10195000016821F00801016094F85C003F2101FA60
:1019600000F0A86084F8359084F83480216D002957
:101970003ED001B02046BDE8F0430847616C09B194
:10198000204688470FE0016811F4807F07D1016885
:1019900021F01001016084F8359084F83480E16B07
:1019A00009B120468847606D002821D0606D10F095
:1019B000010F15D0052084F835002068016821F05A
:1019C000010101600098401C0090B84204D82068D2
:1019D000006810F0010FF5D184F8359084F8348058
:1019E000E16C002904D001B02046BDE8F04308476F
:1019F000BDE8F883040000202DE9F041044600F022
:101A000079FB0546DCB1022084F83500002684F815
:101A100034602068016821F00101016020680068DD
:101A200010F0010F13D000F065FB401B052809D909
:101A300020206065032084F83500BDE8F081012096
:101A4000BDE8F0812068006810F0010FEBD121683B
:101A50000868234A1040A3686268D4F810C01A438B
:101A6000E36843EA0C031A4363691A43A3691A4300
:101A7000E3691A43236A1A431043626A042A03D1B2
:101A8000236BE26A1A43104308602068406920F023
:101A90000701606A40EA0105012704280ED1A06A07
:101AA0000543E06A50B12046FEF74EFF30B14020BA
:101AB000606584F835700120BDE8F08120684561DB
:101AC0002046FEF727FF94F85C103F2202FA01F14E
:101AD0008160666584F835700020BDE8F081000003
:101AE0003F8010F070B504460025A66D94F83400D0
:101AF00001280DD0012084F8340094F835C000206E
:101B0000BCF1010F06D084F834000225284670BDD0
:101B1000022070BD4FF0020C84F835C0606520468D
:101B2000FEF751FF94F85C003F2101FA00F0B0602D
:101B30002068016841F016010160206C20B1206826
:101B4000016841F0080101602068016841F001016D
:101B50000160DBE770B5044600F0CCFA0546B4F14D
:101B6000FF3F02D004480078044400F0C3FA401B51
:101B7000A042FAD370BD0000500100202DE9F041D1
:101B800004460F46DFF8988098F8180001280AD01C
:101B9000012088F818004CF25030FFF72DF802466B
:101BA000100003D035E00220BDE8F0814FF0FF3097
:101BB000386020681B4E012815D0A568E0682844CD
:101BC000A84224D9217C2846FEF726FF4CF250304B
:101BD000FFF712F80246306820F0FA00306010007B
:101BE0000FD03D6013E0207C6168FEF769FF4CF286
:101BF0005030FFF701F80246306820F004003060F2
:101C000005E06D1CA168E0680844A842DAD8FEF738
:101C10002BFF002088F818001046BDE8F081000076
:101C200084160020103C02400348016841F0004146
:101C30000160002070470000103C02402DE9F04197
:101C40000646884614461D461A4F387E012807D09E
:101C5000012038764CF25030FEF7CEFF18B115E077
:101C60000220BDE8F081AEB1012E18D0022E1BD0AB
:101C700022462B464046FEF747FF4CF25030FEF717
:101C8000BBFF0D490A6822F001020A600021397683
:101C9000BDE8F081E1B24046FEF726FFEDE7A1B2D4
:101CA0004046FEF74BFFE8E721464046FEF758FF67
:101CB000E3E7000084160020103C024000200849A1
:101CC0000A6812F0004F09D0074A064B1360074B11
:101CD0001360096811F0004F00D001207047000028
:101CE000103C024023016745043C0240AB89EFCD24
:101CF0002DE9F04F0023DFF84091DFF838E109F1DA
:101D0000040A4FF00F08012202FA03F601EA060C5A
:101D1000B4457AD123F0030202F1804404F59834EB
:101D2000D4F808289D072F0F08FA07F505EA020BDB
:101D3000704501D1002223E0A0F18042B2F50132CA
:101D400069D0A0F18042B2F5023266D0A0F18042A3
:101D5000B2F5033263D0A0F18042B2F5043260D014
:101D6000A0F18042B2F505325DD0A0F18042B2F51B
:101D700006325AD0A0F18042B2F5073257D008227D
:101D8000BA405A451AD12D4F3A6822EA0C023A60FD
:101D90003F1D3A6822EA0C023A60D9F8002022EA94
:101DA0000C02C9F80020DAF8002022EA0C02CAF876
:101DB0000020D4F80828AA43C4F80828D0F800C0A6
:101DC0005C000322A2402CEA020CC0F800C04FEADB
:101DD000D30C00EB8C0CDCF820405D07ED0E08FA0C
:101DE00005F5AC43CCF82040D0F80CC02CEA020C2E
:101DF000C0F80CC0D0F804C02CEA060CC0F804C02F
:101E0000D0F808C02CEA020282605B1C102BFFF4A1
:101E10007AAFBDE8F08F0122B2E70222B0E70322D9
:101E2000AEE70422ACE70522AAE70622A8E70722CC
:101E3000A6E7000000000240083C0140003C0140D1
:101E400010B50446204601F096FF1349087804288F
:101E500021D0102C07D0202C13D0012C1BD1BDE891
:101E6000104003F047BCCA7842F00102CA700A79F8
:101E700042F001020A7100280DD1BDE8104003F0C4
:101E800027BB4A7942F001024A71002803D1BDE81C
:101E9000104003F01DBB10BD4800002010B50449E0
:101EA0000A68024202D00860FFF7CAFF10BD0000B6
:101EB000143C01402DE9F84F0022DFF81492DFF8BE
:101EC00014A2DFF814B24FF0010E03274FF00F08F1
:101ED0000EFA02FC0B6803EA0C0363457DD10C7912
:101EE00004F00304012C01D0022C14D185685400A5
:101EF00007FA04F6B543CE6806FA04F42C4384606E
:101F0000446824EA0C0C0C79C4F30014944044EAAD
:101F10000C0CC0F804C0D1F804C037EA0C0C0CD08B
:101F2000C4684FEA420C07FA0CF5AC438D6805FA19
:101F30000CFC4CEA040CC0F80CC091F804C00CF086
:101F4000030CBCF1020F12D14FEAD20C00EB8C044F
:101F5000256A4FEA427C4FEADC6C08FA0CF6B5437E
:101F60000E6906FA0CFC4CEA050CC4F820C00468A3
:101F70004FEA420C07FA0CF5AC430D7905F0030566
:101F800005FA0CFC4CEA040CC0F800C0D1F804C0FF
:101F90001CF4403F7DD0D9F800C04CF4804CC9F807
:101FA00000C0D9F800C00CF4804CCDF800C022F07D
:101FB000030C0CF1804505F59835D5F808C8940751
:101FC000240F08FA04F62CEA0606A0F1804CBCF5B2
:101FD000003C64D0A0F1804C00E05AE0BCF5013C2C
:101FE00060D0A0F1804CBCF5023C5ED0A0F1804CEA
:101FF000BCF5033C5CD0A0F1804CBCF5043C5AD04D
:10200000A0F1804CBCF5053C58D0A0F1804CBCF54B
:10201000063C56D0A0F1804CBCF5073C54D04FF0A4
:10202000080C0CFA04FC4CEA060CC5F808C8DAF8EF
:1020300000C02CEA030C4C6814F4803F01D04CEA39
:10204000030CCAF800C0254CD4F800C02CEA030CDD
:102050004D6815F4003F01D04CEA030CC4F800C0F1
:10206000DBF800C02CEA030C4C6814F4801F01D08C
:102070004CEA030CCBF800C0194CD4F800C02CEA91
:10208000030C4D6815F4001F01D04CEA030CC4F892
:1020900000C0521C102AFFF41BAFBDE8F88F4FF0B0
:1020A000000CBEE74FF0010CBBE74FF0020CB8E7A5
:1020B0004FF0030CB5E74FF0040CB2E74FF0050CFE
:1020C000AFE74FF0060CACE74FF0070CA9E70000B4
:1020D00044380240003C0140083C0140043C0140BF
:1020E0000C3C0140002A01D08161704709048161E4
:1020F00070470000014880687047000050010020D0
:1021000002488168027811448160704750010020C4
:1021100010B50B48016841F400710160016841F499
:1021200080610160016841F480710160032000F06A
:1021300099F80F2000F006F800F026F8002010BDF6
:10214000003C024070B504460D4D4FF47A7128787A
:10215000B1FBF0F00B490968B1FBF0F000F040FF73
:1021600008B1012070BD102C07D200222146501E5C
:1021700000F044F86C60002070BD012070BD0000CC
:10218000500100200400002081B00A48016841F499
:1021900080410160006800F48040009006480168BA
:1021A00041F080510160006800F08050009001B063
:1021B00070470000443802404038024000280EDBDF
:1021C00000F01F01012202FA01F14009800000F134
:1021D000E020C0F88011BFF34F8FBFF36F8F7047BF
:1021E00000280ADB00F01F01012202FA01F1400978
:1021F000800000F1E020C0F80011704710B4184BC7
:102200001B68C3F30223C3F1070CBCF1040F01D90F
:102210004FF0040C1C1D072C01D2002300E0DB1E34
:10222000012404FA0CFCACF1010C0CEA0101994008
:1022300004FA03F35B1E1A401143002806DB00F189
:10224000E020090180F8001410BC704700F00F0076
:1022500000F1E020090180F8141D10BC7047000057
:102260000CED00E000F00700064A11684FF6FF038E
:10227000194041EA002040F0FD7040F0806010609D
:10228000704700000CED00E02DE9F04704460D46D4
:10229000002C13D0DFF85491D9F80000EFB200F011
:1022A0000700A8420DD289F80070D9F8000000F0AC
:1022B0000700A84205D00120BDE8F0870120BDE855
:1022C000F08720684A4E10F0020F14D010F0040F6F
:1022D00003D0306840F4E0503060207810F0080FF0
:1022E00003D0306840F4604030603068A16820F06E
:1022F000F00008433060207810F0010F3ED0606895
:102300003C49012808D002280DD003280BD00968C9
:1023100011F0020F28D00AE0096811F4003F06D13D
:102320000120BDE8F087096811F0007F19D03168FD
:1023300021F0030108433060FFF7DCFE804630687F
:10234000616800F00C00B0EB810F17D041F2883AC1
:10235000FFF7D0FEA0EB0800504508D90320BDE8E8
:10236000F0870120BDE8F0870120BDE8F0873068E4
:10237000616800F00C00B0EB810FE9D1D9F80000E2
:1023800000F00700A8420AD989F80070D9F80000C7
:1023900000F00700A84202D00120BDE8F0872078B5
:1023A00010F0040F05D03068E16820F4E0500843D5
:1023B0003060207810F0080F06D03068216920F4D2
:1023C000604040EAC100306000F042F831680A4ADB
:1023D000C1F30311515CC84008490860084800680F
:1023E000FFF7B0FE0020BDE8F0870000003C02408F
:1023F0000838024000380240CA8E0008040000205D
:1024000054010020014800687047000004000020CB
:1024100000B5FFF7F7FF04490968044AC1F38221B8
:10242000515CC84000BD000008380240DA8E000848
:1024300000B5FFF7E7FF04490968044AC1F34231D8
:10244000515CC84000BD000008380240DA8E000828
:1024500010B51748006810F00C01164816D0164B3E
:10246000042912D0082911D1144C216801F03F022F
:10247000216811F4800F0AD02068C0F38810A0FBF7
:1024800003010023FDF712FF09E0184610BD216883
:102490000023C1F38811A1FB0001FDF707FF2168AC
:1024A000C1F30141491C4900B0FBF1F010BD00002F
:1024B000083802400024F400001BB7000438024032
:1024C0002DE9F84F0446002C12D02078FB4E10F076
:1024D000010FA6F1040563D0301D016801F00C0165
:1024E00004290CD0006800F00C00082803D010E08C
:1024F0000120BDE8F88F306810F4800F09D02868FB
:1025000010F4003F4CD06068002849D10120BDE89C
:10251000F88F6068B0F5803F14D0B0F5A02F16D0CA
:10252000286820F480302860286820F48020286003
:10253000606810B3FFF7DEFD0746286810F4003F1F
:102540000ED02DE0286840F480302860F0E728683D
:1025500040F480202860286840F480302860E7E755
:10256000FFF7C8FDC01B642802D90320BDE8F88F1F
:10257000286810F4003FF3D012E0FFF7BBFD0746D8
:10258000286810F4003F0BD0FFF7B4FDC01B64288F
:1025900002D90320BDE8F88F286810F4003FF3D17A
:1025A0002078C74F10F0020F4FF0000957D0C548F0
:1025B000016811F00C0F14D0006800F00C0008281E
:1025C00003D1306810F4800F0BD0E06880B3012095
:1025D0003860FFF78FFD8046286810F0020F12D098
:1025E0001EE0286810F0020F05D0E068012802D034
:1025F0000120BDE8F88F2868216920F0F80040EA42
:10260000C10028602BE0FFF775FDA0EB0800022851
:1026100002D90320BDE8F88F286810F0020FF2D02D
:102620002868216920F0F80040EAC100286016E01F
:10263000FFE7C7F80090FFF75DFD8046286810F0BF
:10264000020F0CD0FFF756FDA0EB0800022802D9BC
:102650000320BDE8F88F286810F0020FF2D120782F
:1026600010F0080F35D09848DFF860A26169C1B159
:1026700001210160FFF73EFD8046DAF8000010F00E
:10268000020F26D1FFF736FDA0EB0800022802D981
:102690000320BDE8F88FDAF8000010F0020FF1D047
:1026A00017E0C0F80090FFF725FD8046DAF800003B
:1026B00010F0020F0DD0FFF71DFDA0EB080002285F
:1026C00002D90320BDE8F88FDAF8000010F0020FFD
:1026D000F1D1207810F0040F71D04FF000087C4841
:1026E000006810F0805F0AD17948016841F080519C
:1026F0000160006800F0805000904FF00108DFF8A2
:10270000D4B1DBF8000010F4807F1BD1DBF80000AF
:1027100040F48070CBF80000FFF7ECFC8246DBF859
:10272000000010F4807F0DD1FFF7E4FCA0EB0A005D
:10273000022802D90320BDE8F88FDBF8000010F46E
:10274000807FF1D0A068DFF890B1012818D005286B
:102750001DD0DBF8000020F00100CBF80000DBF812
:10276000000020F00400CBF80000A06840B3FFF7A1
:10277000C1FC8246DBF8000010F0020F14D03EE0EE
:10278000DBF8000040F00100CBF80000EDE7DBF8DB
:10279000000040F00400CBF80000DBF8000040F03F
:1027A0000100CBF80000E0E7FFF7A4FCA0EB0A0172
:1027B00041F28830814204D90320BDE8F88F26E039
:1027C00005E0DBF8000010F0020FEDD017E0FFF796
:1027D00091FC8246DBF8000010F0020F0FD0FFF7EB
:1027E00089FCA0EB0A0141F28830814202D9032022
:1027F000BDE8F88FDBF8000010F0020FEFD1B8F160
:10280000010F04D13248016821F080510160A069B4
:10281000F0B32C4909684FF0FF3801F00C0108298A
:1028200066D0022810D0C7F86090FFF763FC04461A
:10283000286810F0007F2BD0FFF75CFC001B0228FB
:1028400051D90320BDE8F88FC7F86090FFF752FC1C
:102850008146286810F0007F0CD0FFF74BFCA0EBFE
:102860000900022802D90320BDE8F88F286810F07B
:10287000007FF2D1216AE069A26A0843616A08EB2D
:102880005202890141EA0241084394F82C1000E009
:1028900055E040EA0160306001203866FFF72AFC0D
:1028A0000446286810F0007F49D1FFF723FC001B85
:1028B000022813D90320BDE8F88F00000438024035
:1028C0000000474208380240800E474274380240F8
:1028D000403802400070004070380240286810F014
:1028E000007FE2D02BE0286810F0007FA4D126E022
:1028F000012822D03068E26900F4800191421AD1A7
:10290000226A00F03F01914215D147F6C071626A18
:102910000140B1EB821F0ED1A26A00F4403108EBF6
:102920005202B1EB024F06D194F82C1000F0706007
:10293000B0EB016F03D00120BDE70120BBE7002011
:10294000B9E7704770B504460025A06C002807D091
:10295000FEF7C4FE20B1606D40F0100060650125F7
:10296000E06C38B1FEF7BAFE20B1606D40F01000A7
:10297000606501252068416821F003014160012064
:1029800084F85100284670BD0168A1F18042B2F57B
:10299000983228D1416D102904D0406D002822D0F2
:1029A000FEF737B8002242650F49487910F0020F50
:1029B00005D040F0020020F00100487112E00879D3
:1029C00010F0020F05D040F0020020F00100087165
:1029D00008E0C87810F0020F04D040F0020020F0A8
:1029E0000100C8700A7070474800002070B50446A6
:1029F000002C09D0606A002540B125616561A5629F
:102A000094F8510040B120E0012070BD6068B0F53D
:102A1000827FF4D0E561F2E784F850502D48A0653C
:102A20002D48E0652D4820662D4860662D48A0663B
:102A30002D48E0662D4820672D486067A06F08B9D3
:102A40002C48A067A16F20468847022084F85100D7
:102A50002068016821F040010160A088218900F40C
:102A6000827001F404410843A18901F40061084324
:102A7000217C01F002010843217D01F0010108439E
:102A8000218B01F400710843217F01F038010843D4
:102A900094F8201001F080010843218D01F40051C9
:102AA000084321680860A069042101EA104094F8F5
:102AB000241001F010010843216848602068C169B2
:102AC00021F40061C1616565012084F85100002096
:102AD00070BD0000412F0008012C0008452F0008A0
:102AE000432F0008032C0008DD2F00088929000867
:102AF00043290008F92A00082DE9F04186B005466F
:102B00000024019402940394049405942868A0F18D
:102B10008041B1F5983160D13148016841F480516C
:102B20000160006800F4805000902E48016841F078
:102B300002010160016801F002010091016841F0A9
:102B400001010160006800F0010000901820019070
:102B500002260296032704974FF00508CDF814804B
:102B600001A92148FFF7A6F980200190029603945D
:102B70000497CDF8148001A91C48FFF79BF91D4E5E
:102B80001B4830604FF0C068C6F80480B460F46041
:102B9000071537617461B461F46134627462304660
:102BA000FEF72AFF08B1FDF734FFEE64B563134E5C
:102BB00011483060C6F804804020B060F46037618E
:102BC0007461B461F461346274623046FEF714FFDC
:102BD00008B1FDF71EFFAE64B56306B0BDE8F08135
:102BE00044380240303802400004024000000240F5
:102BF00010640240A4020020586402400403002034
:102C0000704770472DE9F84F04460A9E8A4693465E
:102C10001F4601254FF0000894F8500001280ED0FF
:102C2000012084F85000FFF765FA814694F85100BE
:102C3000616801280ED0B1F5827F07D102E0022041
:102C4000BDE8F88FA16809B9042803D04FF0020845
:102C500000F0CBB8BAF1000F1DD0BBF1000F1AD0B5
:102C6000380018D094F85100042802D0052084F8C8
:102C7000510000206065C4F838B0E787A787C4F822
:102C800030A0E786A786206460642068016811F0A0
:102C9000400F03D006E04FF00108A6E0016841F0C4
:102CA00040010160E068B0F5006F05D06068002861
:102CB00048D0012F46D07EE0606808B1012F3AD19C
:102CC000206B21680088C860206B801C2063E08E28
:102CD000401EE0862FE02068816811F0020F0DD0C1
:102CE000E18E59B1012D09D1216B0988C160206B9A
:102CF000801C2063E08E401EE086002520688168ED
:102D000011F0010F0BD0E18F49B1C068A16B0880B1
:102D1000A06B801CA063E08F401EE0870125FFF7B9
:102D2000E9F9A0EB0900B04205D3B6F1FF3F02D0AC
:102D30004FF0030859E0E08E0028CCD1E08F002846
:102D4000C9D13EE0206B216800780873206B401CDD
:102D50002063E08E401EE0862DE02068816811F03F
:102D6000020F0DD0E18E59B1012D09D1216B0978E7
:102D70000173206B401C2063E08E401EE08600251E
:102D80002068816811F0010F0BD0E18F49B1C06854
:102D9000A16B0870A06B401CA063E08F401EE08711
:102DA0000125FFF7A7F9A0EB0900B04202D3B6F165
:102DB000FF3F11D186B1E08E0028CED1E08F0028F0
:102DC000CBD14A463146204601F0CCFB38B14FF01A
:102DD00001082020606508E04FF0030805E0A068C6
:102DE00018B92068C16880680090012084F85100FB
:102DF000002084F850004046BDE8F88F2DE9F041EE
:102E00000446002594F8500001280DD0012784F8CD
:102E1000507094F85100D4F804C0002601280FD057
:102E2000BCF5827F0AD102E00220BDE8F081D4F82F
:102E300008C0BCF1000F01D1042801D002256FE0C9
:102E4000002933D0002A31D07BB394F851000428F4
:102E500002D0052084F8510066652163A386E386CD
:102E6000A263A387E3872664666494F8510004286C
:102E70001ED0E16C2D480864E16C2D48C863E16CFC
:102E80002C48C864E06C0665E38F2068A26B00F1F3
:102E90000C01E06CFEF726FE88B1606D40F010007A
:102EA0006065012584F851703AE0FFE7012537E0BD
:102EB000E16C21480864E16C2048C863DFE72068C2
:102EC000416841F001014160A06C0664A06CC663DA
:102ED000A06CC664A06C0665E38E2068216B00F1CF
:102EE0000C02A06CFEF7FEFD38B1606D40F01000E2
:102EF0006065012584F8517012E02068016811F0C6
:102F0000400F03D1016841F0400101602068416831
:102F100041F0200141602068416841F002014160B8
:102F200084F850602846BDE8F0810000FF430008A7
:102F300077440008DB430008F94300080544000813
:102F40007047704770B50168A1F18042B2F59832C0
:102F50003ED1FFF7F7FC1F4C0025207801280CD14B
:102F6000E07810F0020F08D0FDF716FB2570E0782E
:102F700020F0020040F00400E070207802280CD11C
:102F8000607910F0020F08D0FDF716FB257060790C
:102F900020F0020040F004006071207803280CD17A
:102FA000207910F0020F08D0FDF7F6FA257020798D
:102FB00020F0020040F00400207102F089FA6079EC
:102FC00010F0040F04D00448016841F001010160D1
:102FD00070BD000048000020103C01407047000018
:102FE000401EB0F1807F01D3012070474FF0E021F7
:102FF0004861044AF02010700020886107200861B1
:103000000020704723ED00E070477047704730B4F0
:1030100090F83C20012A44D0012480F83C40022250
:1030200080F83D200268D2F804C093682CF0700C40
:103030000D6845EA0C0CC2F804C00268A2F1804C8D
:10304000BCF5803C20D0B2F1804F1DD0A2F1804C65
:10305000BCF5806C18D0A2F1804CBCF5006C13D08C
:10306000A2F1804CBCF5406C0ED0A2F1804CBCF5B6
:10307000823C09D0A2F1804CBCF5A03C04D0A2F166
:10308000804CBCF5C05C04D123F08003496819432F
:10309000916080F83D40002180F83C1030BC002059
:1030A000704730BC0220704710B50446002C03D096
:1030B00094F83D0010B10EE0012010BD002084F80E
:1030C0003C00204601F050FCA06C08B91148A064F7
:1030D000A16C20468847022084F83D00211D20680D
:1030E00001F0F0FA012084F8460084F83E0084F8EC
:1030F0003F0084F8400084F8410084F8420084F8DE
:10310000430084F8440084F8450084F83D00002022
:1031100010BD00001931000808B50068A0F1804119
:10312000B1F5A0510ED0A0F18041B1F5A23108D186
:103130000E48016841F400310160006800F400307D
:10314000009008BD0A48016841F020010160006854
:1031500000F020000090002211463720FFF74EF8C3
:10316000BDE808403720FFF73BB800004438024074
:103170004038024090F83D10012901D001207047ED
:10318000022180F83D100168CA6842F00102CA605D
:103190000068A0F18041B1F5803126D0B0F1804FB8
:1031A00023D0A0F18041B1F580611ED0A0F1804113
:1031B000B1F5006119D0A0F18041B1F5406114D0A2
:1031C000A0F18041B1F582310FD0A0F18041B1F57D
:1031D000A0310AD0A0F18041B1F5C05105D00168FD
:1031E00041F00101016000207047816801F0070192
:1031F0000629F8D0016841F001010160F3E770474A
:103200007047704770B50446206801694FF00005AB
:1032100011F0020F1AD0C16811F0020F16D0E91E8A
:103220000161012020772068806910F0030F04D02D
:10323000D4F890102046884707E0D4F8981020462C
:103240008847D4F89C102046884725772068016974
:1032500011F0040F1BD0C16811F0040F17D06FF0EC
:1032600004010161022020772068806910F4407F0A
:1032700004D0D4F890102046884707E0D4F898107E
:1032800020468847D4F89C10204688472577206838
:10329000016911F0080F1BD0C16811F0080F17D099
:1032A0006FF008010161042020772068C06910F0E8
:1032B000030F04D0D4F890102046884707E0D4F8D4
:1032C000981020468847D4F89C10204688472577D8
:1032D0002068016911F0100F1BD0C16811F0100FA8
:1032E00017D06FF010010161082020772068C069B5
:1032F00010F4407F04D0D4F890102046884707E0AF
:10330000D4F8981020468847D4F89C102046884767
:1033100025772068016911F0010F0AD0C16811F00A
:10332000010F06D06FF001010161D4F88010204632
:1033300088472068016911F0800F0AD0C16811F038
:10334000800F06D06FF080010161D4F8B0102046E4
:1033500088472068016911F0400F0AD0C16811F058
:10336000400F06D06FF040010161D4F8881020466C
:1033700088472068016911F0200F0CD0C16811F056
:10338000200F08D06FF0200101612046D4F8A8106A
:10339000BDE87040084770BD00B587B000210291BC
:1033A00003910491059106910068A0F18041B1F567
:1033B000A23112D10A48016841F020010160006881
:1033C00000F0200001904020029002200390032092
:1033D000069002A90348FEF76DFD07B000BD00008E
:1033E0003038024000140240704770B504460D4664
:1033F000002694F83C0001280FD0012084F83C00FE
:103400006AB1042A1FD0082A32D00C2A44D00126DF
:10341000002084F83C00304670BD022070BD294673
:10342000206801F0C5F92068816941F008018161D7
:103430002068816921F004018161206881692A691D
:1034400011438161E4E72946206801F0E9F9206829
:10345000816941F4006181612068816921F48061A2
:103460008161206881692A6941EA02218161CFE78F
:103470002946206801F010FA2068C16941F008016E
:10348000C1612068C16921F00401C1612068C1697E
:103490002A691143C161BBE72946206801F038FA67
:1034A0002068C16941F40061C1612068C16921F4EB
:1034B0008061C1612068C1692A6941EA0221C16154
:1034C000A6E7000010B50446002C03D094F83D0098
:1034D00010B10EE0012010BD002084F83C00204611
:1034E00001F042FA206E08B911482066216E20468C
:1034F0008847022084F83D00211D206801F0E2F891
:10350000012084F8460084F83E0084F83F0084F8E7
:10351000400084F8410084F8420084F8430084F8B5
:10352000440084F8450084F83D00002010BD0000F0
:1035300035350008704770477047000010B50446E5
:10354000002909D004290AD008290BD094F8410099
:1035500001280AD0012010BD94F83E00F8E794F845
:103560003F00F5E794F84000F2E70220D9B30429C0
:1035700047D0082948D084F841000122206801F092
:1035800007F9234A20682349904201D0884203D199
:10359000436C43F4004343642068904224D0B0F16C
:1035A000804F21D0A0F18042B2F580621CD0A0F102
:1035B0008042B2F5006217D0A0F18042B2F54062BD
:1035C00012D0884210D0A0F18041B1F5A0310BD0CB
:1035D000A0F18041B1F5C05106D0016841F0010170
:1035E0000160002010BD09E0816801F00701062993
:1035F000F7D0016841F001010160F2E784F83E0074
:10360000BBE784F83F00B8E784F84000B5E7000066
:103610000000014000040140704770470023002A69
:1036200018D090F83CC0BCF1010F15D04FF0010C40
:1036300080F83CC090F83DC0BCF1010F0ED090F86E
:103640003DC0BCF1000F60D00123002180F83C1088
:103650001846704701207047022070471B2952D23C
:10366000DFE801F00E10121416181A1C1E20222476
:1036700026282A2D303336393C3F4245484B4E00F0
:103680008264E2E7C264E0E70265DEE74265DCE708
:103690008265DAE7C265D8E70266D6E74266D4E714
:1036A0008266D2E7C266D0E70267CEE74267CCE720
:1036B0008267CAE7C267C8E7C0F88020C5E7C0F8DC
:1036C0008420C2E7C0F88820BFE7C0F88C20BCE7A0
:1036D000C0F89020B9E7C0F89420B6E7C0F8982069
:1036E000B3E7C0F89C20B0E7C0F8A020ADE7C0F871
:1036F000A420AAE7C0F8A820A7E7C0F8AC20A4E758
:10370000C0F8B020A1E701239FE70E2924D2DFE80B
:1037100001F007090B0D0F11131517191B1D1F21A0
:10372000826492E7C26490E702658EE742658CE7A7
:1037300082658AE7C26588E7026686E7426684E7B3
:10374000826682E7C26680E702677EE742677CE7BF
:1037500082677AE7C26778E7012376E770477047A8
:1037600038B5044694F83E00202801D0022038BD28
:1037700071B16AB194F83C0001280BD0012084F8A3
:103780003C002063204601F0F1FA034623B107E034
:10379000012038BD022038BD206B012802D0012352
:1037A000184638BD206801684068009020680C30D9
:1037B00050E8001F41F0100140E80012002AF5D146
:1037C000EEE77047704770477047000010B501F092
:1037D00019FE0446054850F8240003F096F9044900
:1037E00051F82400401C41F8240010BD6016002050
:1037F00038160020F8B5044622681068D16853696D
:1038000000F00F0CBCF1000F0AD110F0200F07D010
:1038100011F0200F04D02046BDE8F84001F0C4B9F3
:103820000025BCF1000F79D003F0010C01F4907673
:103830005CEA060672D010F0010F06D011F4807F0A
:1038400003D0226C42F00102226410F0040F06D073
:1038500013F0010F03D0226C42F00202226410F038
:10386000020F06D013F0010F03D0226C42F00402C5
:10387000226410F0080F08D001F0200252EA0C0276
:1038800003D0226C42F008022264226C002A44D049
:1038900010F0200F05D011F0200F02D0204601F0CB
:1038A00083F920684069C0F38010216C11F0080F83
:1038B00000D168B3204601F00EF92068406910F08D
:1038C000400F1ED02068143050E8001F21F0400146
:1038D00040E80012002AF5D1A06B60B16149016592
:1038E000A06BFDF74CFF002817D0A06B016D01B055
:1038F000BDE8F0400847616D01B02046BDE8F040EA
:103900000847616D01B02046BDE8F040084705E07A
:10391000FFE7616D204688472564F8BD236B012BC6
:103920007DD110F0100F7AD011F0100F77D0106801
:103930005068009050694FF0200310F0400F45D0C0
:10394000A16B0868406880B20028E6D0A28D824250
:10395000E3D9E085C869B0F5807F2DD020680C30B0
:1039600050E8001F21F4807140E80012002AF5D1D0
:103970002068143050E8001F21F0010140E80012D7
:10398000002AF5D12068143050E8001F21F04001D2
:1039900040E80012002AF5D184F83E302563206803
:1039A0000C3050E8001F21F0100140E80012002AFE
:1039B000F5D1A06BFDF792FEA08DE18DA26E401AAD
:1039C00081B201B02046BDE8F0401047A08DE18DE6
:1039D000401A81B2E08D00289FD000299DD0206838
:1039E0000C3050E8002F22F4907240E8002CBCF11B
:1039F000000FF4D12068143050E8002F22F00102AB
:103A000040E8002CBCF1000FF4D184F83E3025636F
:103A100020680C3050E8002F22F0100200E009E08E
:103A200040E80023002BF3D1A26E01B02046BDE890
:103A3000F040104710F0800F07D011F0800F04D035
:103A40002046BDE8F84001F0DBB910F0400F3FF42C
:103A500064AF11F0400F3FF460AF2046BDE8F8407E
:103A600001F060B8ED49000870B50446002C04D0A0
:103A700094F83D00002510B10DE0012070BD84F8E0
:103A80003C50204601F06AF8E06E08B91348E06641
:103A9000E16E20468847242084F83D002068C168F4
:103AA00021F40051C160204601F0E2F8206801696C
:103AB00021F4904101612068416921F02A014161AE
:103AC0002068C16841F40051C1602564202084F859
:103AD0003D0084F83E00002070BD00008D3B0008D2
:103AE00010B5044623492068A0F18042B2F588321F
:103AF00017D0A0F18042B2F5904227D0A0F18042C9
:103B0000B2F58A3234D1086820F0200008604FF402
:103B100084411948FEF7ECF8BDE810404720FEF755
:103B20004DBB086820F01000086080211348FEF7A4
:103B3000DFF84FF400711248FEF7DAF8A06BFDF7DA
:103B400030FEBDE810402520FEF738BB0D48016867
:103B500021F4802101604FF440610B48FEF7C8F862
:103B6000A06BFDF71EFEBDE810402720FEF726BB28
:103B700010BD00004438024000180240000402401A
:103B80000000024040380240000802402DE9F047A2
:103B900086B005460024019402940394049405948D
:103BA00028680226664A6749B706A0F180434FF0AD
:103BB00003094FF0070A4FF48068B3F5883330D01B
:103BC000A0F18043B3F590437CD0A0F18043B3F5DE
:103BD0008A3323D1106840F020001060106800F094
:103BE00020000090086840F040000860086800F07D
:103BF000400000904FF4844001900296CDF8109060
:103C00000820059001A95048FEF754F900221146FA
:103C10004720FEF7F3FA4720FEF7E2FA06B0BDE8C8
:103C2000F087106840F010001060106800F010007D
:103C30000090086840F002000860086800F0020088
:103C40000090086840F001000860086800F001007A
:103C50000090802001900296CDF81090CDF814A02D
:103C600001A93A48FEF726F94FF400700190029638
:103C70000394CDF81090CDF814A001A93448FEF7B4
:103C800019F9354E334830607760B460F460C6F897
:103C900010807461B461F461346274623046FDF77F
:103CA000ABFE08B1FCF7B5FEAE63B563002211466A
:103CB0002520FEF7A3FA2520FEF792FA06B0BDE80C
:103CC000F087FFE72548026842F48022026000681E
:103CD00000F480200090086840F004000860086844
:103CE00000F0040000904FF4406001900296CDF87F
:103CF0001090CDF814A001A91948FEF7DBF81A4E70
:103D0000184830607760B460F460C6F81080746161
:103D1000B461F461346274623046FDF76DFE08B13F
:103D2000FCF777FEAE63B563002211462720FEF74D
:103D300065FA2720FEF754FA06B0BDE8F0870000C8
:103D4000443802403038024000180240000402406B
:103D50000000024040640240280600204038024033
:103D60000008024028600240880600207047704723
:103D700070477047FEE7704730B503460C46108821
:103D8000154D00280DD1A5F10C0090ED000A85ED30
:103D9000000A90ED010A85ED010A90ED020A85ED19
:103DA000020A0E4901F5847004F000FB95ED000A4B
:103DB00084ED000A95ED010A84ED010A95ED020AF1
:103DC00084ED020AB7EE000A83ED000A83ED010AD2
:103DD00083ED020A30BD00003C15002034140020A1
:103DE0000A4891ED001A80ED001A91ED010A80ED6C
:103DF000010AD1ED020AC0ED020A0C3080ED001A72
:103E000080ED010AC0ED020A704700003015002065
:103E100010B510480E490160022141600021816007
:103E2000C1604FF4302202614FF4E002426101763A
:103E3000012242768176C27601774277FDF734FA25
:103E4000002803D0BDE81040FCF7E3BD10BD000022
:103E5000006400405C01002010B510480E4901606C
:103E60000221416000218160C1604FF43022026173
:103E70004FF4E00242610176012242768176C276F9
:103E800001774277FDF710FA002803D0BDE8104013
:103E9000FCF7BFBD10BD000000680040C00100205D
:103EA00008B51948016841F480010160016801F416
:103EB00080010091016841F400110160006800F484
:103EC00000100090002211460C20FEF797F90C20FC
:103ED000FEF786F9002211463820FEF78FF93820C8
:103EE000FEF77EF9002211463A20FEF787F93A20C4
:103EF000FEF776F9002211463B20FEF77FF9BDE878
:103F000008403B20FEF76CB930380240F0B587B06E
:103F10000024029403940494059406944048016894
:103F200041F002010160016801F0020101910168A4
:103F300041F040010160016801F040010191016818
:103F400041F001010160016801F001010191016886
:103F500041F008010160016801F008010191016868
:103F600041F004010160016801F004010191016860
:103F700041F080010160016801F080010191016858
:103F800041F020010160006800F020000190254E02
:103F9000002210213046FEF7A5F8234F0022012110
:103FA0003846FEF79FF810200290012503950494EF
:103FB000059402A93046FDF77DFF302002904FF4B2
:103FC00088160396049402A91848FDF773FF02951A
:103FD0000396049502A91648FDF76CFF0295039518
:103FE0000494059402A93846FDF764FF00221146A7
:103FF0000620FEF703F90620FEF7F2F8002211462C
:104000000A20FEF7FBF80A20FEF7EAF80022114624
:104010001720FEF7F3F81720FEF7E2F807B0F0BD1F
:104020003038024000000240000402400008024014
:104030000018024010B510480E4901604FF482711B
:10404000416000218160C16002220261012242615F
:10405000520282611822C2610162416281620A21B8
:10406000C162FEF7C3FC002803D0BDE81040FCF796
:10407000D0BC10BD003001402402002010B588B033
:1040800000240194029403940494059406940794E4
:104090001448134901604460846041F28831C16072
:1040A000046180218161FEF7FFFF08B1FCF7B1FCDC
:1040B0000C48FFF707FA08B1FCF7ABFC6020019051
:1040C000029403940594002201A90648FFF78DF994
:1040D00008B1FCF79EFC0348FFF75EF908B010BD7D
:1040E000004401401804002010B582B00024009460
:1040F00001940F480D49016053214160846040F2F2
:10410000CF71C16080218161FEF7CEFF08B1FCF75D
:1041100080FC0094019469460548FEF778FF00286A
:1041200001D0FCF776FC02B010BD00000014004086
:104130006403002010B50C480A4901604FF4E131D6
:10414000416000218160C16001610C224261816196
:10415000C161FFF789FC002803D0BDE81040FCF7DF
:1041600058BC10BD00100140CC04002010B50E4812
:104170000C4901600D4941604FF48051816000217C
:10418000C1604FF4806202610C2242618161C161B1
:10419000FFF76AFC002803D0BDE81040FCF739BCEB
:1041A00010BD00000048004040050020A08601002E
:1041B00010B50C480A4901604FF4E131416000211B
:1041C0008160C16001610C2242618161C161FFF7C0
:1041D0004BFC002803D0BDE81040FCF71ABC10BD12
:1041E00000140140B405002000B50246F0EE403A4C
:1041F000B0EE604AF0EE414AB7EE000AF5EEC01AA2
:10420000C0EE035AF6EE006AF1EE10FA09D1B5EEEF
:10421000C02AF1EE10FA04D1F5EEC02AF1EE10FA40
:1042200076D021EEA10A02EE020A02EEA20A04F002
:10423000E3F821EE803A22EE002A62EE802AD2EDE7
:10424000011AD2ED030A92ED000A92ED026A21EE04
:10425000A01A00EE461A60EE211A46EE201AB0EEC1
:10426000665A10EE005A00EEA05A22EE050A02EE3F
:10427000E10A62EE810A43EE450A63EE211A42EE3C
:10428000411A524890ED041AB5EEC01AF1EE10FA38
:104290002ADD90ED041A21EE002A90ED051A02EEB7
:1042A000251A80ED051A90ED041A21EE202A90EDD2
:1042B000061A02EE251A80ED061A90ED041A21EE78
:1042C000212A90ED071A02EE251A80ED071A90EDCB
:1042D000051A73EE813A90ED061A34EE014A90ED1C
:1042E000071A74EE814A07E09FED391A80ED051A2E
:1042F00080ED061A80ED071A90ED031A41EE003AA0
:1043000090ED030A00EE204A90ED030A40EE214AA8
:1043100025EEA61A21EE230A61EE040A21EE241AE4
:10432000D2ED001A92ED012AD2ED022AB1EE423A04
:1043300063EE003A92ED033A42EEE03A43EE413A40
:1043400073EEA14AC2ED004A61EE803A42EE813A34
:1043500043EE603A73EE823AC2ED013A21EEA04A92
:1043600002EE414A03EE004A34EE224A82ED024A4E
:1043700021EE811A02EE201A02EEC01A71EE030A33
:10438000C2ED030A24EEA40A03EEA30A04EE040A13
:1043900000EEA00A04F030F8D2ED000A60EE800AC8
:1043A000C2ED000AD2ED010A60EE800AC2ED010AF8
:1043B000D2ED020A60EE800AC2ED020AD2ED030AD3
:1043C00020EE800A82ED030A00BD000048000020B4
:1043D00000000000FEE7FEE77047806B01684A6856
:1043E00022F003024A60416D41F010014165012154
:1043F00080F85110016F0847806B816E0847806B11
:10440000C16E084770B50546AC6BFDF773FE0246FA
:104410002868006810F4807F28D12068416821F066
:1044200020014160A06818B96068B0F5827F17D09C
:104430002068416821F0010141606421204600F0BC
:104440004AF808B1202060650020E087012084F848
:104450005100606D50B12046216FBDE870400847A3
:104460002068416821F003014160E6E72046E16DE4
:10447000BDE87040084770B50546AC6BFDF73AFEE5
:1044800002462868006810F4807F1FD120684168C8
:1044900021F0200141606421204600F063F818B14A
:1044A000606D40F0200060652068416821F00301E4
:1044B00041600020E086E087012084F85100606DB3
:1044C00020B12046216FBDE8704008472046216E8C
:1044D000BDE87040084738B504466068B0F5827F93
:1044E0000BD1A068B0F5004F02D0B0F5806F04D1B9
:1044F0002068036823F0400303606068B0F5827FA2
:104500000DD00B46009200220121204600F05CF8FD
:1045100028B3606D40F020006065032038BDA068BE
:10452000B0F5806F0DD00B4600920022802120460E
:1045300000F04AF898B1606D40F0200060650320FB
:1045400038BD0B46009200220121204600F03CF8C5
:1045500028B1606D40F020006065032038BD002068
:1045600038BD000010B582B004461548DFF854C0CD
:104570000068B0FBFCF04FF47A7C00FB0CF001907B
:104580006068B0F5827F0ED10B4600920022802138
:10459000204600F019F880B1606D40F020006065A1
:1045A00002B0032010BD019838B10198401E01905F
:1045B0002068806810F0800FF5D102B0002010BD97
:1045C0000400002000366E012DE9F84304460F4632
:1045D00090469946089DFDF78DFD401BA9EB00050F
:1045E000FDF788FD06462D480068C0F3CB306843D0
:1045F00000902068806837EA00000ED00020404517
:1046000046D0B9F1FF3F3BD0FDF774FD801BA842B7
:1046100005D225B1009870B32FE00120EFE72068A4
:10462000416821F0E00141606068B0F5827F0BD104
:10463000A068B0F5004F02D0B0F5806F04D12068BB
:10464000016821F040010160A06AB0F5005F09D166
:104650002068016821F4005101602068016841F47C
:1046600000510160012084F85100002084F85000BE
:104670000320BDE8F883FFE700250098401E009066
:104680002068806837EA000005D000204045B8D196
:104690000020BDE8F8830120F8E7000004000020B6
:1046A0007047FDF72DBD00000248016841F470011C
:1046B0000160704788ED00E00148FEF7A3BD0000EF
:1046C00064030020F0B402682C4B2D4C2D4D2E4E6F
:1046D000DFF8B8C098420AD0B0F1804F07D0A042AE
:1046E00005D0A84203D0B04201D0604503D122F0EA
:1046F00070024F683A43984228D0B0F1804F25D0DD
:10470000A04223D0A84221D0B0421FD060451DD086
:10471000A0F18044B4F5A03418D0A0F18044B4F5E1
:10472000A23413D0A0F18044B4F5A4340ED0A0F18B
:104730008044B4F5C05409D0A0F18044B4F5E054ED
:1047400004D0A0F18044B4F5005403D122F44072A7
:10475000CC6822434C6922F08002224302608A68BE
:10476000C2620A688262984201D0604501D109693B
:10477000016301214161F0BC70470000000001406D
:104780000004004000080040000C0040000401400C
:1047900001F01F0101238B40D0F820C02CEA030355
:1047A0000362036A02FA01F11943016270470000D3
:1047B00070B4026A22F001020262036A4268D0F811
:1047C00018C02CF0700C2CF0030C0C6844EA0C0C94
:1047D00023F002038C6823430F4C104DA04201D0FC
:1047E000A84205D123F00803CE68334323F0040325
:1047F000A04201D0A84207D122F4807222F40072B4
:104800004C6922438C6922434260C0F818C0496851
:104810004163036270BC7047000001400004014026
:1048200070B4026A22F010020262036A4268D0F891
:1048300018C02CF4E04C2CF4407C0C684CEA042C9E
:1048400023F020038C6843EA0413114C114DA0425D
:1048500001D0A84206D123F08003CE6843EA0613B4
:1048600023F04003A04201D0A84209D122F4806283
:1048700022F400624C6942EA84028C6942EA8402B2
:104880004260C0F818C049688163036270BC704719
:10489000000001400004014070B4026A22F48072FA
:1048A0000262036A4268D0F81CC02CF0700C2CF035
:1048B000030C0C6844EA0C0C23F400738C6843EA84
:1048C0000423114C114DA04201D0A84206D123F47B
:1048D0000063CE6843EA062323F48063A04201D03C
:1048E000A84209D122F4805222F400524C6942EAD3
:1048F00004128C6942EA04124260C0F81CC0496884
:10490000C163036270BC70470000014000040140B5
:1049100010B4026A22F480520262D0F820C04268C9
:10492000C36923F4E04323F440730C6843EA04238F
:104930002CF4005C8C684CEA043CA0F18044B4F593
:10494000803404D0A0F18044B4F5823404D122F440
:1049500080424C6942EA84124260C3614968016442
:10496000C0F820C010BC70471349C0F8801013492C
:10497000C0F884101249C0F888101249C0F88C1091
:104980001149C0F890101149C0F894101049C0F8AE
:1049900098101049C0F89C100F49C0F8A0100F499A
:1049A000C0F8A4100E49C0F8A8100E49C0F8AC1009
:1049B0000D49C0F8B0107047193600081B360008C2
:1049C0005D3700085F370008013200080332000835
:1049D000E93300083735000839350008FF31000891
:1049E0000B3000080D30000809300008806B0021F2
:1049F000C185C184416D084770B5846B20684069EA
:104A0000C0F3C01094F83D100025212904D118B13D
:104A1000E584204600F093F820684069C0F38010D8
:104A200094F83E10222904D118B1E585204600F003
:104A300052F8206C40F0100020642046616DBDE803
:104A4000704008470146886B0968096811F4807F47
:104A50002FD10021C18501680C3151E8002F22F4CB
:104A6000807241E80023002BF5D10168143151E830
:104A7000002F22F0010241E80023002BF5D101684C
:104A8000143151E8002F22F0400241E80023002BAE
:104A9000F5D1202180F83E10016B012909D1016870
:104AA0000C3151E8002F22F0100241E80023002BC6
:104AB000F5D1016B012901D0016D0847826E818D0E
:104AC0001047806B016B012901D0C16C0847818DB3
:104AD000826E4908104701680C3151E8002F22F41A
:104AE000907241E80023002BF5D10168143151E8A0
:104AF000002F22F0010241E80023002BF5D1016BC9
:104B0000012909D101680C3151E8002F22F010026F
:104B100041E80023002BF5D1202180F83E10002130
:104B20000163704710B50168CA6822F04002CA608C
:104B3000202180F83D10816C8847002010BD01685D
:104B40000C3151E8002F22F0C00241E80023002B75
:104B5000F5D1202180F83D107047000009494164DB
:104B6000094981640949C1640949016509494165E7
:104B7000094981650949C165094901660949816693
:104B800070470000733D0008713D00086F3D00084C
:104B90006D3D0008CD370008C5370008C93700084B
:104BA000C7370008C337000808B590F83E1022291F
:104BB00001D0022008BD8268B2F5805F01D1016991
:104BC00029B1816AB2F5805F1DD052B10BE0816AD4
:104BD00002685268C2F308020A80816A891C8162F5
:104BE00009E002697AB10268526802F07F020A7035
:104BF000816A491C8162C18D491E0904090CC18565
:104C000005D0002008BD026852680A70F0E701680C
:104C1000CA6822F02002CA600168CA6822F4807261
:104C2000CA6001684A6922F001024A61202180F8C5
:104C30003E10016B012903D0016D8847002008BD9B
:104C40000021016301680C3151E8002F22F01002AD
:104C500041E80023002BF5D101680A6812F0100F1B
:104C600002D00A6849680091826E818D9047E5E71D
:104C70002DE9F041044620680169E26821F44051C1
:104C8000114301612169A068E26908436169114328
:104C900001432068C26822F4037222F414421143D3
:104CA000C16020684169A26921F4407111434161EA
:104CB0002068A0F18041B1F588312ED0A0F180416B
:104CC000B1F58A3129D0FDF7A3FB8446E1690020C4
:104CD0001927254D3226B1F5004F22D06068830F89
:104CE0008200ACFB0701FBF7E1FA0146A5FB0020BF
:104CF00040097A42424301EB820106EB0111A5FB18
:104D00000121490901F0F00202EB001001F00F014E
:104D1000084421688860BDE8F081FDF789FB84467E
:104D2000D4E761684A1840EB0003ACFB0701FBF7CE
:104D3000BDFA0346A5FB0010410918460A016FF0B1
:104D40001803594300EB810006EBC000A5FB0010DF
:104D5000400900F0F80102EB410100F007000844AF
:104D600021688860BDE8F0811F85EB5137B582B0BE
:104D700004461346039AA262A385002525642220D7
:104D800084F83E00A16B1B48C863A16B1A480864F5
:104D9000A16B1A48C864A06B05652068011DA06B53
:104DA000FCF7A0FE206801684068019084F83C5040
:104DB00020680C3050E8001F41F4807140E8001278
:104DC000002AF5D12068143050E8001F41F001019D
:104DD00040E80012002AF5D12068143050E8001F86
:104DE00041F0400140E80012002AF5D105B0002052
:104DF00030BD0000454A0008C34A0008F9490008D0
:104E000090F83D10212901D0022070478168B1F54A
:104E1000805F01D1016961B1016A4A1C02620268C6
:104E200009785160C18C491E0904090CC1840AD05B
:104E300013E0016A02680988C1F308015160016A40
:104E4000891C0162EEE70168CA6822F08002CA602C
:104E50000068C16841F04001C16000207047000057
:104E60000148FEF7C7BC0000CC0400200148FEF753
:104E7000C1BC0000400500200148FEF7BBBC00009B
:104E8000B4050020FEE70B46014692001846FBF7EA
:104E900084BA00008446084600EE10CAD0ED000A2D
:104EA000B8EE400A30EE800A80ED000A10EE101ACB
:104EB000DFF854C09FED151A614503DD30EE410A5D
:104EC00080ED000A00EE102AD0ED000AB8EE400A8C
:104ED00030EEC00A10EE101AB1F18B4F06DB30EE47
:104EE000410A70EEC10AC0ED000A0AE010EE101A85
:104EF00011F16A5F05D330EE010A70EE810AC0ED50
:104F0000000A194600F064BF00F8FF4500000046A3
:104F100010B557484188A1F57C724FF48061202A72
:104F200000D841808288A2F57C72202A00D8818036
:104F30004188A1F5806100EE101A4E49F8EEC00AD2
:104F400091ED080A20EE801ADFED4B1A4B4CC1EEB2
:104F5000210AC4ED100A8288A2F5806201EE102AAF
:104F6000B8EEC11A21EE000A80EE211A84ED111A62
:104F7000B0F90C00D1ED071A00EE100AB8EEC00A25
:104F800020EE210A84ED120A10EE100A3C498842F4
:104F90000BDD9FED3C0A30EE800A84ED100A9FED98
:104FA0003A0A31EE000A84ED110A00F031FD94ED69
:104FB000121AD4ED110A94ED100A00F0CDFDD4EDD3
:104FC000090AB6EE000A20EE801ADFED300AC1EEC3
:104FD000201A9FED2F1A61EE811AC4ED091AD4ED43
:104FE0000B1A21EE802AC2EE201A61EE811AC4ED5E
:104FF0000B1AD4ED0D1A21EE802AC2EE201A61EEB2
:10500000811AC4ED0D1AD4ED0F1A21EE800AC0EEFC
:10501000201A21EE810A84ED0F0A1E4804F12401B2
:1050200000F50473428841F28910FFF733FF1A48F4
:1050300004F1080304F12C01428841F65100FFF706
:1050400029FF164804F1100304F13401428841F6A7
:105050005640FFF71FFF124804F1180304F13C010A
:105060004288BDE8104041F25960FFF713BF0000CD
:10507000D813002008000020000025445813002009
:105080000000A0400000584200003042DA0F4940C2
:105090000000004648110020CC11002050120020D2
:1050A000D412002010B5134C2069401C2061124915
:1050B00008460A78C07B012A04D14A78012A01D126
:1050C000012814D010B9887B012810D0FFF720FFE9
:1050D00001F05EF82069962801D301F0EFF8074847
:1050E00001F0BCFBBDE81040054801F0B7BB01F082
:1050F000E5F8EFE708000020D8130020E8060020BC
:10510000800B00200068A0F18041B1F5C84106D0B5
:10511000A0F18041B1F5D04103D0002070470120BB
:105120007047022070470068A0F18041B1F58031DE
:1051300040D0B0F1804F41D0A0F18041B1F5806105
:105140003AD0A0F18041B1F5006139D0A0F18041A1
:10515000B1F5406136D0A0F18041B1F5805133D036
:10516000A0F18041B1F5A05130D0A0F18041B1F55E
:1051700082312DD0A0F18041B1F5A0312AD0A0F12B
:105180008041B1F5A23127D0A0F18041B1F5A43121
:1051900024D0A0F18041B1F5C05121D0A0F18041CF
:1051A000B1F5E0511ED0A0F18041B1F500511BD006
:1051B000002070470120704703207047022070478D
:1051C000042070470520704706207047072070476D
:1051D00008207047092070470A2070470B2070474D
:1051E0000C2070470D2070470E207047072936D1DC
:1051F0000178427841EA0221194A91810178427886
:1052000041EA022217494A818278C378920942EA28
:105210008302037942EA8322C2F30A024A800279B6
:105220004379520842EAC312C2F30A028A804279E1
:1052300092090A704279C2F301124A708379C279E5
:1052400003F03F0342EA03228A818279C2F380128B
:105250008A738079C009C8730349002008617047C8
:10526000E8130020D8130020080000202DE9F8439F
:10527000002500261E4F05EB850000EBC50808EB56
:1052800007042079D4F8051000F07F0206F10060D1
:1052900000F54020FFF7F7FD207900F07F0006EBD6
:1052A000800086B206F100600122694600F54020C8
:1052B000FFF7E9FD9DF8000007F808009DF80100E0
:1052C00060709DF80200A0709DF80300E070311D31
:1052D0008EB2552806D0D4F8090018B1207940F0D4
:1052E00080002071681CC5B2042DC4D3BDE8F883CA
:1052F000F014002000B50A460146002A03D0012A16
:1053000007D0002000BD01F10C00FEF769FD002070
:1053100000BD084A01F10C00FEF72EFD064844F6D8
:1053200020620189914203D900210181012000BD41
:10533000002000BD500000204800002000290BD0B4
:10534000002101702821C17043F23901A0F8011039
:105350000249416001207047012070470000B041C0
:105360002DE9F0010023254D254F05F12406A7F175
:10537000180803EB430405EB840C92ED050ADCED01
:10538000000A9CED011A20EE200AD2ED060A00EE7A
:10539000810AD2ED070A9CED021A07EB830C00EE9E
:1053A000810ADCED000A00EB830C30EE200A8CED64
:1053B000000A06EB840C92ED010ADCED000A9CED7C
:1053C000011A20EE200AD2ED020A00EE810AD2ED87
:1053D000030A9CED021A08EB830C00EE810ADCED57
:1053E000000A01EB830C30EE200A8CED000A5B1CF6
:1053F000DBB2032BBDD3BDE8F0017047DC00002019
:105400003C1500200068A0F18041B1F588311AD028
:10541000A0F18041B1F5884117D0A0F18041B1F5EC
:10542000904114D0A0F18041B1F5984111D0A0F184
:105430008041B1F5A0410ED0A0F18041B1F58A3193
:105440000BD00020704701207047022070470320D6
:105450007047042070470520704706207047000001
:105460002DE9F04100240026DFF85880A8F17407E8
:1054700004EB840000EBC40000EB08052879D5F8A4
:1054800005104006C20DB819FAF787FF287900F019
:105490007F0006EB800080B239182A680A60001D80
:1054A00086B2601CC4B2042CE2D3074C0121204612
:1054B00002F04CFE2046BDE8F0411D22034902F0F7
:1054C0005BBE0000F014002000000C087C140020DB
:1054D00010B523490878002840D1487910F0010F11
:1054E00011D002220A7020F0010040F00200487141
:1054F000FBF76AF81B4ABDE810400823A2F1080137
:105500001948FDF77BBCC87810F0010F10D00122BC
:105510000A7020F0010040F00200C870FBF744F868
:10552000BDE810400923114A11490F48FDF766BC38
:10553000087910F0010F11D003220A7020F0010049
:1055400040F002000871FBF72FF80A4ABDE810404E
:105550000423A2F118010448FDF750BC10BD00005F
:10556000480000209400002024020020A015002004
:10557000D000002088000020012202FA01F1491E1B
:1055800070EEC00A01EE100AB8EE411A20EE811A40
:1055900000EE901AF8EE601AC1EE210A30EE800A91
:1055A0007047000070B52DED028B22499FED228AD5
:1055B000224D8879002817D0F0EE400A9FED200A8E
:1055C000204801F0C7FAB5EEC00AF1EE10FA01D298
:1055D000B0EE480ABCEEC00A10EE100A80B229688C
:1055E0004863BDEC028B70BD10EE100A164A904263
:1055F00019DD8878401CC0B28870C82815D90120F0
:105600008871B0EE481ADFED112AB0EE413AB3EEE0
:105610000E2ADFED0F1ADFED0F0A9FED0F0A094882
:1056200001F020FB01E041F2883428684463BDECBE
:10563000028B70BD4800002000000000180400200C
:10564000000034426C1500200000344200401C452C
:1056500000A08C45CDCCCC3D0000C84410B503461D
:10566000C1F30720012839D1C1F30560022835D1E3
:1056700058781978DFED1A0A40EA012010219FEDD1
:10568000190AFFF779FF184C84ED010AD878997848
:10569000DFED160A40EA012010219FED150AFFF701
:1056A0006BFF84ED000A58791979F3EE010A40EA9C
:1056B00001201021BBEE010AFFF75EFF84ED040A12
:1056C000D8799979F2EE040A40EA012000EE100A36
:1056D000B8EE400A80EE201A84ED021A10BD0000D8
:1056E000B81E4941B81E49C1FC13002000003042D9
:1056F000000030C270B5DFF854C2954B9CF805002D
:1057000010F0040F32D003F1140120F004008CF8E3
:1057100005000CF14C0082784478120212B2224348
:1057200000EE102ADCED090AB8EEC00A20EE200ACD
:1057300081ED000A0279C478120212B2224300EE0F
:10574000102AF8EEC00A9CED090A60EE800AC1ED4D
:10575000010A82794079120212B2104300EE900AD7
:10576000F8EEE00A20EE800A81ED020A9CF80300C0
:10577000784C10F0040F44D0191D20F004008CF870
:10578000030004F5AA70C2788578120212B22A4387
:1057900000EE102ADCED080AB8EEC00A20EE200A5E
:1057A00081ED000A42790579120212B22A4300EE15
:1057B000102AF8EEC00A9CED080A60EE800AC1EDDE
:1057C000010AC2798579120212B22A4300EE902AA8
:1057D000F8EEE00A20EE800A81ED020A817A427A30
:1057E0000904007A41EA0221084300EE100AB8EEEB
:1057F000400ADFED590A20EE200A84ED0A0A83ED03
:10580000080A9CF8040010F0040F1FD020F00400D8
:105810008CF8040051488178C078C90041EA5010E2
:10582000B0F5806F02DBA0F5006000B200EE100A58
:10583000B4EE001AF8EEC00AB3EE070A00EE810AD1
:1058400084ED090A83ED040AFFF7ACFE404AA2F595
:105850008471A1F10C00FFF783FD4148A0F10C0217
:1058600090ED000A82ED000A00F10C01D1ED000A72
:10587000C0ED000A9FED3B1ADFED3B1A00F1240555
:1058800060EE810A9FED392A40EE210A95ED000A6B
:1058900040EE020AC1ED000A90ED010A82ED010A14
:1058A000D1ED010AC0ED010A60EE810A40EE210A45
:1058B00095ED010A40EE020AC1ED010A90ED020ADF
:1058C00082ED020AD1ED020AC0ED020A60EE810A01
:1058D00040EE210A95ED020A40EE020AC1ED020AED
:1058E00000F10C0300F1180201212148FAF73CFEF7
:1058F000A5F10C009FED1F0AD0ED000A60EE800AB2
:10590000C4ED020AD0ED010A60EE800AC4ED010A7E
:10591000D0ED020A20EE800A84ED000A95ED000A1F
:1059200084ED050A95ED010A84ED040A95ED020A5D
:1059300084ED030A04F120031A1F111F0C4800F024
:10594000F1FC012084F82C0070BD0000480000200C
:10595000481500204C14002000401C428800002004
:105960001C1400205AF8F63F5D896EBFD5A9183B7C
:1059700024010020E12E654230B593B00024089444
:1059800009940A940B94019402940394049405944A
:105990001D48016841F080510160006800F08050AE
:1059A00000901A48016841F480410160006800F4E9
:1059B00080400090012006900004079002250C957D
:1059C00080010D9006200E90A8200F9010950420C5
:1059D000119006A8FCF774FD08B1FBF71AF80F2028
:1059E0000190029503944FF4A05004904FF480501E
:1059F0000590052101A8FCF747FC002801D0FBF722
:105A000008F813B030BD000040380240007000407C
:105A100070B52DED048B3248DFED320A90ED010AAE
:105A200030EE600A10EE100A03F0D4F92E4C41EC6F
:105A3000100B84ED0E0B01F047FC2C4DB0EE408AAC
:105A4000F0EE608A686C03F0C5F953EC182B02F095
:105A5000CDFF41EC180B286C03F0BCF941EC190B9D
:105A600094ED0E0B01F024FB53EC192B51EC100BB1
:105A700002F0BCFF53EC182B02F05EFD02F02AFD91
:105A8000A06294ED0E0B01F01FFCB0EE408AF0EE28
:105A9000608A286C03F09EF953EC182B02F0A6FFE5
:105AA00041EC180B686C03F095F941EC190B94ED7F
:105AB0000E0B01F0FDFA53EC192B51EC100B02F018
:105AC00095FF53EC182B03F09BF802F003FDE06206
:105AD00094ED0A0A85ED100A6864BDEC048B70BD74
